{
  "_format": "hh-sol-artifact-1",
  "contractName": "ConstantSumAMM",
  "sourceName": "contracts/ConstantSumAMM.sol",
  "abi": [
    {
      "inputs": [
        {
          "internalType": "address",
          "name": "_token0",
          "type": "address"
        },
        {
          "internalType": "address",
          "name": "_token1",
          "type": "address"
        },
        {
          "internalType": "uint256",
          "name": "_FEE",
          "type": "uint256"
        }
      ],
      "stateMutability": "nonpayable",
      "type": "constructor"
    },
    {
      "inputs": [
        {
          "internalType": "uint256",
          "name": "fee",
          "type": "uint256"
        }
      ],
      "name": "InvalidFee",
      "type": "error"
    },
    {
      "inputs": [
        {
          "internalType": "address",
          "name": "sender",
          "type": "address"
        },
        {
          "internalType": "uint256",
          "name": "amount",
          "type": "uint256"
        }
      ],
      "name": "InvalidShares",
      "type": "error"
    },
    {
      "inputs": [],
      "name": "InvalidSupply",
      "type": "error"
    },
    {
      "inputs": [
        {
          "internalType": "uint256",
          "name": "amount",
          "type": "uint256"
        },
        {
          "internalType": "uint256",
          "name": "amountOut",
          "type": "uint256"
        }
      ],
      "name": "NotEnoughLiquidity",
      "type": "error"
    },
    {
      "inputs": [
        {
          "internalType": "address",
          "name": "token",
          "type": "address"
        }
      ],
      "name": "TokenNotInPool",
      "type": "error"
    },
    {
      "inputs": [],
      "name": "ZeroShares",
      "type": "error"
    },
    {
      "inputs": [],
      "name": "ZeroSwap",
      "type": "error"
    },
    {
      "anonymous": false,
      "inputs": [
        {
          "indexed": true,
          "internalType": "address",
          "name": "adder",
          "type": "address"
        },
        {
          "indexed": true,
          "internalType": "uint256",
          "name": "amount0",
          "type": "uint256"
        },
        {
          "indexed": true,
          "internalType": "uint256",
          "name": "amount1",
          "type": "uint256"
        }
      ],
      "name": "LiquidityAdded",
      "type": "event"
    },
    {
      "anonymous": false,
      "inputs": [
        {
          "indexed": true,
          "internalType": "address",
          "name": "remover",
          "type": "address"
        },
        {
          "indexed": true,
          "internalType": "uint256",
          "name": "amount0",
          "type": "uint256"
        },
        {
          "indexed": true,
          "internalType": "uint256",
          "name": "amount1",
          "type": "uint256"
        }
      ],
      "name": "LiquidityRemoved",
      "type": "event"
    },
    {
      "anonymous": false,
      "inputs": [
        {
          "indexed": true,
          "internalType": "address",
          "name": "swapper",
          "type": "address"
        },
        {
          "indexed": true,
          "internalType": "address",
          "name": "tokenIn",
          "type": "address"
        },
        {
          "indexed": true,
          "internalType": "uint256",
          "name": "amount",
          "type": "uint256"
        }
      ],
      "name": "Swap",
      "type": "event"
    },
    {
      "inputs": [],
      "name": "FEE",
      "outputs": [
        {
          "internalType": "uint256",
          "name": "",
          "type": "uint256"
        }
      ],
      "stateMutability": "view",
      "type": "function"
    },
    {
      "inputs": [
        {
          "internalType": "uint256",
          "name": "_amount0",
          "type": "uint256"
        },
        {
          "internalType": "uint256",
          "name": "_amount1",
          "type": "uint256"
        }
      ],
      "name": "addLiquidity",
      "outputs": [],
      "stateMutability": "nonpayable",
      "type": "function"
    },
    {
      "inputs": [
        {
          "internalType": "address",
          "name": "",
          "type": "address"
        }
      ],
      "name": "balanceOf",
      "outputs": [
        {
          "internalType": "uint256",
          "name": "",
          "type": "uint256"
        }
      ],
      "stateMutability": "view",
      "type": "function"
    },
    {
      "inputs": [
        {
          "internalType": "uint256",
          "name": "_shares",
          "type": "uint256"
        }
      ],
      "name": "removeLiquidity",
      "outputs": [],
      "stateMutability": "nonpayable",
      "type": "function"
    },
    {
      "inputs": [],
      "name": "reserve0",
      "outputs": [
        {
          "internalType": "uint256",
          "name": "",
          "type": "uint256"
        }
      ],
      "stateMutability": "view",
      "type": "function"
    },
    {
      "inputs": [],
      "name": "reserve1",
      "outputs": [
        {
          "internalType": "uint256",
          "name": "",
          "type": "uint256"
        }
      ],
      "stateMutability": "view",
      "type": "function"
    },
    {
      "inputs": [
        {
          "internalType": "address",
          "name": "_tokenIn",
          "type": "address"
        },
        {
          "internalType": "uint256",
          "name": "_amount",
          "type": "uint256"
        }
      ],
      "name": "swap",
      "outputs": [],
      "stateMutability": "nonpayable",
      "type": "function"
    },
    {
      "inputs": [],
      "name": "token0",
      "outputs": [
        {
          "internalType": "contract IERC20",
          "name": "",
          "type": "address"
        }
      ],
      "stateMutability": "view",
      "type": "function"
    },
    {
      "inputs": [],
      "name": "token1",
      "outputs": [
        {
          "internalType": "contract IERC20",
          "name": "",
          "type": "address"
        }
      ],
      "stateMutability": "view",
      "type": "function"
    },
    {
      "inputs": [],
      "name": "totalSupply",
      "outputs": [
        {
          "internalType": "uint256",
          "name": "",
          "type": "uint256"
        }
      ],
      "stateMutability": "view",
      "type": "function"
    },
    {
      "inputs": [],
      "name": "viewReserve0",
      "outputs": [
        {
          "internalType": "uint256",
          "name": "",
          "type": "uint256"
        }
      ],
      "stateMutability": "view",
      "type": "function"
    },
    {
      "inputs": [],
      "name": "viewReserve1",
      "outputs": [
        {
          "internalType": "uint256",
          "name": "",
          "type": "uint256"
        }
      ],
      "stateMutability": "view",
      "type": "function"
    },
    {
      "inputs": [],
      "name": "viewToken0",
      "outputs": [
        {
          "internalType": "address",
          "name": "",
          "type": "address"
        }
      ],
      "stateMutability": "view",
      "type": "function"
    },
    {
      "inputs": [],
      "name": "viewToken1",
      "outputs": [
        {
          "internalType": "address",
          "name": "",
          "type": "address"
        }
      ],
      "stateMutability": "view",
      "type": "function"
    }
  ],
  "bytecode": "0x60e06040523480156200001157600080fd5b506040516200190b3803806200190b83398181016040528101906200003791906200019f565b6127108111156200008157806040517f2f38c6ee0000000000000000000000000000000000000000000000000000000081526004016200007891906200020c565b60405180910390fd5b8273ffffffffffffffffffffffffffffffffffffffff1660808173ffffffffffffffffffffffffffffffffffffffff16815250508173ffffffffffffffffffffffffffffffffffffffff1660a08173ffffffffffffffffffffffffffffffffffffffff16815250508060c0818152505050505062000229565b600080fd5b600073ffffffffffffffffffffffffffffffffffffffff82169050919050565b60006200012c82620000ff565b9050919050565b6200013e816200011f565b81146200014a57600080fd5b50565b6000815190506200015e8162000133565b92915050565b6000819050919050565b620001798162000164565b81146200018557600080fd5b50565b60008151905062000199816200016e565b92915050565b600080600060608486031215620001bb57620001ba620000fa565b5b6000620001cb868287016200014d565b9350506020620001de868287016200014d565b9250506040620001f18682870162000188565b9150509250925092565b620002068162000164565b82525050565b6000602082019050620002236000830184620001fb565b92915050565b60805160a05160c05161163b620002d060003960008181610a0d01528181610b5b0152610b9501526000818161031901528181610569015281816106f40152818161083501528181610a8801528181610d4001528181610e6001526110040152600081816102a1015281816102d3015281816104c0015281816106530152818161079701528181610a3101528181610bd201528181610c9f0152610f01015261163b6000f3fe608060405234801561001057600080fd5b50600436106100ea5760003560e01c80639c8f9f231161008c578063d004f0f711610066578063d004f0f714610229578063d21220a714610245578063f0a9442014610263578063f6a0dc5214610281576100ea565b80639c8f9f23146101d35780639cd441da146101ef578063c57981b51461020b576100ea565b80634b11094d116100c85780634b11094d146101495780635a76f25e1461016757806370a0823114610185578063869aa68c146101b5576100ea565b80630dfe1681146100ef57806318160ddd1461010d578063443cb4bc1461012b575b600080fd5b6100f761029f565b60405161010491906111da565b60405180910390f35b6101156102c3565b604051610122919061120e565b60405180910390f35b6101336102c9565b604051610140919061120e565b60405180910390f35b6101516102cf565b60405161015e919061124a565b60405180910390f35b61016f6102f7565b60405161017c919061120e565b60405180910390f35b61019f600480360381019061019a9190611296565b6102fd565b6040516101ac919061120e565b60405180910390f35b6101bd610315565b6040516101ca919061124a565b60405180910390f35b6101ed60048036038101906101e891906112ef565b61033d565b005b6102096004803603810190610204919061131c565b610651565b005b610213610a0b565b604051610220919061120e565b60405180910390f35b610243600480360381019061023e919061135c565b610a2f565b005b61024d611002565b60405161025a91906111da565b60405180910390f35b61026b611026565b604051610278919061120e565b60405180910390f35b610289611030565b604051610296919061120e565b60405180910390f35b7f000000000000000000000000000000000000000000000000000000000000000081565b60025481565b60005481565b60007f0000000000000000000000000000000000000000000000000000000000000000905090565b60015481565b60036020528060005260406000206000915090505481565b60007f0000000000000000000000000000000000000000000000000000000000000000905090565b6000600360003373ffffffffffffffffffffffffffffffffffffffff1673ffffffffffffffffffffffffffffffffffffffff16815260200190815260200160002054036103b6576040517f9811e0c700000000000000000000000000000000000000000000000000000000815260040160405180910390fd5b600360003373ffffffffffffffffffffffffffffffffffffffff1673ffffffffffffffffffffffffffffffffffffffff1681526020019081526020016000205481111561043c5733816040517f09fa4c3000000000000000000000000000000000000000000000000000000000815260040161043392919061139c565b60405180910390fd5b60006002548260005461044f91906113f4565b6104599190611465565b905060006002548360015461046e91906113f4565b6104789190611465565b90506104843384611039565b816000808282546104959190611496565b9250508190555080600160008282546104ae9190611496565b92505081905550600082111561055e577f000000000000000000000000000000000000000000000000000000000000000073ffffffffffffffffffffffffffffffffffffffff1663a9059cbb33846040518363ffffffff1660e01b815260040161051992919061139c565b6020604051808303816000875af1158015610538573d6000803e3d6000fd5b505050506040513d601f19601f8201168201806040525081019061055c9190611502565b505b6000811115610607577f000000000000000000000000000000000000000000000000000000000000000073ffffffffffffffffffffffffffffffffffffffff1663a9059cbb33836040518363ffffffff1660e01b81526004016105c292919061139c565b6020604051808303816000875af11580156105e1573d6000803e3d6000fd5b505050506040513d601f19601f820116820180604052508101906106059190611502565b505b80823373ffffffffffffffffffffffffffffffffffffffff167f96cd817c6329656790ef8fba7675405193677d39619571282f5e21f3a98cd05960405160405180910390a4505050565b7f000000000000000000000000000000000000000000000000000000000000000073ffffffffffffffffffffffffffffffffffffffff166323b872dd3330856040518463ffffffff1660e01b81526004016106ae9392919061152f565b6020604051808303816000875af11580156106cd573d6000803e3d6000fd5b505050506040513d601f19601f820116820180604052508101906106f19190611502565b507f000000000000000000000000000000000000000000000000000000000000000073ffffffffffffffffffffffffffffffffffffffff166323b872dd3330846040518463ffffffff1660e01b815260040161074f9392919061152f565b6020604051808303816000875af115801561076e573d6000803e3d6000fd5b505050506040513d601f19601f820116820180604052508101906107929190611502565b5060007f000000000000000000000000000000000000000000000000000000000000000073ffffffffffffffffffffffffffffffffffffffff166370a08231306040518263ffffffff1660e01b81526004016107ee919061124a565b602060405180830381865afa15801561080b573d6000803e3d6000fd5b505050506040513d601f19601f8201168201806040525081019061082f919061157b565b905060007f000000000000000000000000000000000000000000000000000000000000000073ffffffffffffffffffffffffffffffffffffffff166370a08231306040518263ffffffff1660e01b815260040161088c919061124a565b602060405180830381865afa1580156108a9573d6000803e3d6000fd5b505050506040513d601f19601f820116820180604052508101906108cd919061157b565b905060008054836108de9190611496565b90506000600154836108f09190611496565b905060008060025411156109385760015460005461090e91906115a8565b600254838561091d91906115a8565b61092791906113f4565b6109319190611465565b9050610947565b818361094491906115a8565b90505b6000811015610982576040517f9811e0c700000000000000000000000000000000000000000000000000000000815260040160405180910390fd5b61098c33826110e8565b8660008082825461099d91906115a8565b9250508190555085600160008282546109b691906115a8565b9250508190555085873373ffffffffffffffffffffffffffffffffffffffff167fac1d76749e5447b7b16f5ab61447e1bd502f3bb4807af3b28e620d1700a6ee4560405160405180910390a450505050505050565b7f000000000000000000000000000000000000000000000000000000000000000081565b7f000000000000000000000000000000000000000000000000000000000000000073ffffffffffffffffffffffffffffffffffffffff168273ffffffffffffffffffffffffffffffffffffffff1614158015610ad757507f000000000000000000000000000000000000000000000000000000000000000073ffffffffffffffffffffffffffffffffffffffff168273ffffffffffffffffffffffffffffffffffffffff1614155b15610b1957816040517f8466f046000000000000000000000000000000000000000000000000000000008152600401610b10919061124a565b60405180910390fd5b60008103610b53576040517fde8b588000000000000000000000000000000000000000000000000000000000815260040160405180910390fd5b6000806127107f000000000000000000000000000000000000000000000000000000000000000084610b8591906113f4565b610b8f9190611465565b905060007f000000000000000000000000000000000000000000000000000000000000000003610bc157829150610bd0565b8083610bcd9190611496565b91505b7f000000000000000000000000000000000000000000000000000000000000000073ffffffffffffffffffffffffffffffffffffffff168473ffffffffffffffffffffffffffffffffffffffff1603610de457600054821115610c6c5782826040517f88a50ccc000000000000000000000000000000000000000000000000000000008152600401610c639291906115dc565b60405180910390fd5b82600080828254610c7d91906115a8565b925050819055508160016000828254610c969190611496565b925050819055507f000000000000000000000000000000000000000000000000000000000000000073ffffffffffffffffffffffffffffffffffffffff166323b872dd3330866040518463ffffffff1660e01b8152600401610cfa9392919061152f565b6020604051808303816000875af1158015610d19573d6000803e3d6000fd5b505050506040513d601f19601f82011682018060405250810190610d3d9190611502565b507f000000000000000000000000000000000000000000000000000000000000000073ffffffffffffffffffffffffffffffffffffffff166323b872dd3033856040518463ffffffff1660e01b8152600401610d9b9392919061152f565b6020604051808303816000875af1158015610dba573d6000803e3d6000fd5b505050506040513d601f19601f82011682018060405250810190610dde9190611502565b50610fa1565b600154821115610e2d5782826040517f88a50ccc000000000000000000000000000000000000000000000000000000008152600401610e249291906115dc565b60405180910390fd5b8260016000828254610e3f91906115a8565b9250508190555081600080828254610e579190611496565b925050819055507f000000000000000000000000000000000000000000000000000000000000000073ffffffffffffffffffffffffffffffffffffffff166323b872dd3330866040518463ffffffff1660e01b8152600401610ebb9392919061152f565b6020604051808303816000875af1158015610eda573d6000803e3d6000fd5b505050506040513d601f19601f82011682018060405250810190610efe9190611502565b507f000000000000000000000000000000000000000000000000000000000000000073ffffffffffffffffffffffffffffffffffffffff166323b872dd3033856040518463ffffffff1660e01b8152600401610f5c9392919061152f565b6020604051808303816000875af1158015610f7b573d6000803e3d6000fd5b505050506040513d601f19601f82011682018060405250810190610f9f9190611502565b505b828473ffffffffffffffffffffffffffffffffffffffff163373ffffffffffffffffffffffffffffffffffffffff167fea368a40e9570069bb8e6511d668293ad2e1f03b0d982431fd223de9f3b70ca660405160405180910390a450505050565b7f000000000000000000000000000000000000000000000000000000000000000081565b6000600154905090565b60008054905090565b600060025403611075576040517f15ae672700000000000000000000000000000000000000000000000000000000815260040160405180910390fd5b80600360008473ffffffffffffffffffffffffffffffffffffffff1673ffffffffffffffffffffffffffffffffffffffff16815260200190815260200160002060008282546110c49190611496565b9250508190555080600260008282546110dd9190611496565b925050819055505050565b80600360008473ffffffffffffffffffffffffffffffffffffffff1673ffffffffffffffffffffffffffffffffffffffff168152602001908152602001600020600082825461113791906115a8565b92505081905550806002600082825461115091906115a8565b925050819055505050565b600073ffffffffffffffffffffffffffffffffffffffff82169050919050565b6000819050919050565b60006111a061119b6111968461115b565b61117b565b61115b565b9050919050565b60006111b282611185565b9050919050565b60006111c4826111a7565b9050919050565b6111d4816111b9565b82525050565b60006020820190506111ef60008301846111cb565b92915050565b6000819050919050565b611208816111f5565b82525050565b600060208201905061122360008301846111ff565b92915050565b60006112348261115b565b9050919050565b61124481611229565b82525050565b600060208201905061125f600083018461123b565b92915050565b600080fd5b61127381611229565b811461127e57600080fd5b50565b6000813590506112908161126a565b92915050565b6000602082840312156112ac576112ab611265565b5b60006112ba84828501611281565b91505092915050565b6112cc816111f5565b81146112d757600080fd5b50565b6000813590506112e9816112c3565b92915050565b60006020828403121561130557611304611265565b5b6000611313848285016112da565b91505092915050565b6000806040838503121561133357611332611265565b5b6000611341858286016112da565b9250506020611352858286016112da565b9150509250929050565b6000806040838503121561137357611372611265565b5b600061138185828601611281565b9250506020611392858286016112da565b9150509250929050565b60006040820190506113b1600083018561123b565b6113be60208301846111ff565b9392505050565b7f4e487b7100000000000000000000000000000000000000000000000000000000600052601160045260246000fd5b60006113ff826111f5565b915061140a836111f5565b9250828202611418816111f5565b9150828204841483151761142f5761142e6113c5565b5b5092915050565b7f4e487b7100000000000000000000000000000000000000000000000000000000600052601260045260246000fd5b6000611470826111f5565b915061147b836111f5565b92508261148b5761148a611436565b5b828204905092915050565b60006114a1826111f5565b91506114ac836111f5565b92508282039050818111156114c4576114c36113c5565b5b92915050565b60008115159050919050565b6114df816114ca565b81146114ea57600080fd5b50565b6000815190506114fc816114d6565b92915050565b60006020828403121561151857611517611265565b5b6000611526848285016114ed565b91505092915050565b6000606082019050611544600083018661123b565b611551602083018561123b565b61155e60408301846111ff565b949350505050565b600081519050611575816112c3565b92915050565b60006020828403121561159157611590611265565b5b600061159f84828501611566565b91505092915050565b60006115b3826111f5565b91506115be836111f5565b92508282019050808211156115d6576115d56113c5565b5b92915050565b60006040820190506115f160008301856111ff565b6115fe60208301846111ff565b939250505056fea2646970667358221220bc17ef226b3aa4da10e89437dcc9707240f7c7a024afe0e80395ee640148b82a64736f6c63430008110033",
  "linkReferences": {},
  "deployedLinkReferences": {}
}