{"contracts/ConstantProductAutomatedMarketMaker.sol":{"ConstantProductAutomatedMarketMaker":{"abi":[{"anonymous":false,"inputs":[{"indexed":false,"internalType":"address","name":"previousAdmin","type":"address"},{"indexed":false,"internalType":"address","name":"newAdmin","type":"address"}],"name":"AdminChanged","type":"event"},{"anonymous":false,"inputs":[{"indexed":true,"internalType":"address","name":"beacon","type":"address"}],"name":"BeaconUpgraded","type":"event"},{"anonymous":false,"inputs":[{"indexed":false,"internalType":"uint8","name":"version","type":"uint8"}],"name":"Initialized","type":"event"},{"anonymous":false,"inputs":[{"indexed":true,"internalType":"address","name":"provider","type":"address"},{"indexed":false,"internalType":"uint256","name":"amountX","type":"uint256"},{"indexed":false,"internalType":"uint256","name":"amountY","type":"uint256"}],"name":"LiquidityAdded","type":"event"},{"anonymous":false,"inputs":[{"indexed":true,"internalType":"address","name":"provider","type":"address"},{"indexed":false,"internalType":"uint256","name":"amountX","type":"uint256"},{"indexed":false,"internalType":"uint256","name":"amountY","type":"uint256"}],"name":"LiquidityRemoved","type":"event"},{"anonymous":false,"inputs":[{"indexed":true,"internalType":"address","name":"previousOwner","type":"address"},{"indexed":true,"internalType":"address","name":"newOwner","type":"address"}],"name":"OwnershipTransferred","type":"event"},{"anonymous":false,"inputs":[{"indexed":true,"internalType":"address","name":"user","type":"address"},{"indexed":false,"internalType":"uint256","name":"amountIn","type":"uint256"},{"indexed":false,"internalType":"uint256","name":"amountOut","type":"uint256"},{"indexed":false,"internalType":"uint256","name":"fee","type":"uint256"}],"name":"TokensSwapped","type":"event"},{"anonymous":false,"inputs":[{"indexed":true,"internalType":"address","name":"to","type":"address"},{"indexed":true,"internalType":"address","name":"from","type":"address"},{"indexed":false,"internalType":"uint256","name":"amount","type":"uint256"}],"name":"Transfer","type":"event"},{"anonymous":false,"inputs":[{"indexed":true,"internalType":"address","name":"implementation","type":"address"}],"name":"Upgraded","type":"event"},{"inputs":[],"name":"FEE_MAX","outputs":[{"internalType":"uint256","name":"","type":"uint256"}],"stateMutability":"view","type":"function"},{"inputs":[{"internalType":"uint256","name":"amountX","type":"uint256"},{"internalType":"uint256","name":"amountY","type":"uint256"}],"name":"addLiquidity","outputs":[],"stateMutability":"nonpayable","type":"function"},{"inputs":[{"internalType":"address","name":"account","type":"address"}],"name":"balanceOf","outputs":[{"internalType":"uint256","name":"","type":"uint256"}],"stateMutability":"view","type":"function"},{"inputs":[],"name":"feePercent","outputs":[{"internalType":"uint256","name":"","type":"uint256"}],"stateMutability":"view","type":"function"},{"inputs":[],"name":"getReserves","outputs":[{"internalType":"uint256","name":"","type":"uint256"},{"internalType":"uint256","name":"","type":"uint256"},{"internalType":"uint256","name":"","type":"uint256"}],"stateMutability":"view","type":"function"},{"inputs":[{"internalType":"contract IERC20Upgradeable","name":"_testTokenX","type":"address"},{"internalType":"contract IERC20Upgradeable","name":"_testTokenY","type":"address"},{"internalType":"uint256","name":"_initialReserveX","type":"uint256"},{"internalType":"uint256","name":"_initialReserveY","type":"uint256"},{"internalType":"uint256","name":"_feePercent","type":"uint256"}],"name":"initialize","outputs":[],"stateMutability":"nonpayable","type":"function"},{"inputs":[],"name":"owner","outputs":[{"internalType":"address","name":"","type":"address"}],"stateMutability":"view","type":"function"},{"inputs":[],"name":"proxiableUUID","outputs":[{"internalType":"bytes32","name":"","type":"bytes32"}],"stateMutability":"view","type":"function"},{"inputs":[{"internalType":"uint256","name":"amount","type":"uint256"}],"name":"removeLiquidity","outputs":[],"stateMutability":"nonpayable","type":"function"},{"inputs":[],"name":"renounceOwnership","outputs":[],"stateMutability":"nonpayable","type":"function"},{"inputs":[],"name":"reserveX","outputs":[{"internalType":"uint256","name":"","type":"uint256"}],"stateMutability":"view","type":"function"},{"inputs":[],"name":"reserveY","outputs":[{"internalType":"uint256","name":"","type":"uint256"}],"stateMutability":"view","type":"function"},{"inputs":[{"internalType":"uint256","name":"amountIn","type":"uint256"},{"internalType":"uint256","name":"amountOutMin","type":"uint256"}],"name":"swapTokens","outputs":[],"stateMutability":"nonpayable","type":"function"},{"inputs":[],"name":"testTokenX","outputs":[{"internalType":"contract IERC20Upgradeable","name":"","type":"address"}],"stateMutability":"view","type":"function"},{"inputs":[],"name":"testTokenY","outputs":[{"internalType":"contract IERC20Upgradeable","name":"","type":"address"}],"stateMutability":"view","type":"function"},{"inputs":[],"name":"totalSupply","outputs":[{"internalType":"uint256","name":"","type":"uint256"}],"stateMutability":"view","type":"function"},{"inputs":[{"internalType":"address","name":"newOwner","type":"address"}],"name":"transferOwnership","outputs":[],"stateMutability":"nonpayable","type":"function"},{"inputs":[{"internalType":"address","name":"newImplementation","type":"address"}],"name":"upgradeTo","outputs":[],"stateMutability":"nonpayable","type":"function"},{"inputs":[{"internalType":"address","name":"newImplementation","type":"address"},{"internalType":"bytes","name":"data","type":"bytes"}],"name":"upgradeToAndCall","outputs":[],"stateMutability":"payable","type":"function"}],"evm":{"bytecode":{"linkReferences":{},"object":"60a06040523073ffffffffffffffffffffffffffffffffffffffff1660809073ffffffffffffffffffffffffffffffffffffffff1681525034801561004357600080fd5b5060805161376761007b60003960008181610455015281816104e3015281816105dd0152818161066b015261071b01526137676000f3fe6080604052600436106101145760003560e01c80637fd6f15c116100a0578063c2624e1e11610064578063c2624e1e1461035c578063c2d9c89b14610387578063d13f90b4146103b2578063f2fde38b146103db578063fadfa65b1461040457610114565b80637fd6f15c1461028b57806388ab076f146102b65780638da5cb5b146102df5780639c8f9f231461030a5780639cd441da1461033357610114565b80634f1ef286116100e75780634f1ef286146101c557806352d1902d146101e157806363a7a77c1461020c57806370a0823114610237578063715018a61461027457610114565b806308eabdda146101195780630902f1ac1461014457806318160ddd146101715780633659cfe61461019c575b600080fd5b34801561012557600080fd5b5061012e61042f565b60405161013b91906122f3565b60405180910390f35b34801561015057600080fd5b50610159610435565b6040516101689392919061230e565b60405180910390f35b34801561017d57600080fd5b5061018661044c565b60405161019391906122f3565b60405180910390f35b3480156101a857600080fd5b506101c360048036038101906101be91906123b7565b610453565b005b6101df60048036038101906101da919061252a565b6105db565b005b3480156101ed57600080fd5b506101f6610717565b604051610203919061259f565b60405180910390f35b34801561021857600080fd5b506102216107d0565b60405161022e9190612619565b60405180910390f35b34801561024357600080fd5b5061025e600480360381019061025991906123b7565b6107f6565b60405161026b91906122f3565b60405180910390f35b34801561028057600080fd5b50610289610840565b005b34801561029757600080fd5b506102a0610854565b6040516102ad91906122f3565b60405180910390f35b3480156102c257600080fd5b506102dd60048036038101906102d89190612660565b61085a565b005b3480156102eb57600080fd5b506102f4610b88565b60405161030191906126af565b60405180910390f35b34801561031657600080fd5b50610331600480360381019061032c91906126ca565b610bb2565b005b34801561033f57600080fd5b5061035a60048036038101906103559190612660565b610df3565b005b34801561036857600080fd5b50610371611144565b60405161037e91906122f3565b60405180910390f35b34801561039357600080fd5b5061039c61114a565b6040516103a99190612619565b60405180910390f35b3480156103be57600080fd5b506103d960048036038101906103d49190612735565b611170565b005b3480156103e757600080fd5b5061040260048036038101906103fd91906123b7565b6113c0565b005b34801561041057600080fd5b50610419611443565b60405161042691906122f3565b60405180910390f35b60fd5481565b600080600060fd5460fe5443925092509250909192565b6101005481565b7f000000000000000000000000000000000000000000000000000000000000000073ffffffffffffffffffffffffffffffffffffffff163073ffffffffffffffffffffffffffffffffffffffff16036104e1576040517f08c379a00000000000000000000000000000000000000000000000000000000081526004016104d890612833565b60405180910390fd5b7f000000000000000000000000000000000000000000000000000000000000000073ffffffffffffffffffffffffffffffffffffffff16610520611449565b73ffffffffffffffffffffffffffffffffffffffff1614610576576040517f08c379a000000000000000000000000000000000000000000000000000000000815260040161056d906128c5565b60405180910390fd5b61057f816114a0565b6105d881600067ffffffffffffffff81111561059e5761059d6123ff565b5b6040519080825280601f01601f1916602001820160405280156105d05781602001600182028036833780820191505090505b5060006114ab565b50565b7f000000000000000000000000000000000000000000000000000000000000000073ffffffffffffffffffffffffffffffffffffffff163073ffffffffffffffffffffffffffffffffffffffff1603610669576040517f08c379a000000000000000000000000000000000000000000000000000000000815260040161066090612833565b60405180910390fd5b7f000000000000000000000000000000000000000000000000000000000000000073ffffffffffffffffffffffffffffffffffffffff166106a8611449565b73ffffffffffffffffffffffffffffffffffffffff16146106fe576040517f08c379a00000000000000000000000000000000000000000000000000000000081526004016106f5906128c5565b60405180910390fd5b610707826114a0565b610713828260016114ab565b5050565b60007f000000000000000000000000000000000000000000000000000000000000000073ffffffffffffffffffffffffffffffffffffffff163073ffffffffffffffffffffffffffffffffffffffff16146107a7576040517f08c379a000000000000000000000000000000000000000000000000000000000815260040161079e90612957565b60405180910390fd5b7f360894a13ba1a3210667c828492db98dca3e2076cc3735a920a3ca505d382bbc60001b905090565b60fb60009054906101000a900473ffffffffffffffffffffffffffffffffffffffff1681565b600061010160008373ffffffffffffffffffffffffffffffffffffffff1673ffffffffffffffffffffffffffffffffffffffff168152602001908152602001600020549050919050565b610848611619565b6108526000611697565b565b60ff5481565b61086261175d565b6000821180156108725750600081115b6108b1576040517f08c379a00000000000000000000000000000000000000000000000000000000081526004016108a8906129c3565b60405180910390fd5b8160fb60009054906101000a900473ffffffffffffffffffffffffffffffffffffffff1673ffffffffffffffffffffffffffffffffffffffff166370a08231336040518263ffffffff1660e01b815260040161090d91906126af565b602060405180830381865afa15801561092a573d6000803e3d6000fd5b505050506040513d601f19601f8201168201806040525081019061094e91906129f8565b101561098f576040517f08c379a000000000000000000000000000000000000000000000000000000000815260040161098690612a71565b60405180910390fd5b60008061099a610435565b509150915060006109ac8584846117ac565b9050838110156109f1576040517f08c379a00000000000000000000000000000000000000000000000000000000081526004016109e890612add565b60405180910390fd5b610a4033308760fb60009054906101000a900473ffffffffffffffffffffffffffffffffffffffff1673ffffffffffffffffffffffffffffffffffffffff1661183b909392919063ffffffff16565b6000610a6b612710610a5d60ff54856118c490919063ffffffff16565b6118da90919063ffffffff16565b90506000610a8282846118f090919063ffffffff16565b9050610ad1338260fc60009054906101000a900473ffffffffffffffffffffffffffffffffffffffff1673ffffffffffffffffffffffffffffffffffffffff166119069092919063ffffffff16565b610b25610adc610b88565b8360fc60009054906101000a900473ffffffffffffffffffffffffffffffffffffffff1673ffffffffffffffffffffffffffffffffffffffff166119069092919063ffffffff16565b3373ffffffffffffffffffffffffffffffffffffffff167f5998feb874e6089317765439db6575c0ba1c29ba0084c05f3c61be5cbd74cb8c888385604051610b6f9392919061230e565b60405180910390a25050505050610b8461198c565b5050565b6000609760009054906101000a900473ffffffffffffffffffffffffffffffffffffffff16905090565b610bba61175d565b600081118015610bd2575080610bcf336107f6565b10155b610c11576040517f08c379a0000000000000000000000000000000000000000000000000000000008152600401610c0890612b49565b60405180910390fd5b6000610c3d61010054610c2f60fd54856118c490919063ffffffff16565b6118da90919063ffffffff16565b90506000610c6b61010054610c5d60fe54866118c490919063ffffffff16565b6118da90919063ffffffff16565b9050600082118015610c7d5750600081115b610cbc576040517f08c379a0000000000000000000000000000000000000000000000000000000008152600401610cb390612add565b60405180910390fd5b610cc63384611996565b610d13338360fb60009054906101000a900473ffffffffffffffffffffffffffffffffffffffff1673ffffffffffffffffffffffffffffffffffffffff166119069092919063ffffffff16565b610d60338260fc60009054906101000a900473ffffffffffffffffffffffffffffffffffffffff1673ffffffffffffffffffffffffffffffffffffffff166119069092919063ffffffff16565b610d758260fd546118f090919063ffffffff16565b60fd81905550610d908160fe546118f090919063ffffffff16565b60fe819055503373ffffffffffffffffffffffffffffffffffffffff167f96cd817c6329656790ef8fba7675405193677d39619571282f5e21f3a98cd0598383604051610dde929190612b69565b60405180910390a25050610df061198c565b50565b610dfb61175d565b600082118015610e0b5750600081115b610e4a576040517f08c379a0000000000000000000000000000000000000000000000000000000008152600401610e4190612bde565b60405180910390fd5b6000806101005403610e8257610e71610e6c83856118c490919063ffffffff16565b611b37565b9050610e7d3382611bb1565b6110e7565b600080610e8d610435565b50915091506000610ecb610eaa8684611ccf90919063ffffffff16565b610ebd85886118c490919063ffffffff16565b6118da90919063ffffffff16565b90506000610f06610ee58886611ccf90919063ffffffff16565b610ef8858a6118c490919063ffffffff16565b6118da90919063ffffffff16565b905086811115610f4b576040517f08c379a0000000000000000000000000000000000000000000000000000000008152600401610f4290612add565b60405180910390fd5b85821115610f8e576040517f08c379a0000000000000000000000000000000000000000000000000000000008152600401610f8590612add565b60405180910390fd5b61100e610fd0610fcb610faa8987611ccf90919063ffffffff16565b610fbd8b89611ccf90919063ffffffff16565b6118c490919063ffffffff16565b611b37565b61100061010054610ff2610fed87876118c490919063ffffffff16565b611b37565b6118c490919063ffffffff16565b6118da90919063ffffffff16565b945061101a3386611bb1565b61106933308960fb60009054906101000a900473ffffffffffffffffffffffffffffffffffffffff1673ffffffffffffffffffffffffffffffffffffffff1661183b909392919063ffffffff16565b6110b833308860fc60009054906101000a900473ffffffffffffffffffffffffffffffffffffffff1673ffffffffffffffffffffffffffffffffffffffff1661183b909392919063ffffffff16565b6110cb8785611ccf90919063ffffffff16565b93506110e08684611ccf90919063ffffffff16565b9250505050505b3373ffffffffffffffffffffffffffffffffffffffff167fac1d76749e5447b7b16f5ab61447e1bd502f3bb4807af3b28e620d1700a6ee45848460405161112f929190612b69565b60405180910390a25061114061198c565b5050565b61271081565b60fc60009054906101000a900473ffffffffffffffffffffffffffffffffffffffff1681565b60008060019054906101000a900460ff161590508080156111a15750600160008054906101000a900460ff1660ff16105b806111ce57506111b030611ce5565b1580156111cd5750600160008054906101000a900460ff1660ff16145b5b61120d576040517f08c379a000000000000000000000000000000000000000000000000000000000815260040161120490612c70565b60405180910390fd5b60016000806101000a81548160ff021916908360ff160217905550801561124a576001600060016101000a81548160ff0219169083151502179055505b611252611d08565b61125a611d59565b8473ffffffffffffffffffffffffffffffffffffffff168673ffffffffffffffffffffffffffffffffffffffff16036112c8576040517f08c379a00000000000000000000000000000000000000000000000000000000081526004016112bf90612cdc565b60405180910390fd5b8560fb60006101000a81548173ffffffffffffffffffffffffffffffffffffffff021916908373ffffffffffffffffffffffffffffffffffffffff1602179055508460fc60006101000a81548173ffffffffffffffffffffffffffffffffffffffff021916908373ffffffffffffffffffffffffffffffffffffffff1602179055508360fd819055508260fe819055508160ff8190555080156113b85760008060016101000a81548160ff0219169083151502179055507f7f26b83ff96e1f2b6a682f133852f6798a09c465da95921460cefb384740249860016040516113af9190612d44565b60405180910390a15b505050505050565b6113c8611619565b600073ffffffffffffffffffffffffffffffffffffffff168173ffffffffffffffffffffffffffffffffffffffff1603611437576040517f08c379a000000000000000000000000000000000000000000000000000000000815260040161142e90612dd1565b60405180910390fd5b61144081611697565b50565b60fe5481565b60006114777f360894a13ba1a3210667c828492db98dca3e2076cc3735a920a3ca505d382bbc60001b611db2565b60000160009054906101000a900473ffffffffffffffffffffffffffffffffffffffff16905090565b6114a8611619565b50565b6114d77f4910fdfa16fed3260ed0e7147f7cc6da11a60208b5b9406d12a635614ffd914360001b611dbc565b60000160009054906101000a900460ff16156114fb576114f683611dc6565b611614565b8273ffffffffffffffffffffffffffffffffffffffff166352d1902d6040518163ffffffff1660e01b8152600401602060405180830381865afa92505050801561156357506040513d601f19601f820116820180604052508101906115609190612e1d565b60015b6115a2576040517f08c379a000000000000000000000000000000000000000000000000000000000815260040161159990612ebc565b60405180910390fd5b7f360894a13ba1a3210667c828492db98dca3e2076cc3735a920a3ca505d382bbc60001b8114611607576040517f08c379a00000000000000000000000000000000000000000000000000000000081526004016115fe90612f4e565b60405180910390fd5b50611613838383611e7f565b5b505050565b611621611eab565b73ffffffffffffffffffffffffffffffffffffffff1661163f610b88565b73ffffffffffffffffffffffffffffffffffffffff1614611695576040517f08c379a000000000000000000000000000000000000000000000000000000000815260040161168c90612fba565b60405180910390fd5b565b6000609760009054906101000a900473ffffffffffffffffffffffffffffffffffffffff16905081609760006101000a81548173ffffffffffffffffffffffffffffffffffffffff021916908373ffffffffffffffffffffffffffffffffffffffff1602179055508173ffffffffffffffffffffffffffffffffffffffff168173ffffffffffffffffffffffffffffffffffffffff167f8be0079c531659141344cd1fd0a4f28419497f9722a3daafe3b4186f6b6457e060405160405180910390a35050565b600260c954036117a2576040517f08c379a000000000000000000000000000000000000000000000000000000000815260040161179990613026565b60405180910390fd5b600260c981905550565b6000806117ec6127106117de6117cf60ff546127106118f090919063ffffffff16565b886118c490919063ffffffff16565b6118da90919063ffffffff16565b9050600061180384836118c490919063ffffffff16565b9050600061181a8387611ccf90919063ffffffff16565b905061182f81836118da90919063ffffffff16565b93505050509392505050565b6118be846323b872dd60e01b85858560405160240161185c93929190613046565b604051602081830303815290604052907bffffffffffffffffffffffffffffffffffffffffffffffffffffffff19166020820180517bffffffffffffffffffffffffffffffffffffffffffffffffffffffff8381831617835250505050611eb3565b50505050565b600081836118d291906130ac565b905092915050565b600081836118e8919061311d565b905092915050565b600081836118fe919061314e565b905092915050565b6119878363a9059cbb60e01b8484604051602401611925929190613182565b604051602081830303815290604052907bffffffffffffffffffffffffffffffffffffffffffffffffffffffff19166020820180517bffffffffffffffffffffffffffffffffffffffffffffffffffffffff8381831617835250505050611eb3565b505050565b600160c981905550565b61010160008373ffffffffffffffffffffffffffffffffffffffff1673ffffffffffffffffffffffffffffffffffffffff16815260200190815260200160002054811115611a19576040517f08c379a0000000000000000000000000000000000000000000000000000000008152600401611a109061321d565b60405180910390fd5b611a2f81610100546118f090919063ffffffff16565b61010081905550611a898161010160008573ffffffffffffffffffffffffffffffffffffffff1673ffffffffffffffffffffffffffffffffffffffff168152602001908152602001600020546118f090919063ffffffff16565b61010160008473ffffffffffffffffffffffffffffffffffffffff1673ffffffffffffffffffffffffffffffffffffffff16815260200190815260200160002081905550600073ffffffffffffffffffffffffffffffffffffffff168273ffffffffffffffffffffffffffffffffffffffff167fddf252ad1be2c89b69c2b068fc378daa952ba7f163c4a11628f55a4df523b3ef83604051611b2b91906122f3565b60405180910390a35050565b60006003821115611b9e5781905060006001600284611b56919061311d565b611b60919061323d565b90505b81811015611b98578091506002818285611b7d919061311d565b611b87919061323d565b611b91919061311d565b9050611b63565b50611bac565b60008214611bab57600190505b5b919050565b611bc78161010054611ccf90919063ffffffff16565b61010081905550611c218161010160008573ffffffffffffffffffffffffffffffffffffffff1673ffffffffffffffffffffffffffffffffffffffff16815260200190815260200160002054611ccf90919063ffffffff16565b61010160008473ffffffffffffffffffffffffffffffffffffffff1673ffffffffffffffffffffffffffffffffffffffff168152602001908152602001600020819055508173ffffffffffffffffffffffffffffffffffffffff16600073ffffffffffffffffffffffffffffffffffffffff167fddf252ad1be2c89b69c2b068fc378daa952ba7f163c4a11628f55a4df523b3ef83604051611cc391906122f3565b60405180910390a35050565b60008183611cdd919061323d565b905092915050565b6000808273ffffffffffffffffffffffffffffffffffffffff163b119050919050565b600060019054906101000a900460ff16611d57576040517f08c379a0000000000000000000000000000000000000000000000000000000008152600401611d4e906132e3565b60405180910390fd5b565b600060019054906101000a900460ff16611da8576040517f08c379a0000000000000000000000000000000000000000000000000000000008152600401611d9f906132e3565b60405180910390fd5b611db0611f7a565b565b6000819050919050565b6000819050919050565b611dcf81611ce5565b611e0e576040517f08c379a0000000000000000000000000000000000000000000000000000000008152600401611e0590613375565b60405180910390fd5b80611e3b7f360894a13ba1a3210667c828492db98dca3e2076cc3735a920a3ca505d382bbc60001b611db2565b60000160006101000a81548173ffffffffffffffffffffffffffffffffffffffff021916908373ffffffffffffffffffffffffffffffffffffffff16021790555050565b611e8883611fdb565b600082511180611e955750805b15611ea657611ea4838361202a565b505b505050565b600033905090565b6000611f15826040518060400160405280602081526020017f5361666545524332303a206c6f772d6c6576656c2063616c6c206661696c65648152508573ffffffffffffffffffffffffffffffffffffffff1661210e9092919063ffffffff16565b9050600081511115611f755780806020019051810190611f3591906133cd565b611f74576040517f08c379a0000000000000000000000000000000000000000000000000000000008152600401611f6b9061346c565b60405180910390fd5b5b505050565b600060019054906101000a900460ff16611fc9576040517f08c379a0000000000000000000000000000000000000000000000000000000008152600401611fc0906132e3565b60405180910390fd5b611fd9611fd4611eab565b611697565b565b611fe481611dc6565b8073ffffffffffffffffffffffffffffffffffffffff167fbc7cd75a20ee27fd9adebab32041f755214dbc6bffa90cc0225b39da2e5c2d3b60405160405180910390a250565b606061203583611ce5565b612074576040517f08c379a000000000000000000000000000000000000000000000000000000000815260040161206b906134fe565b60405180910390fd5b6000808473ffffffffffffffffffffffffffffffffffffffff168460405161209c919061358f565b600060405180830381855af49150503d80600081146120d7576040519150601f19603f3d011682016040523d82523d6000602084013e6120dc565b606091505b5091509150612104828260405180606001604052806027815260200161370b60279139612126565b9250505092915050565b606061211d8484600085612148565b90509392505050565b6060831561213657829050612141565b6121408383612215565b5b9392505050565b60608247101561218d576040517f08c379a000000000000000000000000000000000000000000000000000000000815260040161218490613618565b60405180910390fd5b6000808673ffffffffffffffffffffffffffffffffffffffff1685876040516121b6919061358f565b60006040518083038185875af1925050503d80600081146121f3576040519150601f19603f3d011682016040523d82523d6000602084013e6121f8565b606091505b509150915061220987838387612265565b92505050949350505050565b6000825111156122285781518083602001fd5b806040517f08c379a000000000000000000000000000000000000000000000000000000000815260040161225c919061367c565b60405180910390fd5b606083156122c75760008351036122bf5761227f85611ce5565b6122be576040517f08c379a00000000000000000000000000000000000000000000000000000000081526004016122b5906136ea565b60405180910390fd5b5b8290506122d2565b6122d18383612215565b5b949350505050565b6000819050919050565b6122ed816122da565b82525050565b600060208201905061230860008301846122e4565b92915050565b600060608201905061232360008301866122e4565b61233060208301856122e4565b61233d60408301846122e4565b949350505050565b6000604051905090565b600080fd5b600080fd5b600073ffffffffffffffffffffffffffffffffffffffff82169050919050565b600061238482612359565b9050919050565b61239481612379565b811461239f57600080fd5b50565b6000813590506123b18161238b565b92915050565b6000602082840312156123cd576123cc61234f565b5b60006123db848285016123a2565b91505092915050565b600080fd5b600080fd5b6000601f19601f8301169050919050565b7f4e487b7100000000000000000000000000000000000000000000000000000000600052604160045260246000fd5b612437826123ee565b810181811067ffffffffffffffff82111715612456576124556123ff565b5b80604052505050565b6000612469612345565b9050612475828261242e565b919050565b600067ffffffffffffffff821115612495576124946123ff565b5b61249e826123ee565b9050602081019050919050565b82818337600083830152505050565b60006124cd6124c88461247a565b61245f565b9050828152602081018484840111156124e9576124e86123e9565b5b6124f48482856124ab565b509392505050565b600082601f830112612511576125106123e4565b5b81356125218482602086016124ba565b91505092915050565b600080604083850312156125415761254061234f565b5b600061254f858286016123a2565b925050602083013567ffffffffffffffff8111156125705761256f612354565b5b61257c858286016124fc565b9150509250929050565b6000819050919050565b61259981612586565b82525050565b60006020820190506125b46000830184612590565b92915050565b6000819050919050565b60006125df6125da6125d584612359565b6125ba565b612359565b9050919050565b60006125f1826125c4565b9050919050565b6000612603826125e6565b9050919050565b612613816125f8565b82525050565b600060208201905061262e600083018461260a565b92915050565b61263d816122da565b811461264857600080fd5b50565b60008135905061265a81612634565b92915050565b600080604083850312156126775761267661234f565b5b60006126858582860161264b565b92505060206126968582860161264b565b9150509250929050565b6126a981612379565b82525050565b60006020820190506126c460008301846126a0565b92915050565b6000602082840312156126e0576126df61234f565b5b60006126ee8482850161264b565b91505092915050565b600061270282612379565b9050919050565b612712816126f7565b811461271d57600080fd5b50565b60008135905061272f81612709565b92915050565b600080600080600060a086880312156127515761275061234f565b5b600061275f88828901612720565b955050602061277088828901612720565b94505060406127818882890161264b565b93505060606127928882890161264b565b92505060806127a38882890161264b565b9150509295509295909350565b600082825260208201905092915050565b7f46756e6374696f6e206d7573742062652063616c6c6564207468726f7567682060008201527f64656c656761746563616c6c0000000000000000000000000000000000000000602082015250565b600061281d602c836127b0565b9150612828826127c1565b604082019050919050565b6000602082019050818103600083015261284c81612810565b9050919050565b7f46756e6374696f6e206d7573742062652063616c6c6564207468726f7567682060008201527f6163746976652070726f78790000000000000000000000000000000000000000602082015250565b60006128af602c836127b0565b91506128ba82612853565b604082019050919050565b600060208201905081810360008301526128de816128a2565b9050919050565b7f555550535570677261646561626c653a206d757374206e6f742062652063616c60008201527f6c6564207468726f7567682064656c656761746563616c6c0000000000000000602082015250565b60006129416038836127b0565b915061294c826128e5565b604082019050919050565b6000602082019050818103600083015261297081612934565b9050919050565b7f43616e6e6f742073776170203020746f6b656e73000000000000000000000000600082015250565b60006129ad6014836127b0565b91506129b882612977565b602082019050919050565b600060208201905081810360008301526129dc816129a0565b9050919050565b6000815190506129f281612634565b92915050565b600060208284031215612a0e57612a0d61234f565b5b6000612a1c848285016129e3565b91505092915050565b7f496e73756666696369656e742062616c616e6365000000000000000000000000600082015250565b6000612a5b6014836127b0565b9150612a6682612a25565b602082019050919050565b60006020820190508181036000830152612a8a81612a4e565b9050919050565b7f536c69707061676520746f6f2068696768000000000000000000000000000000600082015250565b6000612ac76011836127b0565b9150612ad282612a91565b602082019050919050565b60006020820190508181036000830152612af681612aba565b9050919050565b7f43616e6e6f742072656d6f76652030206c697175696469747900000000000000600082015250565b6000612b336019836127b0565b9150612b3e82612afd565b602082019050919050565b60006020820190508181036000830152612b6281612b26565b9050919050565b6000604082019050612b7e60008301856122e4565b612b8b60208301846122e4565b9392505050565b7f43616e6e6f74206164642030206c697175696469747900000000000000000000600082015250565b6000612bc86016836127b0565b9150612bd382612b92565b602082019050919050565b60006020820190508181036000830152612bf781612bbb565b9050919050565b7f496e697469616c697a61626c653a20636f6e747261637420697320616c72656160008201527f647920696e697469616c697a6564000000000000000000000000000000000000602082015250565b6000612c5a602e836127b0565b9150612c6582612bfe565b604082019050919050565b60006020820190508181036000830152612c8981612c4d565b9050919050565b7f546f6b656e73206d7573742062652064697374696e6374000000000000000000600082015250565b6000612cc66017836127b0565b9150612cd182612c90565b602082019050919050565b60006020820190508181036000830152612cf581612cb9565b9050919050565b6000819050919050565b600060ff82169050919050565b6000612d2e612d29612d2484612cfc565b6125ba565b612d06565b9050919050565b612d3e81612d13565b82525050565b6000602082019050612d596000830184612d35565b92915050565b7f4f776e61626c653a206e6577206f776e657220697320746865207a65726f206160008201527f6464726573730000000000000000000000000000000000000000000000000000602082015250565b6000612dbb6026836127b0565b9150612dc682612d5f565b604082019050919050565b60006020820190508181036000830152612dea81612dae565b9050919050565b612dfa81612586565b8114612e0557600080fd5b50565b600081519050612e1781612df1565b92915050565b600060208284031215612e3357612e3261234f565b5b6000612e4184828501612e08565b91505092915050565b7f45524331393637557067726164653a206e657720696d706c656d656e7461746960008201527f6f6e206973206e6f742055555053000000000000000000000000000000000000602082015250565b6000612ea6602e836127b0565b9150612eb182612e4a565b604082019050919050565b60006020820190508181036000830152612ed581612e99565b9050919050565b7f45524331393637557067726164653a20756e737570706f727465642070726f7860008201527f6961626c65555549440000000000000000000000000000000000000000000000602082015250565b6000612f386029836127b0565b9150612f4382612edc565b604082019050919050565b60006020820190508181036000830152612f6781612f2b565b9050919050565b7f4f776e61626c653a2063616c6c6572206973206e6f7420746865206f776e6572600082015250565b6000612fa46020836127b0565b9150612faf82612f6e565b602082019050919050565b60006020820190508181036000830152612fd381612f97565b9050919050565b7f5265656e7472616e637947756172643a207265656e7472616e742063616c6c00600082015250565b6000613010601f836127b0565b915061301b82612fda565b602082019050919050565b6000602082019050818103600083015261303f81613003565b9050919050565b600060608201905061305b60008301866126a0565b61306860208301856126a0565b61307560408301846122e4565b949350505050565b7f4e487b7100000000000000000000000000000000000000000000000000000000600052601160045260246000fd5b60006130b7826122da565b91506130c2836122da565b92508282026130d0816122da565b915082820484148315176130e7576130e661307d565b5b5092915050565b7f4e487b7100000000000000000000000000000000000000000000000000000000600052601260045260246000fd5b6000613128826122da565b9150613133836122da565b925082613143576131426130ee565b5b828204905092915050565b6000613159826122da565b9150613164836122da565b925082820390508181111561317c5761317b61307d565b5b92915050565b600060408201905061319760008301856126a0565b6131a460208301846122e4565b9392505050565b7f45524332303a206275726e20616d6f756e7420657863656564732062616c616e60008201527f6365000000000000000000000000000000000000000000000000000000000000602082015250565b60006132076022836127b0565b9150613212826131ab565b604082019050919050565b60006020820190508181036000830152613236816131fa565b9050919050565b6000613248826122da565b9150613253836122da565b925082820190508082111561326b5761326a61307d565b5b92915050565b7f496e697469616c697a61626c653a20636f6e7472616374206973206e6f74206960008201527f6e697469616c697a696e67000000000000000000000000000000000000000000602082015250565b60006132cd602b836127b0565b91506132d882613271565b604082019050919050565b600060208201905081810360008301526132fc816132c0565b9050919050565b7f455243313936373a206e657720696d706c656d656e746174696f6e206973206e60008201527f6f74206120636f6e747261637400000000000000000000000000000000000000602082015250565b600061335f602d836127b0565b915061336a82613303565b604082019050919050565b6000602082019050818103600083015261338e81613352565b9050919050565b60008115159050919050565b6133aa81613395565b81146133b557600080fd5b50565b6000815190506133c7816133a1565b92915050565b6000602082840312156133e3576133e261234f565b5b60006133f1848285016133b8565b91505092915050565b7f5361666545524332303a204552433230206f7065726174696f6e20646964206e60008201527f6f74207375636365656400000000000000000000000000000000000000000000602082015250565b6000613456602a836127b0565b9150613461826133fa565b604082019050919050565b6000602082019050818103600083015261348581613449565b9050919050565b7f416464726573733a2064656c65676174652063616c6c20746f206e6f6e2d636f60008201527f6e74726163740000000000000000000000000000000000000000000000000000602082015250565b60006134e86026836127b0565b91506134f38261348c565b604082019050919050565b60006020820190508181036000830152613517816134db565b9050919050565b600081519050919050565b600081905092915050565b60005b83811015613552578082015181840152602081019050613537565b60008484015250505050565b60006135698261351e565b6135738185613529565b9350613583818560208601613534565b80840191505092915050565b600061359b828461355e565b915081905092915050565b7f416464726573733a20696e73756666696369656e742062616c616e636520666f60008201527f722063616c6c0000000000000000000000000000000000000000000000000000602082015250565b60006136026026836127b0565b915061360d826135a6565b604082019050919050565b60006020820190508181036000830152613631816135f5565b9050919050565b600081519050919050565b600061364e82613638565b61365881856127b0565b9350613668818560208601613534565b613671816123ee565b840191505092915050565b600060208201905081810360008301526136968184613643565b905092915050565b7f416464726573733a2063616c6c20746f206e6f6e2d636f6e7472616374000000600082015250565b60006136d4601d836127b0565b91506136df8261369e565b602082019050919050565b60006020820190508181036000830152613703816136c7565b905091905056fe416464726573733a206c6f772d6c6576656c2064656c65676174652063616c6c206661696c6564a26469706673582212208e9bd26ed834876329ba0c59f1104eda0e87bf08ab57afc8bdb0398d3ae0c83a64736f6c63430008110033","opcodes":"PUSH1 0xA0 PUSH1 0x40 MSTORE ADDRESS PUSH20 0xFFFFFFFFFFFFFFFFFFFFFFFFFFFFFFFFFFFFFFFF AND PUSH1 0x80 SWAP1 PUSH20 0xFFFFFFFFFFFFFFFFFFFFFFFFFFFFFFFFFFFFFFFF AND DUP2 MSTORE POP CALLVALUE DUP1 ISZERO PUSH2 0x43 JUMPI PUSH1 0x0 DUP1 REVERT JUMPDEST POP PUSH1 0x80 MLOAD PUSH2 0x3767 PUSH2 0x7B PUSH1 0x0 CODECOPY PUSH1 0x0 DUP2 DUP2 PUSH2 0x455 ADD MSTORE DUP2 DUP2 PUSH2 0x4E3 ADD MSTORE DUP2 DUP2 PUSH2 0x5DD ADD MSTORE DUP2 DUP2 PUSH2 0x66B ADD MSTORE PUSH2 0x71B ADD MSTORE PUSH2 0x3767 PUSH1 0x0 RETURN INVALID PUSH1 0x80 PUSH1 0x40 MSTORE PUSH1 0x4 CALLDATASIZE LT PUSH2 0x114 JUMPI PUSH1 0x0 CALLDATALOAD PUSH1 0xE0 SHR DUP1 PUSH4 0x7FD6F15C GT PUSH2 0xA0 JUMPI DUP1 PUSH4 0xC2624E1E GT PUSH2 0x64 JUMPI DUP1 PUSH4 0xC2624E1E EQ PUSH2 0x35C JUMPI DUP1 PUSH4 0xC2D9C89B EQ PUSH2 0x387 JUMPI DUP1 PUSH4 0xD13F90B4 EQ PUSH2 0x3B2 JUMPI DUP1 PUSH4 0xF2FDE38B EQ PUSH2 0x3DB JUMPI DUP1 PUSH4 0xFADFA65B EQ PUSH2 0x404 JUMPI PUSH2 0x114 JUMP JUMPDEST DUP1 PUSH4 0x7FD6F15C EQ PUSH2 0x28B JUMPI DUP1 PUSH4 0x88AB076F EQ PUSH2 0x2B6 JUMPI DUP1 PUSH4 0x8DA5CB5B EQ PUSH2 0x2DF JUMPI DUP1 PUSH4 0x9C8F9F23 EQ PUSH2 0x30A JUMPI DUP1 PUSH4 0x9CD441DA EQ PUSH2 0x333 JUMPI PUSH2 0x114 JUMP JUMPDEST DUP1 PUSH4 0x4F1EF286 GT PUSH2 0xE7 JUMPI DUP1 PUSH4 0x4F1EF286 EQ PUSH2 0x1C5 JUMPI DUP1 PUSH4 0x52D1902D EQ PUSH2 0x1E1 JUMPI DUP1 PUSH4 0x63A7A77C EQ PUSH2 0x20C JUMPI DUP1 PUSH4 0x70A08231 EQ PUSH2 0x237 JUMPI DUP1 PUSH4 0x715018A6 EQ PUSH2 0x274 JUMPI PUSH2 0x114 JUMP JUMPDEST DUP1 PUSH4 0x8EABDDA EQ PUSH2 0x119 JUMPI DUP1 PUSH4 0x902F1AC EQ PUSH2 0x144 JUMPI DUP1 PUSH4 0x18160DDD EQ PUSH2 0x171 JUMPI DUP1 PUSH4 0x3659CFE6 EQ PUSH2 0x19C JUMPI JUMPDEST PUSH1 0x0 DUP1 REVERT JUMPDEST CALLVALUE DUP1 ISZERO PUSH2 0x125 JUMPI PUSH1 0x0 DUP1 REVERT JUMPDEST POP PUSH2 0x12E PUSH2 0x42F JUMP JUMPDEST PUSH1 0x40 MLOAD PUSH2 0x13B SWAP2 SWAP1 PUSH2 0x22F3 JUMP JUMPDEST PUSH1 0x40 MLOAD DUP1 SWAP2 SUB SWAP1 RETURN JUMPDEST CALLVALUE DUP1 ISZERO PUSH2 0x150 JUMPI PUSH1 0x0 DUP1 REVERT JUMPDEST POP PUSH2 0x159 PUSH2 0x435 JUMP JUMPDEST PUSH1 0x40 MLOAD PUSH2 0x168 SWAP4 SWAP3 SWAP2 SWAP1 PUSH2 0x230E JUMP JUMPDEST PUSH1 0x40 MLOAD DUP1 SWAP2 SUB SWAP1 RETURN JUMPDEST CALLVALUE DUP1 ISZERO PUSH2 0x17D JUMPI PUSH1 0x0 DUP1 REVERT JUMPDEST POP PUSH2 0x186 PUSH2 0x44C JUMP JUMPDEST PUSH1 0x40 MLOAD PUSH2 0x193 SWAP2 SWAP1 PUSH2 0x22F3 JUMP JUMPDEST PUSH1 0x40 MLOAD DUP1 SWAP2 SUB SWAP1 RETURN JUMPDEST CALLVALUE DUP1 ISZERO PUSH2 0x1A8 JUMPI PUSH1 0x0 DUP1 REVERT JUMPDEST POP PUSH2 0x1C3 PUSH1 0x4 DUP1 CALLDATASIZE SUB DUP2 ADD SWAP1 PUSH2 0x1BE SWAP2 SWAP1 PUSH2 0x23B7 JUMP JUMPDEST PUSH2 0x453 JUMP JUMPDEST STOP JUMPDEST PUSH2 0x1DF PUSH1 0x4 DUP1 CALLDATASIZE SUB DUP2 ADD SWAP1 PUSH2 0x1DA SWAP2 SWAP1 PUSH2 0x252A JUMP JUMPDEST PUSH2 0x5DB JUMP JUMPDEST STOP JUMPDEST CALLVALUE DUP1 ISZERO PUSH2 0x1ED JUMPI PUSH1 0x0 DUP1 REVERT JUMPDEST POP PUSH2 0x1F6 PUSH2 0x717 JUMP JUMPDEST PUSH1 0x40 MLOAD PUSH2 0x203 SWAP2 SWAP1 PUSH2 0x259F JUMP JUMPDEST PUSH1 0x40 MLOAD DUP1 SWAP2 SUB SWAP1 RETURN JUMPDEST CALLVALUE DUP1 ISZERO PUSH2 0x218 JUMPI PUSH1 0x0 DUP1 REVERT JUMPDEST POP PUSH2 0x221 PUSH2 0x7D0 JUMP JUMPDEST PUSH1 0x40 MLOAD PUSH2 0x22E SWAP2 SWAP1 PUSH2 0x2619 JUMP JUMPDEST PUSH1 0x40 MLOAD DUP1 SWAP2 SUB SWAP1 RETURN JUMPDEST CALLVALUE DUP1 ISZERO PUSH2 0x243 JUMPI PUSH1 0x0 DUP1 REVERT JUMPDEST POP PUSH2 0x25E PUSH1 0x4 DUP1 CALLDATASIZE SUB DUP2 ADD SWAP1 PUSH2 0x259 SWAP2 SWAP1 PUSH2 0x23B7 JUMP JUMPDEST PUSH2 0x7F6 JUMP JUMPDEST PUSH1 0x40 MLOAD PUSH2 0x26B SWAP2 SWAP1 PUSH2 0x22F3 JUMP JUMPDEST PUSH1 0x40 MLOAD DUP1 SWAP2 SUB SWAP1 RETURN JUMPDEST CALLVALUE DUP1 ISZERO PUSH2 0x280 JUMPI PUSH1 0x0 DUP1 REVERT JUMPDEST POP PUSH2 0x289 PUSH2 0x840 JUMP JUMPDEST STOP JUMPDEST CALLVALUE DUP1 ISZERO PUSH2 0x297 JUMPI PUSH1 0x0 DUP1 REVERT JUMPDEST POP PUSH2 0x2A0 PUSH2 0x854 JUMP JUMPDEST PUSH1 0x40 MLOAD PUSH2 0x2AD SWAP2 SWAP1 PUSH2 0x22F3 JUMP JUMPDEST PUSH1 0x40 MLOAD DUP1 SWAP2 SUB SWAP1 RETURN JUMPDEST CALLVALUE DUP1 ISZERO PUSH2 0x2C2 JUMPI PUSH1 0x0 DUP1 REVERT JUMPDEST POP PUSH2 0x2DD PUSH1 0x4 DUP1 CALLDATASIZE SUB DUP2 ADD SWAP1 PUSH2 0x2D8 SWAP2 SWAP1 PUSH2 0x2660 JUMP JUMPDEST PUSH2 0x85A JUMP JUMPDEST STOP JUMPDEST CALLVALUE DUP1 ISZERO PUSH2 0x2EB JUMPI PUSH1 0x0 DUP1 REVERT JUMPDEST POP PUSH2 0x2F4 PUSH2 0xB88 JUMP JUMPDEST PUSH1 0x40 MLOAD PUSH2 0x301 SWAP2 SWAP1 PUSH2 0x26AF JUMP JUMPDEST PUSH1 0x40 MLOAD DUP1 SWAP2 SUB SWAP1 RETURN JUMPDEST CALLVALUE DUP1 ISZERO PUSH2 0x316 JUMPI PUSH1 0x0 DUP1 REVERT JUMPDEST POP PUSH2 0x331 PUSH1 0x4 DUP1 CALLDATASIZE SUB DUP2 ADD SWAP1 PUSH2 0x32C SWAP2 SWAP1 PUSH2 0x26CA JUMP JUMPDEST PUSH2 0xBB2 JUMP JUMPDEST STOP JUMPDEST CALLVALUE DUP1 ISZERO PUSH2 0x33F JUMPI PUSH1 0x0 DUP1 REVERT JUMPDEST POP PUSH2 0x35A PUSH1 0x4 DUP1 CALLDATASIZE SUB DUP2 ADD SWAP1 PUSH2 0x355 SWAP2 SWAP1 PUSH2 0x2660 JUMP JUMPDEST PUSH2 0xDF3 JUMP JUMPDEST STOP JUMPDEST CALLVALUE DUP1 ISZERO PUSH2 0x368 JUMPI PUSH1 0x0 DUP1 REVERT JUMPDEST POP PUSH2 0x371 PUSH2 0x1144 JUMP JUMPDEST PUSH1 0x40 MLOAD PUSH2 0x37E SWAP2 SWAP1 PUSH2 0x22F3 JUMP JUMPDEST PUSH1 0x40 MLOAD DUP1 SWAP2 SUB SWAP1 RETURN JUMPDEST CALLVALUE DUP1 ISZERO PUSH2 0x393 JUMPI PUSH1 0x0 DUP1 REVERT JUMPDEST POP PUSH2 0x39C PUSH2 0x114A JUMP JUMPDEST PUSH1 0x40 MLOAD PUSH2 0x3A9 SWAP2 SWAP1 PUSH2 0x2619 JUMP JUMPDEST PUSH1 0x40 MLOAD DUP1 SWAP2 SUB SWAP1 RETURN JUMPDEST CALLVALUE DUP1 ISZERO PUSH2 0x3BE JUMPI PUSH1 0x0 DUP1 REVERT JUMPDEST POP PUSH2 0x3D9 PUSH1 0x4 DUP1 CALLDATASIZE SUB DUP2 ADD SWAP1 PUSH2 0x3D4 SWAP2 SWAP1 PUSH2 0x2735 JUMP JUMPDEST PUSH2 0x1170 JUMP JUMPDEST STOP JUMPDEST CALLVALUE DUP1 ISZERO PUSH2 0x3E7 JUMPI PUSH1 0x0 DUP1 REVERT JUMPDEST POP PUSH2 0x402 PUSH1 0x4 DUP1 CALLDATASIZE SUB DUP2 ADD SWAP1 PUSH2 0x3FD SWAP2 SWAP1 PUSH2 0x23B7 JUMP JUMPDEST PUSH2 0x13C0 JUMP JUMPDEST STOP JUMPDEST CALLVALUE DUP1 ISZERO PUSH2 0x410 JUMPI PUSH1 0x0 DUP1 REVERT JUMPDEST POP PUSH2 0x419 PUSH2 0x1443 JUMP JUMPDEST PUSH1 0x40 MLOAD PUSH2 0x426 SWAP2 SWAP1 PUSH2 0x22F3 JUMP JUMPDEST PUSH1 0x40 MLOAD DUP1 SWAP2 SUB SWAP1 RETURN JUMPDEST PUSH1 0xFD SLOAD DUP2 JUMP JUMPDEST PUSH1 0x0 DUP1 PUSH1 0x0 PUSH1 0xFD SLOAD PUSH1 0xFE SLOAD NUMBER SWAP3 POP SWAP3 POP SWAP3 POP SWAP1 SWAP2 SWAP3 JUMP JUMPDEST PUSH2 0x100 SLOAD DUP2 JUMP JUMPDEST PUSH32 0x0 PUSH20 0xFFFFFFFFFFFFFFFFFFFFFFFFFFFFFFFFFFFFFFFF AND ADDRESS PUSH20 0xFFFFFFFFFFFFFFFFFFFFFFFFFFFFFFFFFFFFFFFF AND SUB PUSH2 0x4E1 JUMPI PUSH1 0x40 MLOAD PUSH32 0x8C379A000000000000000000000000000000000000000000000000000000000 DUP2 MSTORE PUSH1 0x4 ADD PUSH2 0x4D8 SWAP1 PUSH2 0x2833 JUMP JUMPDEST PUSH1 0x40 MLOAD DUP1 SWAP2 SUB SWAP1 REVERT JUMPDEST PUSH32 0x0 PUSH20 0xFFFFFFFFFFFFFFFFFFFFFFFFFFFFFFFFFFFFFFFF AND PUSH2 0x520 PUSH2 0x1449 JUMP JUMPDEST PUSH20 0xFFFFFFFFFFFFFFFFFFFFFFFFFFFFFFFFFFFFFFFF AND EQ PUSH2 0x576 JUMPI PUSH1 0x40 MLOAD PUSH32 0x8C379A000000000000000000000000000000000000000000000000000000000 DUP2 MSTORE PUSH1 0x4 ADD PUSH2 0x56D SWAP1 PUSH2 0x28C5 JUMP JUMPDEST PUSH1 0x40 MLOAD DUP1 SWAP2 SUB SWAP1 REVERT JUMPDEST PUSH2 0x57F DUP2 PUSH2 0x14A0 JUMP JUMPDEST PUSH2 0x5D8 DUP2 PUSH1 0x0 PUSH8 0xFFFFFFFFFFFFFFFF DUP2 GT ISZERO PUSH2 0x59E JUMPI PUSH2 0x59D PUSH2 0x23FF JUMP JUMPDEST JUMPDEST PUSH1 0x40 MLOAD SWAP1 DUP1 DUP3 MSTORE DUP1 PUSH1 0x1F ADD PUSH1 0x1F NOT AND PUSH1 0x20 ADD DUP3 ADD PUSH1 0x40 MSTORE DUP1 ISZERO PUSH2 0x5D0 JUMPI DUP2 PUSH1 0x20 ADD PUSH1 0x1 DUP3 MUL DUP1 CALLDATASIZE DUP4 CALLDATACOPY DUP1 DUP3 ADD SWAP2 POP POP SWAP1 POP JUMPDEST POP PUSH1 0x0 PUSH2 0x14AB JUMP JUMPDEST POP JUMP JUMPDEST PUSH32 0x0 PUSH20 0xFFFFFFFFFFFFFFFFFFFFFFFFFFFFFFFFFFFFFFFF AND ADDRESS PUSH20 0xFFFFFFFFFFFFFFFFFFFFFFFFFFFFFFFFFFFFFFFF AND SUB PUSH2 0x669 JUMPI PUSH1 0x40 MLOAD PUSH32 0x8C379A000000000000000000000000000000000000000000000000000000000 DUP2 MSTORE PUSH1 0x4 ADD PUSH2 0x660 SWAP1 PUSH2 0x2833 JUMP JUMPDEST PUSH1 0x40 MLOAD DUP1 SWAP2 SUB SWAP1 REVERT JUMPDEST PUSH32 0x0 PUSH20 0xFFFFFFFFFFFFFFFFFFFFFFFFFFFFFFFFFFFFFFFF AND PUSH2 0x6A8 PUSH2 0x1449 JUMP JUMPDEST PUSH20 0xFFFFFFFFFFFFFFFFFFFFFFFFFFFFFFFFFFFFFFFF AND EQ PUSH2 0x6FE JUMPI PUSH1 0x40 MLOAD PUSH32 0x8C379A000000000000000000000000000000000000000000000000000000000 DUP2 MSTORE PUSH1 0x4 ADD PUSH2 0x6F5 SWAP1 PUSH2 0x28C5 JUMP JUMPDEST PUSH1 0x40 MLOAD DUP1 SWAP2 SUB SWAP1 REVERT JUMPDEST PUSH2 0x707 DUP3 PUSH2 0x14A0 JUMP JUMPDEST PUSH2 0x713 DUP3 DUP3 PUSH1 0x1 PUSH2 0x14AB JUMP JUMPDEST POP POP JUMP JUMPDEST PUSH1 0x0 PUSH32 0x0 PUSH20 0xFFFFFFFFFFFFFFFFFFFFFFFFFFFFFFFFFFFFFFFF AND ADDRESS PUSH20 0xFFFFFFFFFFFFFFFFFFFFFFFFFFFFFFFFFFFFFFFF AND EQ PUSH2 0x7A7 JUMPI PUSH1 0x40 MLOAD PUSH32 0x8C379A000000000000000000000000000000000000000000000000000000000 DUP2 MSTORE PUSH1 0x4 ADD PUSH2 0x79E SWAP1 PUSH2 0x2957 JUMP JUMPDEST PUSH1 0x40 MLOAD DUP1 SWAP2 SUB SWAP1 REVERT JUMPDEST PUSH32 0x360894A13BA1A3210667C828492DB98DCA3E2076CC3735A920A3CA505D382BBC PUSH1 0x0 SHL SWAP1 POP SWAP1 JUMP JUMPDEST PUSH1 0xFB PUSH1 0x0 SWAP1 SLOAD SWAP1 PUSH2 0x100 EXP SWAP1 DIV PUSH20 0xFFFFFFFFFFFFFFFFFFFFFFFFFFFFFFFFFFFFFFFF AND DUP2 JUMP JUMPDEST PUSH1 0x0 PUSH2 0x101 PUSH1 0x0 DUP4 PUSH20 0xFFFFFFFFFFFFFFFFFFFFFFFFFFFFFFFFFFFFFFFF AND PUSH20 0xFFFFFFFFFFFFFFFFFFFFFFFFFFFFFFFFFFFFFFFF AND DUP2 MSTORE PUSH1 0x20 ADD SWAP1 DUP2 MSTORE PUSH1 0x20 ADD PUSH1 0x0 KECCAK256 SLOAD SWAP1 POP SWAP2 SWAP1 POP JUMP JUMPDEST PUSH2 0x848 PUSH2 0x1619 JUMP JUMPDEST PUSH2 0x852 PUSH1 0x0 PUSH2 0x1697 JUMP JUMPDEST JUMP JUMPDEST PUSH1 0xFF SLOAD DUP2 JUMP JUMPDEST PUSH2 0x862 PUSH2 0x175D JUMP JUMPDEST PUSH1 0x0 DUP3 GT DUP1 ISZERO PUSH2 0x872 JUMPI POP PUSH1 0x0 DUP2 GT JUMPDEST PUSH2 0x8B1 JUMPI PUSH1 0x40 MLOAD PUSH32 0x8C379A000000000000000000000000000000000000000000000000000000000 DUP2 MSTORE PUSH1 0x4 ADD PUSH2 0x8A8 SWAP1 PUSH2 0x29C3 JUMP JUMPDEST PUSH1 0x40 MLOAD DUP1 SWAP2 SUB SWAP1 REVERT JUMPDEST DUP2 PUSH1 0xFB PUSH1 0x0 SWAP1 SLOAD SWAP1 PUSH2 0x100 EXP SWAP1 DIV PUSH20 0xFFFFFFFFFFFFFFFFFFFFFFFFFFFFFFFFFFFFFFFF AND PUSH20 0xFFFFFFFFFFFFFFFFFFFFFFFFFFFFFFFFFFFFFFFF AND PUSH4 0x70A08231 CALLER PUSH1 0x40 MLOAD DUP3 PUSH4 0xFFFFFFFF AND PUSH1 0xE0 SHL DUP2 MSTORE PUSH1 0x4 ADD PUSH2 0x90D SWAP2 SWAP1 PUSH2 0x26AF JUMP JUMPDEST PUSH1 0x20 PUSH1 0x40 MLOAD DUP1 DUP4 SUB DUP2 DUP7 GAS STATICCALL ISZERO DUP1 ISZERO PUSH2 0x92A JUMPI RETURNDATASIZE PUSH1 0x0 DUP1 RETURNDATACOPY RETURNDATASIZE PUSH1 0x0 REVERT JUMPDEST POP POP POP POP PUSH1 0x40 MLOAD RETURNDATASIZE PUSH1 0x1F NOT PUSH1 0x1F DUP3 ADD AND DUP3 ADD DUP1 PUSH1 0x40 MSTORE POP DUP2 ADD SWAP1 PUSH2 0x94E SWAP2 SWAP1 PUSH2 0x29F8 JUMP JUMPDEST LT ISZERO PUSH2 0x98F JUMPI PUSH1 0x40 MLOAD PUSH32 0x8C379A000000000000000000000000000000000000000000000000000000000 DUP2 MSTORE PUSH1 0x4 ADD PUSH2 0x986 SWAP1 PUSH2 0x2A71 JUMP JUMPDEST PUSH1 0x40 MLOAD DUP1 SWAP2 SUB SWAP1 REVERT JUMPDEST PUSH1 0x0 DUP1 PUSH2 0x99A PUSH2 0x435 JUMP JUMPDEST POP SWAP2 POP SWAP2 POP PUSH1 0x0 PUSH2 0x9AC DUP6 DUP5 DUP5 PUSH2 0x17AC JUMP JUMPDEST SWAP1 POP DUP4 DUP2 LT ISZERO PUSH2 0x9F1 JUMPI PUSH1 0x40 MLOAD PUSH32 0x8C379A000000000000000000000000000000000000000000000000000000000 DUP2 MSTORE PUSH1 0x4 ADD PUSH2 0x9E8 SWAP1 PUSH2 0x2ADD JUMP JUMPDEST PUSH1 0x40 MLOAD DUP1 SWAP2 SUB SWAP1 REVERT JUMPDEST PUSH2 0xA40 CALLER ADDRESS DUP8 PUSH1 0xFB PUSH1 0x0 SWAP1 SLOAD SWAP1 PUSH2 0x100 EXP SWAP1 DIV PUSH20 0xFFFFFFFFFFFFFFFFFFFFFFFFFFFFFFFFFFFFFFFF AND PUSH20 0xFFFFFFFFFFFFFFFFFFFFFFFFFFFFFFFFFFFFFFFF AND PUSH2 0x183B SWAP1 SWAP4 SWAP3 SWAP2 SWAP1 PUSH4 0xFFFFFFFF AND JUMP JUMPDEST PUSH1 0x0 PUSH2 0xA6B PUSH2 0x2710 PUSH2 0xA5D PUSH1 0xFF SLOAD DUP6 PUSH2 0x18C4 SWAP1 SWAP2 SWAP1 PUSH4 0xFFFFFFFF AND JUMP JUMPDEST PUSH2 0x18DA SWAP1 SWAP2 SWAP1 PUSH4 0xFFFFFFFF AND JUMP JUMPDEST SWAP1 POP PUSH1 0x0 PUSH2 0xA82 DUP3 DUP5 PUSH2 0x18F0 SWAP1 SWAP2 SWAP1 PUSH4 0xFFFFFFFF AND JUMP JUMPDEST SWAP1 POP PUSH2 0xAD1 CALLER DUP3 PUSH1 0xFC PUSH1 0x0 SWAP1 SLOAD SWAP1 PUSH2 0x100 EXP SWAP1 DIV PUSH20 0xFFFFFFFFFFFFFFFFFFFFFFFFFFFFFFFFFFFFFFFF AND PUSH20 0xFFFFFFFFFFFFFFFFFFFFFFFFFFFFFFFFFFFFFFFF AND PUSH2 0x1906 SWAP1 SWAP3 SWAP2 SWAP1 PUSH4 0xFFFFFFFF AND JUMP JUMPDEST PUSH2 0xB25 PUSH2 0xADC PUSH2 0xB88 JUMP JUMPDEST DUP4 PUSH1 0xFC PUSH1 0x0 SWAP1 SLOAD SWAP1 PUSH2 0x100 EXP SWAP1 DIV PUSH20 0xFFFFFFFFFFFFFFFFFFFFFFFFFFFFFFFFFFFFFFFF AND PUSH20 0xFFFFFFFFFFFFFFFFFFFFFFFFFFFFFFFFFFFFFFFF AND PUSH2 0x1906 SWAP1 SWAP3 SWAP2 SWAP1 PUSH4 0xFFFFFFFF AND JUMP JUMPDEST CALLER PUSH20 0xFFFFFFFFFFFFFFFFFFFFFFFFFFFFFFFFFFFFFFFF AND PUSH32 0x5998FEB874E6089317765439DB6575C0BA1C29BA0084C05F3C61BE5CBD74CB8C DUP9 DUP4 DUP6 PUSH1 0x40 MLOAD PUSH2 0xB6F SWAP4 SWAP3 SWAP2 SWAP1 PUSH2 0x230E JUMP JUMPDEST PUSH1 0x40 MLOAD DUP1 SWAP2 SUB SWAP1 LOG2 POP POP POP POP POP PUSH2 0xB84 PUSH2 0x198C JUMP JUMPDEST POP POP JUMP JUMPDEST PUSH1 0x0 PUSH1 0x97 PUSH1 0x0 SWAP1 SLOAD SWAP1 PUSH2 0x100 EXP SWAP1 DIV PUSH20 0xFFFFFFFFFFFFFFFFFFFFFFFFFFFFFFFFFFFFFFFF AND SWAP1 POP SWAP1 JUMP JUMPDEST PUSH2 0xBBA PUSH2 0x175D JUMP JUMPDEST PUSH1 0x0 DUP2 GT DUP1 ISZERO PUSH2 0xBD2 JUMPI POP DUP1 PUSH2 0xBCF CALLER PUSH2 0x7F6 JUMP JUMPDEST LT ISZERO JUMPDEST PUSH2 0xC11 JUMPI PUSH1 0x40 MLOAD PUSH32 0x8C379A000000000000000000000000000000000000000000000000000000000 DUP2 MSTORE PUSH1 0x4 ADD PUSH2 0xC08 SWAP1 PUSH2 0x2B49 JUMP JUMPDEST PUSH1 0x40 MLOAD DUP1 SWAP2 SUB SWAP1 REVERT JUMPDEST PUSH1 0x0 PUSH2 0xC3D PUSH2 0x100 SLOAD PUSH2 0xC2F PUSH1 0xFD SLOAD DUP6 PUSH2 0x18C4 SWAP1 SWAP2 SWAP1 PUSH4 0xFFFFFFFF AND JUMP JUMPDEST PUSH2 0x18DA SWAP1 SWAP2 SWAP1 PUSH4 0xFFFFFFFF AND JUMP JUMPDEST SWAP1 POP PUSH1 0x0 PUSH2 0xC6B PUSH2 0x100 SLOAD PUSH2 0xC5D PUSH1 0xFE SLOAD DUP7 PUSH2 0x18C4 SWAP1 SWAP2 SWAP1 PUSH4 0xFFFFFFFF AND JUMP JUMPDEST PUSH2 0x18DA SWAP1 SWAP2 SWAP1 PUSH4 0xFFFFFFFF AND JUMP JUMPDEST SWAP1 POP PUSH1 0x0 DUP3 GT DUP1 ISZERO PUSH2 0xC7D JUMPI POP PUSH1 0x0 DUP2 GT JUMPDEST PUSH2 0xCBC JUMPI PUSH1 0x40 MLOAD PUSH32 0x8C379A000000000000000000000000000000000000000000000000000000000 DUP2 MSTORE PUSH1 0x4 ADD PUSH2 0xCB3 SWAP1 PUSH2 0x2ADD JUMP JUMPDEST PUSH1 0x40 MLOAD DUP1 SWAP2 SUB SWAP1 REVERT JUMPDEST PUSH2 0xCC6 CALLER DUP5 PUSH2 0x1996 JUMP JUMPDEST PUSH2 0xD13 CALLER DUP4 PUSH1 0xFB PUSH1 0x0 SWAP1 SLOAD SWAP1 PUSH2 0x100 EXP SWAP1 DIV PUSH20 0xFFFFFFFFFFFFFFFFFFFFFFFFFFFFFFFFFFFFFFFF AND PUSH20 0xFFFFFFFFFFFFFFFFFFFFFFFFFFFFFFFFFFFFFFFF AND PUSH2 0x1906 SWAP1 SWAP3 SWAP2 SWAP1 PUSH4 0xFFFFFFFF AND JUMP JUMPDEST PUSH2 0xD60 CALLER DUP3 PUSH1 0xFC PUSH1 0x0 SWAP1 SLOAD SWAP1 PUSH2 0x100 EXP SWAP1 DIV PUSH20 0xFFFFFFFFFFFFFFFFFFFFFFFFFFFFFFFFFFFFFFFF AND PUSH20 0xFFFFFFFFFFFFFFFFFFFFFFFFFFFFFFFFFFFFFFFF AND PUSH2 0x1906 SWAP1 SWAP3 SWAP2 SWAP1 PUSH4 0xFFFFFFFF AND JUMP JUMPDEST PUSH2 0xD75 DUP3 PUSH1 0xFD SLOAD PUSH2 0x18F0 SWAP1 SWAP2 SWAP1 PUSH4 0xFFFFFFFF AND JUMP JUMPDEST PUSH1 0xFD DUP2 SWAP1 SSTORE POP PUSH2 0xD90 DUP2 PUSH1 0xFE SLOAD PUSH2 0x18F0 SWAP1 SWAP2 SWAP1 PUSH4 0xFFFFFFFF AND JUMP JUMPDEST PUSH1 0xFE DUP2 SWAP1 SSTORE POP CALLER PUSH20 0xFFFFFFFFFFFFFFFFFFFFFFFFFFFFFFFFFFFFFFFF AND PUSH32 0x96CD817C6329656790EF8FBA7675405193677D39619571282F5E21F3A98CD059 DUP4 DUP4 PUSH1 0x40 MLOAD PUSH2 0xDDE SWAP3 SWAP2 SWAP1 PUSH2 0x2B69 JUMP JUMPDEST PUSH1 0x40 MLOAD DUP1 SWAP2 SUB SWAP1 LOG2 POP POP PUSH2 0xDF0 PUSH2 0x198C JUMP JUMPDEST POP JUMP JUMPDEST PUSH2 0xDFB PUSH2 0x175D JUMP JUMPDEST PUSH1 0x0 DUP3 GT DUP1 ISZERO PUSH2 0xE0B JUMPI POP PUSH1 0x0 DUP2 GT JUMPDEST PUSH2 0xE4A JUMPI PUSH1 0x40 MLOAD PUSH32 0x8C379A000000000000000000000000000000000000000000000000000000000 DUP2 MSTORE PUSH1 0x4 ADD PUSH2 0xE41 SWAP1 PUSH2 0x2BDE JUMP JUMPDEST PUSH1 0x40 MLOAD DUP1 SWAP2 SUB SWAP1 REVERT JUMPDEST PUSH1 0x0 DUP1 PUSH2 0x100 SLOAD SUB PUSH2 0xE82 JUMPI PUSH2 0xE71 PUSH2 0xE6C DUP4 DUP6 PUSH2 0x18C4 SWAP1 SWAP2 SWAP1 PUSH4 0xFFFFFFFF AND JUMP JUMPDEST PUSH2 0x1B37 JUMP JUMPDEST SWAP1 POP PUSH2 0xE7D CALLER DUP3 PUSH2 0x1BB1 JUMP JUMPDEST PUSH2 0x10E7 JUMP JUMPDEST PUSH1 0x0 DUP1 PUSH2 0xE8D PUSH2 0x435 JUMP JUMPDEST POP SWAP2 POP SWAP2 POP PUSH1 0x0 PUSH2 0xECB PUSH2 0xEAA DUP7 DUP5 PUSH2 0x1CCF SWAP1 SWAP2 SWAP1 PUSH4 0xFFFFFFFF AND JUMP JUMPDEST PUSH2 0xEBD DUP6 DUP9 PUSH2 0x18C4 SWAP1 SWAP2 SWAP1 PUSH4 0xFFFFFFFF AND JUMP JUMPDEST PUSH2 0x18DA SWAP1 SWAP2 SWAP1 PUSH4 0xFFFFFFFF AND JUMP JUMPDEST SWAP1 POP PUSH1 0x0 PUSH2 0xF06 PUSH2 0xEE5 DUP9 DUP7 PUSH2 0x1CCF SWAP1 SWAP2 SWAP1 PUSH4 0xFFFFFFFF AND JUMP JUMPDEST PUSH2 0xEF8 DUP6 DUP11 PUSH2 0x18C4 SWAP1 SWAP2 SWAP1 PUSH4 0xFFFFFFFF AND JUMP JUMPDEST PUSH2 0x18DA SWAP1 SWAP2 SWAP1 PUSH4 0xFFFFFFFF AND JUMP JUMPDEST SWAP1 POP DUP7 DUP2 GT ISZERO PUSH2 0xF4B JUMPI PUSH1 0x40 MLOAD PUSH32 0x8C379A000000000000000000000000000000000000000000000000000000000 DUP2 MSTORE PUSH1 0x4 ADD PUSH2 0xF42 SWAP1 PUSH2 0x2ADD JUMP JUMPDEST PUSH1 0x40 MLOAD DUP1 SWAP2 SUB SWAP1 REVERT JUMPDEST DUP6 DUP3 GT ISZERO PUSH2 0xF8E JUMPI PUSH1 0x40 MLOAD PUSH32 0x8C379A000000000000000000000000000000000000000000000000000000000 DUP2 MSTORE PUSH1 0x4 ADD PUSH2 0xF85 SWAP1 PUSH2 0x2ADD JUMP JUMPDEST PUSH1 0x40 MLOAD DUP1 SWAP2 SUB SWAP1 REVERT JUMPDEST PUSH2 0x100E PUSH2 0xFD0 PUSH2 0xFCB PUSH2 0xFAA DUP10 DUP8 PUSH2 0x1CCF SWAP1 SWAP2 SWAP1 PUSH4 0xFFFFFFFF AND JUMP JUMPDEST PUSH2 0xFBD DUP12 DUP10 PUSH2 0x1CCF SWAP1 SWAP2 SWAP1 PUSH4 0xFFFFFFFF AND JUMP JUMPDEST PUSH2 0x18C4 SWAP1 SWAP2 SWAP1 PUSH4 0xFFFFFFFF AND JUMP JUMPDEST PUSH2 0x1B37 JUMP JUMPDEST PUSH2 0x1000 PUSH2 0x100 SLOAD PUSH2 0xFF2 PUSH2 0xFED DUP8 DUP8 PUSH2 0x18C4 SWAP1 SWAP2 SWAP1 PUSH4 0xFFFFFFFF AND JUMP JUMPDEST PUSH2 0x1B37 JUMP JUMPDEST PUSH2 0x18C4 SWAP1 SWAP2 SWAP1 PUSH4 0xFFFFFFFF AND JUMP JUMPDEST PUSH2 0x18DA SWAP1 SWAP2 SWAP1 PUSH4 0xFFFFFFFF AND JUMP JUMPDEST SWAP5 POP PUSH2 0x101A CALLER DUP7 PUSH2 0x1BB1 JUMP JUMPDEST PUSH2 0x1069 CALLER ADDRESS DUP10 PUSH1 0xFB PUSH1 0x0 SWAP1 SLOAD SWAP1 PUSH2 0x100 EXP SWAP1 DIV PUSH20 0xFFFFFFFFFFFFFFFFFFFFFFFFFFFFFFFFFFFFFFFF AND PUSH20 0xFFFFFFFFFFFFFFFFFFFFFFFFFFFFFFFFFFFFFFFF AND PUSH2 0x183B SWAP1 SWAP4 SWAP3 SWAP2 SWAP1 PUSH4 0xFFFFFFFF AND JUMP JUMPDEST PUSH2 0x10B8 CALLER ADDRESS DUP9 PUSH1 0xFC PUSH1 0x0 SWAP1 SLOAD SWAP1 PUSH2 0x100 EXP SWAP1 DIV PUSH20 0xFFFFFFFFFFFFFFFFFFFFFFFFFFFFFFFFFFFFFFFF AND PUSH20 0xFFFFFFFFFFFFFFFFFFFFFFFFFFFFFFFFFFFFFFFF AND PUSH2 0x183B SWAP1 SWAP4 SWAP3 SWAP2 SWAP1 PUSH4 0xFFFFFFFF AND JUMP JUMPDEST PUSH2 0x10CB DUP8 DUP6 PUSH2 0x1CCF SWAP1 SWAP2 SWAP1 PUSH4 0xFFFFFFFF AND JUMP JUMPDEST SWAP4 POP PUSH2 0x10E0 DUP7 DUP5 PUSH2 0x1CCF SWAP1 SWAP2 SWAP1 PUSH4 0xFFFFFFFF AND JUMP JUMPDEST SWAP3 POP POP POP POP POP JUMPDEST CALLER PUSH20 0xFFFFFFFFFFFFFFFFFFFFFFFFFFFFFFFFFFFFFFFF AND PUSH32 0xAC1D76749E5447B7B16F5AB61447E1BD502F3BB4807AF3B28E620D1700A6EE45 DUP5 DUP5 PUSH1 0x40 MLOAD PUSH2 0x112F SWAP3 SWAP2 SWAP1 PUSH2 0x2B69 JUMP JUMPDEST PUSH1 0x40 MLOAD DUP1 SWAP2 SUB SWAP1 LOG2 POP PUSH2 0x1140 PUSH2 0x198C JUMP JUMPDEST POP POP JUMP JUMPDEST PUSH2 0x2710 DUP2 JUMP JUMPDEST PUSH1 0xFC PUSH1 0x0 SWAP1 SLOAD SWAP1 PUSH2 0x100 EXP SWAP1 DIV PUSH20 0xFFFFFFFFFFFFFFFFFFFFFFFFFFFFFFFFFFFFFFFF AND DUP2 JUMP JUMPDEST PUSH1 0x0 DUP1 PUSH1 0x1 SWAP1 SLOAD SWAP1 PUSH2 0x100 EXP SWAP1 DIV PUSH1 0xFF AND ISZERO SWAP1 POP DUP1 DUP1 ISZERO PUSH2 0x11A1 JUMPI POP PUSH1 0x1 PUSH1 0x0 DUP1 SLOAD SWAP1 PUSH2 0x100 EXP SWAP1 DIV PUSH1 0xFF AND PUSH1 0xFF AND LT JUMPDEST DUP1 PUSH2 0x11CE JUMPI POP PUSH2 0x11B0 ADDRESS PUSH2 0x1CE5 JUMP JUMPDEST ISZERO DUP1 ISZERO PUSH2 0x11CD JUMPI POP PUSH1 0x1 PUSH1 0x0 DUP1 SLOAD SWAP1 PUSH2 0x100 EXP SWAP1 DIV PUSH1 0xFF AND PUSH1 0xFF AND EQ JUMPDEST JUMPDEST PUSH2 0x120D JUMPI PUSH1 0x40 MLOAD PUSH32 0x8C379A000000000000000000000000000000000000000000000000000000000 DUP2 MSTORE PUSH1 0x4 ADD PUSH2 0x1204 SWAP1 PUSH2 0x2C70 JUMP JUMPDEST PUSH1 0x40 MLOAD DUP1 SWAP2 SUB SWAP1 REVERT JUMPDEST PUSH1 0x1 PUSH1 0x0 DUP1 PUSH2 0x100 EXP DUP2 SLOAD DUP2 PUSH1 0xFF MUL NOT AND SWAP1 DUP4 PUSH1 0xFF AND MUL OR SWAP1 SSTORE POP DUP1 ISZERO PUSH2 0x124A JUMPI PUSH1 0x1 PUSH1 0x0 PUSH1 0x1 PUSH2 0x100 EXP DUP2 SLOAD DUP2 PUSH1 0xFF MUL NOT AND SWAP1 DUP4 ISZERO ISZERO MUL OR SWAP1 SSTORE POP JUMPDEST PUSH2 0x1252 PUSH2 0x1D08 JUMP JUMPDEST PUSH2 0x125A PUSH2 0x1D59 JUMP JUMPDEST DUP5 PUSH20 0xFFFFFFFFFFFFFFFFFFFFFFFFFFFFFFFFFFFFFFFF AND DUP7 PUSH20 0xFFFFFFFFFFFFFFFFFFFFFFFFFFFFFFFFFFFFFFFF AND SUB PUSH2 0x12C8 JUMPI PUSH1 0x40 MLOAD PUSH32 0x8C379A000000000000000000000000000000000000000000000000000000000 DUP2 MSTORE PUSH1 0x4 ADD PUSH2 0x12BF SWAP1 PUSH2 0x2CDC JUMP JUMPDEST PUSH1 0x40 MLOAD DUP1 SWAP2 SUB SWAP1 REVERT JUMPDEST DUP6 PUSH1 0xFB PUSH1 0x0 PUSH2 0x100 EXP DUP2 SLOAD DUP2 PUSH20 0xFFFFFFFFFFFFFFFFFFFFFFFFFFFFFFFFFFFFFFFF MUL NOT AND SWAP1 DUP4 PUSH20 0xFFFFFFFFFFFFFFFFFFFFFFFFFFFFFFFFFFFFFFFF AND MUL OR SWAP1 SSTORE POP DUP5 PUSH1 0xFC PUSH1 0x0 PUSH2 0x100 EXP DUP2 SLOAD DUP2 PUSH20 0xFFFFFFFFFFFFFFFFFFFFFFFFFFFFFFFFFFFFFFFF MUL NOT AND SWAP1 DUP4 PUSH20 0xFFFFFFFFFFFFFFFFFFFFFFFFFFFFFFFFFFFFFFFF AND MUL OR SWAP1 SSTORE POP DUP4 PUSH1 0xFD DUP2 SWAP1 SSTORE POP DUP3 PUSH1 0xFE DUP2 SWAP1 SSTORE POP DUP2 PUSH1 0xFF DUP2 SWAP1 SSTORE POP DUP1 ISZERO PUSH2 0x13B8 JUMPI PUSH1 0x0 DUP1 PUSH1 0x1 PUSH2 0x100 EXP DUP2 SLOAD DUP2 PUSH1 0xFF MUL NOT AND SWAP1 DUP4 ISZERO ISZERO MUL OR SWAP1 SSTORE POP PUSH32 0x7F26B83FF96E1F2B6A682F133852F6798A09C465DA95921460CEFB3847402498 PUSH1 0x1 PUSH1 0x40 MLOAD PUSH2 0x13AF SWAP2 SWAP1 PUSH2 0x2D44 JUMP JUMPDEST PUSH1 0x40 MLOAD DUP1 SWAP2 SUB SWAP1 LOG1 JUMPDEST POP POP POP POP POP POP JUMP JUMPDEST PUSH2 0x13C8 PUSH2 0x1619 JUMP JUMPDEST PUSH1 0x0 PUSH20 0xFFFFFFFFFFFFFFFFFFFFFFFFFFFFFFFFFFFFFFFF AND DUP2 PUSH20 0xFFFFFFFFFFFFFFFFFFFFFFFFFFFFFFFFFFFFFFFF AND SUB PUSH2 0x1437 JUMPI PUSH1 0x40 MLOAD PUSH32 0x8C379A000000000000000000000000000000000000000000000000000000000 DUP2 MSTORE PUSH1 0x4 ADD PUSH2 0x142E SWAP1 PUSH2 0x2DD1 JUMP JUMPDEST PUSH1 0x40 MLOAD DUP1 SWAP2 SUB SWAP1 REVERT JUMPDEST PUSH2 0x1440 DUP2 PUSH2 0x1697 JUMP JUMPDEST POP JUMP JUMPDEST PUSH1 0xFE SLOAD DUP2 JUMP JUMPDEST PUSH1 0x0 PUSH2 0x1477 PUSH32 0x360894A13BA1A3210667C828492DB98DCA3E2076CC3735A920A3CA505D382BBC PUSH1 0x0 SHL PUSH2 0x1DB2 JUMP JUMPDEST PUSH1 0x0 ADD PUSH1 0x0 SWAP1 SLOAD SWAP1 PUSH2 0x100 EXP SWAP1 DIV PUSH20 0xFFFFFFFFFFFFFFFFFFFFFFFFFFFFFFFFFFFFFFFF AND SWAP1 POP SWAP1 JUMP JUMPDEST PUSH2 0x14A8 PUSH2 0x1619 JUMP JUMPDEST POP JUMP JUMPDEST PUSH2 0x14D7 PUSH32 0x4910FDFA16FED3260ED0E7147F7CC6DA11A60208B5B9406D12A635614FFD9143 PUSH1 0x0 SHL PUSH2 0x1DBC JUMP JUMPDEST PUSH1 0x0 ADD PUSH1 0x0 SWAP1 SLOAD SWAP1 PUSH2 0x100 EXP SWAP1 DIV PUSH1 0xFF AND ISZERO PUSH2 0x14FB JUMPI PUSH2 0x14F6 DUP4 PUSH2 0x1DC6 JUMP JUMPDEST PUSH2 0x1614 JUMP JUMPDEST DUP3 PUSH20 0xFFFFFFFFFFFFFFFFFFFFFFFFFFFFFFFFFFFFFFFF AND PUSH4 0x52D1902D PUSH1 0x40 MLOAD DUP2 PUSH4 0xFFFFFFFF AND PUSH1 0xE0 SHL DUP2 MSTORE PUSH1 0x4 ADD PUSH1 0x20 PUSH1 0x40 MLOAD DUP1 DUP4 SUB DUP2 DUP7 GAS STATICCALL SWAP3 POP POP POP DUP1 ISZERO PUSH2 0x1563 JUMPI POP PUSH1 0x40 MLOAD RETURNDATASIZE PUSH1 0x1F NOT PUSH1 0x1F DUP3 ADD AND DUP3 ADD DUP1 PUSH1 0x40 MSTORE POP DUP2 ADD SWAP1 PUSH2 0x1560 SWAP2 SWAP1 PUSH2 0x2E1D JUMP JUMPDEST PUSH1 0x1 JUMPDEST PUSH2 0x15A2 JUMPI PUSH1 0x40 MLOAD PUSH32 0x8C379A000000000000000000000000000000000000000000000000000000000 DUP2 MSTORE PUSH1 0x4 ADD PUSH2 0x1599 SWAP1 PUSH2 0x2EBC JUMP JUMPDEST PUSH1 0x40 MLOAD DUP1 SWAP2 SUB SWAP1 REVERT JUMPDEST PUSH32 0x360894A13BA1A3210667C828492DB98DCA3E2076CC3735A920A3CA505D382BBC PUSH1 0x0 SHL DUP2 EQ PUSH2 0x1607 JUMPI PUSH1 0x40 MLOAD PUSH32 0x8C379A000000000000000000000000000000000000000000000000000000000 DUP2 MSTORE PUSH1 0x4 ADD PUSH2 0x15FE SWAP1 PUSH2 0x2F4E JUMP JUMPDEST PUSH1 0x40 MLOAD DUP1 SWAP2 SUB SWAP1 REVERT JUMPDEST POP PUSH2 0x1613 DUP4 DUP4 DUP4 PUSH2 0x1E7F JUMP JUMPDEST JUMPDEST POP POP POP JUMP JUMPDEST PUSH2 0x1621 PUSH2 0x1EAB JUMP JUMPDEST PUSH20 0xFFFFFFFFFFFFFFFFFFFFFFFFFFFFFFFFFFFFFFFF AND PUSH2 0x163F PUSH2 0xB88 JUMP JUMPDEST PUSH20 0xFFFFFFFFFFFFFFFFFFFFFFFFFFFFFFFFFFFFFFFF AND EQ PUSH2 0x1695 JUMPI PUSH1 0x40 MLOAD PUSH32 0x8C379A000000000000000000000000000000000000000000000000000000000 DUP2 MSTORE PUSH1 0x4 ADD PUSH2 0x168C SWAP1 PUSH2 0x2FBA JUMP JUMPDEST PUSH1 0x40 MLOAD DUP1 SWAP2 SUB SWAP1 REVERT JUMPDEST JUMP JUMPDEST PUSH1 0x0 PUSH1 0x97 PUSH1 0x0 SWAP1 SLOAD SWAP1 PUSH2 0x100 EXP SWAP1 DIV PUSH20 0xFFFFFFFFFFFFFFFFFFFFFFFFFFFFFFFFFFFFFFFF AND SWAP1 POP DUP2 PUSH1 0x97 PUSH1 0x0 PUSH2 0x100 EXP DUP2 SLOAD DUP2 PUSH20 0xFFFFFFFFFFFFFFFFFFFFFFFFFFFFFFFFFFFFFFFF MUL NOT AND SWAP1 DUP4 PUSH20 0xFFFFFFFFFFFFFFFFFFFFFFFFFFFFFFFFFFFFFFFF AND MUL OR SWAP1 SSTORE POP DUP2 PUSH20 0xFFFFFFFFFFFFFFFFFFFFFFFFFFFFFFFFFFFFFFFF AND DUP2 PUSH20 0xFFFFFFFFFFFFFFFFFFFFFFFFFFFFFFFFFFFFFFFF AND PUSH32 0x8BE0079C531659141344CD1FD0A4F28419497F9722A3DAAFE3B4186F6B6457E0 PUSH1 0x40 MLOAD PUSH1 0x40 MLOAD DUP1 SWAP2 SUB SWAP1 LOG3 POP POP JUMP JUMPDEST PUSH1 0x2 PUSH1 0xC9 SLOAD SUB PUSH2 0x17A2 JUMPI PUSH1 0x40 MLOAD PUSH32 0x8C379A000000000000000000000000000000000000000000000000000000000 DUP2 MSTORE PUSH1 0x4 ADD PUSH2 0x1799 SWAP1 PUSH2 0x3026 JUMP JUMPDEST PUSH1 0x40 MLOAD DUP1 SWAP2 SUB SWAP1 REVERT JUMPDEST PUSH1 0x2 PUSH1 0xC9 DUP2 SWAP1 SSTORE POP JUMP JUMPDEST PUSH1 0x0 DUP1 PUSH2 0x17EC PUSH2 0x2710 PUSH2 0x17DE PUSH2 0x17CF PUSH1 0xFF SLOAD PUSH2 0x2710 PUSH2 0x18F0 SWAP1 SWAP2 SWAP1 PUSH4 0xFFFFFFFF AND JUMP JUMPDEST DUP9 PUSH2 0x18C4 SWAP1 SWAP2 SWAP1 PUSH4 0xFFFFFFFF AND JUMP JUMPDEST PUSH2 0x18DA SWAP1 SWAP2 SWAP1 PUSH4 0xFFFFFFFF AND JUMP JUMPDEST SWAP1 POP PUSH1 0x0 PUSH2 0x1803 DUP5 DUP4 PUSH2 0x18C4 SWAP1 SWAP2 SWAP1 PUSH4 0xFFFFFFFF AND JUMP JUMPDEST SWAP1 POP PUSH1 0x0 PUSH2 0x181A DUP4 DUP8 PUSH2 0x1CCF SWAP1 SWAP2 SWAP1 PUSH4 0xFFFFFFFF AND JUMP JUMPDEST SWAP1 POP PUSH2 0x182F DUP2 DUP4 PUSH2 0x18DA SWAP1 SWAP2 SWAP1 PUSH4 0xFFFFFFFF AND JUMP JUMPDEST SWAP4 POP POP POP POP SWAP4 SWAP3 POP POP POP JUMP JUMPDEST PUSH2 0x18BE DUP5 PUSH4 0x23B872DD PUSH1 0xE0 SHL DUP6 DUP6 DUP6 PUSH1 0x40 MLOAD PUSH1 0x24 ADD PUSH2 0x185C SWAP4 SWAP3 SWAP2 SWAP1 PUSH2 0x3046 JUMP JUMPDEST PUSH1 0x40 MLOAD PUSH1 0x20 DUP2 DUP4 SUB SUB DUP2 MSTORE SWAP1 PUSH1 0x40 MSTORE SWAP1 PUSH28 0xFFFFFFFFFFFFFFFFFFFFFFFFFFFFFFFFFFFFFFFFFFFFFFFFFFFFFFFF NOT AND PUSH1 0x20 DUP3 ADD DUP1 MLOAD PUSH28 0xFFFFFFFFFFFFFFFFFFFFFFFFFFFFFFFFFFFFFFFFFFFFFFFFFFFFFFFF DUP4 DUP2 DUP4 AND OR DUP4 MSTORE POP POP POP POP PUSH2 0x1EB3 JUMP JUMPDEST POP POP POP POP JUMP JUMPDEST PUSH1 0x0 DUP2 DUP4 PUSH2 0x18D2 SWAP2 SWAP1 PUSH2 0x30AC JUMP JUMPDEST SWAP1 POP SWAP3 SWAP2 POP POP JUMP JUMPDEST PUSH1 0x0 DUP2 DUP4 PUSH2 0x18E8 SWAP2 SWAP1 PUSH2 0x311D JUMP JUMPDEST SWAP1 POP SWAP3 SWAP2 POP POP JUMP JUMPDEST PUSH1 0x0 DUP2 DUP4 PUSH2 0x18FE SWAP2 SWAP1 PUSH2 0x314E JUMP JUMPDEST SWAP1 POP SWAP3 SWAP2 POP POP JUMP JUMPDEST PUSH2 0x1987 DUP4 PUSH4 0xA9059CBB PUSH1 0xE0 SHL DUP5 DUP5 PUSH1 0x40 MLOAD PUSH1 0x24 ADD PUSH2 0x1925 SWAP3 SWAP2 SWAP1 PUSH2 0x3182 JUMP JUMPDEST PUSH1 0x40 MLOAD PUSH1 0x20 DUP2 DUP4 SUB SUB DUP2 MSTORE SWAP1 PUSH1 0x40 MSTORE SWAP1 PUSH28 0xFFFFFFFFFFFFFFFFFFFFFFFFFFFFFFFFFFFFFFFFFFFFFFFFFFFFFFFF NOT AND PUSH1 0x20 DUP3 ADD DUP1 MLOAD PUSH28 0xFFFFFFFFFFFFFFFFFFFFFFFFFFFFFFFFFFFFFFFFFFFFFFFFFFFFFFFF DUP4 DUP2 DUP4 AND OR DUP4 MSTORE POP POP POP POP PUSH2 0x1EB3 JUMP JUMPDEST POP POP POP JUMP JUMPDEST PUSH1 0x1 PUSH1 0xC9 DUP2 SWAP1 SSTORE POP JUMP JUMPDEST PUSH2 0x101 PUSH1 0x0 DUP4 PUSH20 0xFFFFFFFFFFFFFFFFFFFFFFFFFFFFFFFFFFFFFFFF AND PUSH20 0xFFFFFFFFFFFFFFFFFFFFFFFFFFFFFFFFFFFFFFFF AND DUP2 MSTORE PUSH1 0x20 ADD SWAP1 DUP2 MSTORE PUSH1 0x20 ADD PUSH1 0x0 KECCAK256 SLOAD DUP2 GT ISZERO PUSH2 0x1A19 JUMPI PUSH1 0x40 MLOAD PUSH32 0x8C379A000000000000000000000000000000000000000000000000000000000 DUP2 MSTORE PUSH1 0x4 ADD PUSH2 0x1A10 SWAP1 PUSH2 0x321D JUMP JUMPDEST PUSH1 0x40 MLOAD DUP1 SWAP2 SUB SWAP1 REVERT JUMPDEST PUSH2 0x1A2F DUP2 PUSH2 0x100 SLOAD PUSH2 0x18F0 SWAP1 SWAP2 SWAP1 PUSH4 0xFFFFFFFF AND JUMP JUMPDEST PUSH2 0x100 DUP2 SWAP1 SSTORE POP PUSH2 0x1A89 DUP2 PUSH2 0x101 PUSH1 0x0 DUP6 PUSH20 0xFFFFFFFFFFFFFFFFFFFFFFFFFFFFFFFFFFFFFFFF AND PUSH20 0xFFFFFFFFFFFFFFFFFFFFFFFFFFFFFFFFFFFFFFFF AND DUP2 MSTORE PUSH1 0x20 ADD SWAP1 DUP2 MSTORE PUSH1 0x20 ADD PUSH1 0x0 KECCAK256 SLOAD PUSH2 0x18F0 SWAP1 SWAP2 SWAP1 PUSH4 0xFFFFFFFF AND JUMP JUMPDEST PUSH2 0x101 PUSH1 0x0 DUP5 PUSH20 0xFFFFFFFFFFFFFFFFFFFFFFFFFFFFFFFFFFFFFFFF AND PUSH20 0xFFFFFFFFFFFFFFFFFFFFFFFFFFFFFFFFFFFFFFFF AND DUP2 MSTORE PUSH1 0x20 ADD SWAP1 DUP2 MSTORE PUSH1 0x20 ADD PUSH1 0x0 KECCAK256 DUP2 SWAP1 SSTORE POP PUSH1 0x0 PUSH20 0xFFFFFFFFFFFFFFFFFFFFFFFFFFFFFFFFFFFFFFFF AND DUP3 PUSH20 0xFFFFFFFFFFFFFFFFFFFFFFFFFFFFFFFFFFFFFFFF AND PUSH32 0xDDF252AD1BE2C89B69C2B068FC378DAA952BA7F163C4A11628F55A4DF523B3EF DUP4 PUSH1 0x40 MLOAD PUSH2 0x1B2B SWAP2 SWAP1 PUSH2 0x22F3 JUMP JUMPDEST PUSH1 0x40 MLOAD DUP1 SWAP2 SUB SWAP1 LOG3 POP POP JUMP JUMPDEST PUSH1 0x0 PUSH1 0x3 DUP3 GT ISZERO PUSH2 0x1B9E JUMPI DUP2 SWAP1 POP PUSH1 0x0 PUSH1 0x1 PUSH1 0x2 DUP5 PUSH2 0x1B56 SWAP2 SWAP1 PUSH2 0x311D JUMP JUMPDEST PUSH2 0x1B60 SWAP2 SWAP1 PUSH2 0x323D JUMP JUMPDEST SWAP1 POP JUMPDEST DUP2 DUP2 LT ISZERO PUSH2 0x1B98 JUMPI DUP1 SWAP2 POP PUSH1 0x2 DUP2 DUP3 DUP6 PUSH2 0x1B7D SWAP2 SWAP1 PUSH2 0x311D JUMP JUMPDEST PUSH2 0x1B87 SWAP2 SWAP1 PUSH2 0x323D JUMP JUMPDEST PUSH2 0x1B91 SWAP2 SWAP1 PUSH2 0x311D JUMP JUMPDEST SWAP1 POP PUSH2 0x1B63 JUMP JUMPDEST POP PUSH2 0x1BAC JUMP JUMPDEST PUSH1 0x0 DUP3 EQ PUSH2 0x1BAB JUMPI PUSH1 0x1 SWAP1 POP JUMPDEST JUMPDEST SWAP2 SWAP1 POP JUMP JUMPDEST PUSH2 0x1BC7 DUP2 PUSH2 0x100 SLOAD PUSH2 0x1CCF SWAP1 SWAP2 SWAP1 PUSH4 0xFFFFFFFF AND JUMP JUMPDEST PUSH2 0x100 DUP2 SWAP1 SSTORE POP PUSH2 0x1C21 DUP2 PUSH2 0x101 PUSH1 0x0 DUP6 PUSH20 0xFFFFFFFFFFFFFFFFFFFFFFFFFFFFFFFFFFFFFFFF AND PUSH20 0xFFFFFFFFFFFFFFFFFFFFFFFFFFFFFFFFFFFFFFFF AND DUP2 MSTORE PUSH1 0x20 ADD SWAP1 DUP2 MSTORE PUSH1 0x20 ADD PUSH1 0x0 KECCAK256 SLOAD PUSH2 0x1CCF SWAP1 SWAP2 SWAP1 PUSH4 0xFFFFFFFF AND JUMP JUMPDEST PUSH2 0x101 PUSH1 0x0 DUP5 PUSH20 0xFFFFFFFFFFFFFFFFFFFFFFFFFFFFFFFFFFFFFFFF AND PUSH20 0xFFFFFFFFFFFFFFFFFFFFFFFFFFFFFFFFFFFFFFFF AND DUP2 MSTORE PUSH1 0x20 ADD SWAP1 DUP2 MSTORE PUSH1 0x20 ADD PUSH1 0x0 KECCAK256 DUP2 SWAP1 SSTORE POP DUP2 PUSH20 0xFFFFFFFFFFFFFFFFFFFFFFFFFFFFFFFFFFFFFFFF AND PUSH1 0x0 PUSH20 0xFFFFFFFFFFFFFFFFFFFFFFFFFFFFFFFFFFFFFFFF AND PUSH32 0xDDF252AD1BE2C89B69C2B068FC378DAA952BA7F163C4A11628F55A4DF523B3EF DUP4 PUSH1 0x40 MLOAD PUSH2 0x1CC3 SWAP2 SWAP1 PUSH2 0x22F3 JUMP JUMPDEST PUSH1 0x40 MLOAD DUP1 SWAP2 SUB SWAP1 LOG3 POP POP JUMP JUMPDEST PUSH1 0x0 DUP2 DUP4 PUSH2 0x1CDD SWAP2 SWAP1 PUSH2 0x323D JUMP JUMPDEST SWAP1 POP SWAP3 SWAP2 POP POP JUMP JUMPDEST PUSH1 0x0 DUP1 DUP3 PUSH20 0xFFFFFFFFFFFFFFFFFFFFFFFFFFFFFFFFFFFFFFFF AND EXTCODESIZE GT SWAP1 POP SWAP2 SWAP1 POP JUMP JUMPDEST PUSH1 0x0 PUSH1 0x1 SWAP1 SLOAD SWAP1 PUSH2 0x100 EXP SWAP1 DIV PUSH1 0xFF AND PUSH2 0x1D57 JUMPI PUSH1 0x40 MLOAD PUSH32 0x8C379A000000000000000000000000000000000000000000000000000000000 DUP2 MSTORE PUSH1 0x4 ADD PUSH2 0x1D4E SWAP1 PUSH2 0x32E3 JUMP JUMPDEST PUSH1 0x40 MLOAD DUP1 SWAP2 SUB SWAP1 REVERT JUMPDEST JUMP JUMPDEST PUSH1 0x0 PUSH1 0x1 SWAP1 SLOAD SWAP1 PUSH2 0x100 EXP SWAP1 DIV PUSH1 0xFF AND PUSH2 0x1DA8 JUMPI PUSH1 0x40 MLOAD PUSH32 0x8C379A000000000000000000000000000000000000000000000000000000000 DUP2 MSTORE PUSH1 0x4 ADD PUSH2 0x1D9F SWAP1 PUSH2 0x32E3 JUMP JUMPDEST PUSH1 0x40 MLOAD DUP1 SWAP2 SUB SWAP1 REVERT JUMPDEST PUSH2 0x1DB0 PUSH2 0x1F7A JUMP JUMPDEST JUMP JUMPDEST PUSH1 0x0 DUP2 SWAP1 POP SWAP2 SWAP1 POP JUMP JUMPDEST PUSH1 0x0 DUP2 SWAP1 POP SWAP2 SWAP1 POP JUMP JUMPDEST PUSH2 0x1DCF DUP2 PUSH2 0x1CE5 JUMP JUMPDEST PUSH2 0x1E0E JUMPI PUSH1 0x40 MLOAD PUSH32 0x8C379A000000000000000000000000000000000000000000000000000000000 DUP2 MSTORE PUSH1 0x4 ADD PUSH2 0x1E05 SWAP1 PUSH2 0x3375 JUMP JUMPDEST PUSH1 0x40 MLOAD DUP1 SWAP2 SUB SWAP1 REVERT JUMPDEST DUP1 PUSH2 0x1E3B PUSH32 0x360894A13BA1A3210667C828492DB98DCA3E2076CC3735A920A3CA505D382BBC PUSH1 0x0 SHL PUSH2 0x1DB2 JUMP JUMPDEST PUSH1 0x0 ADD PUSH1 0x0 PUSH2 0x100 EXP DUP2 SLOAD DUP2 PUSH20 0xFFFFFFFFFFFFFFFFFFFFFFFFFFFFFFFFFFFFFFFF MUL NOT AND SWAP1 DUP4 PUSH20 0xFFFFFFFFFFFFFFFFFFFFFFFFFFFFFFFFFFFFFFFF AND MUL OR SWAP1 SSTORE POP POP JUMP JUMPDEST PUSH2 0x1E88 DUP4 PUSH2 0x1FDB JUMP JUMPDEST PUSH1 0x0 DUP3 MLOAD GT DUP1 PUSH2 0x1E95 JUMPI POP DUP1 JUMPDEST ISZERO PUSH2 0x1EA6 JUMPI PUSH2 0x1EA4 DUP4 DUP4 PUSH2 0x202A JUMP JUMPDEST POP JUMPDEST POP POP POP JUMP JUMPDEST PUSH1 0x0 CALLER SWAP1 POP SWAP1 JUMP JUMPDEST PUSH1 0x0 PUSH2 0x1F15 DUP3 PUSH1 0x40 MLOAD DUP1 PUSH1 0x40 ADD PUSH1 0x40 MSTORE DUP1 PUSH1 0x20 DUP2 MSTORE PUSH1 0x20 ADD PUSH32 0x5361666545524332303A206C6F772D6C6576656C2063616C6C206661696C6564 DUP2 MSTORE POP DUP6 PUSH20 0xFFFFFFFFFFFFFFFFFFFFFFFFFFFFFFFFFFFFFFFF AND PUSH2 0x210E SWAP1 SWAP3 SWAP2 SWAP1 PUSH4 0xFFFFFFFF AND JUMP JUMPDEST SWAP1 POP PUSH1 0x0 DUP2 MLOAD GT ISZERO PUSH2 0x1F75 JUMPI DUP1 DUP1 PUSH1 0x20 ADD SWAP1 MLOAD DUP2 ADD SWAP1 PUSH2 0x1F35 SWAP2 SWAP1 PUSH2 0x33CD JUMP JUMPDEST PUSH2 0x1F74 JUMPI PUSH1 0x40 MLOAD PUSH32 0x8C379A000000000000000000000000000000000000000000000000000000000 DUP2 MSTORE PUSH1 0x4 ADD PUSH2 0x1F6B SWAP1 PUSH2 0x346C JUMP JUMPDEST PUSH1 0x40 MLOAD DUP1 SWAP2 SUB SWAP1 REVERT JUMPDEST JUMPDEST POP POP POP JUMP JUMPDEST PUSH1 0x0 PUSH1 0x1 SWAP1 SLOAD SWAP1 PUSH2 0x100 EXP SWAP1 DIV PUSH1 0xFF AND PUSH2 0x1FC9 JUMPI PUSH1 0x40 MLOAD PUSH32 0x8C379A000000000000000000000000000000000000000000000000000000000 DUP2 MSTORE PUSH1 0x4 ADD PUSH2 0x1FC0 SWAP1 PUSH2 0x32E3 JUMP JUMPDEST PUSH1 0x40 MLOAD DUP1 SWAP2 SUB SWAP1 REVERT JUMPDEST PUSH2 0x1FD9 PUSH2 0x1FD4 PUSH2 0x1EAB JUMP JUMPDEST PUSH2 0x1697 JUMP JUMPDEST JUMP JUMPDEST PUSH2 0x1FE4 DUP2 PUSH2 0x1DC6 JUMP JUMPDEST DUP1 PUSH20 0xFFFFFFFFFFFFFFFFFFFFFFFFFFFFFFFFFFFFFFFF AND PUSH32 0xBC7CD75A20EE27FD9ADEBAB32041F755214DBC6BFFA90CC0225B39DA2E5C2D3B PUSH1 0x40 MLOAD PUSH1 0x40 MLOAD DUP1 SWAP2 SUB SWAP1 LOG2 POP JUMP JUMPDEST PUSH1 0x60 PUSH2 0x2035 DUP4 PUSH2 0x1CE5 JUMP JUMPDEST PUSH2 0x2074 JUMPI PUSH1 0x40 MLOAD PUSH32 0x8C379A000000000000000000000000000000000000000000000000000000000 DUP2 MSTORE PUSH1 0x4 ADD PUSH2 0x206B SWAP1 PUSH2 0x34FE JUMP JUMPDEST PUSH1 0x40 MLOAD DUP1 SWAP2 SUB SWAP1 REVERT JUMPDEST PUSH1 0x0 DUP1 DUP5 PUSH20 0xFFFFFFFFFFFFFFFFFFFFFFFFFFFFFFFFFFFFFFFF AND DUP5 PUSH1 0x40 MLOAD PUSH2 0x209C SWAP2 SWAP1 PUSH2 0x358F JUMP JUMPDEST PUSH1 0x0 PUSH1 0x40 MLOAD DUP1 DUP4 SUB DUP2 DUP6 GAS DELEGATECALL SWAP2 POP POP RETURNDATASIZE DUP1 PUSH1 0x0 DUP2 EQ PUSH2 0x20D7 JUMPI PUSH1 0x40 MLOAD SWAP2 POP PUSH1 0x1F NOT PUSH1 0x3F RETURNDATASIZE ADD AND DUP3 ADD PUSH1 0x40 MSTORE RETURNDATASIZE DUP3 MSTORE RETURNDATASIZE PUSH1 0x0 PUSH1 0x20 DUP5 ADD RETURNDATACOPY PUSH2 0x20DC JUMP JUMPDEST PUSH1 0x60 SWAP2 POP JUMPDEST POP SWAP2 POP SWAP2 POP PUSH2 0x2104 DUP3 DUP3 PUSH1 0x40 MLOAD DUP1 PUSH1 0x60 ADD PUSH1 0x40 MSTORE DUP1 PUSH1 0x27 DUP2 MSTORE PUSH1 0x20 ADD PUSH2 0x370B PUSH1 0x27 SWAP2 CODECOPY PUSH2 0x2126 JUMP JUMPDEST SWAP3 POP POP POP SWAP3 SWAP2 POP POP JUMP JUMPDEST PUSH1 0x60 PUSH2 0x211D DUP5 DUP5 PUSH1 0x0 DUP6 PUSH2 0x2148 JUMP JUMPDEST SWAP1 POP SWAP4 SWAP3 POP POP POP JUMP JUMPDEST PUSH1 0x60 DUP4 ISZERO PUSH2 0x2136 JUMPI DUP3 SWAP1 POP PUSH2 0x2141 JUMP JUMPDEST PUSH2 0x2140 DUP4 DUP4 PUSH2 0x2215 JUMP JUMPDEST JUMPDEST SWAP4 SWAP3 POP POP POP JUMP JUMPDEST PUSH1 0x60 DUP3 SELFBALANCE LT ISZERO PUSH2 0x218D JUMPI PUSH1 0x40 MLOAD PUSH32 0x8C379A000000000000000000000000000000000000000000000000000000000 DUP2 MSTORE PUSH1 0x4 ADD PUSH2 0x2184 SWAP1 PUSH2 0x3618 JUMP JUMPDEST PUSH1 0x40 MLOAD DUP1 SWAP2 SUB SWAP1 REVERT JUMPDEST PUSH1 0x0 DUP1 DUP7 PUSH20 0xFFFFFFFFFFFFFFFFFFFFFFFFFFFFFFFFFFFFFFFF AND DUP6 DUP8 PUSH1 0x40 MLOAD PUSH2 0x21B6 SWAP2 SWAP1 PUSH2 0x358F JUMP JUMPDEST PUSH1 0x0 PUSH1 0x40 MLOAD DUP1 DUP4 SUB DUP2 DUP6 DUP8 GAS CALL SWAP3 POP POP POP RETURNDATASIZE DUP1 PUSH1 0x0 DUP2 EQ PUSH2 0x21F3 JUMPI PUSH1 0x40 MLOAD SWAP2 POP PUSH1 0x1F NOT PUSH1 0x3F RETURNDATASIZE ADD AND DUP3 ADD PUSH1 0x40 MSTORE RETURNDATASIZE DUP3 MSTORE RETURNDATASIZE PUSH1 0x0 PUSH1 0x20 DUP5 ADD RETURNDATACOPY PUSH2 0x21F8 JUMP JUMPDEST PUSH1 0x60 SWAP2 POP JUMPDEST POP SWAP2 POP SWAP2 POP PUSH2 0x2209 DUP8 DUP4 DUP4 DUP8 PUSH2 0x2265 JUMP JUMPDEST SWAP3 POP POP POP SWAP5 SWAP4 POP POP POP POP JUMP JUMPDEST PUSH1 0x0 DUP3 MLOAD GT ISZERO PUSH2 0x2228 JUMPI DUP2 MLOAD DUP1 DUP4 PUSH1 0x20 ADD REVERT JUMPDEST DUP1 PUSH1 0x40 MLOAD PUSH32 0x8C379A000000000000000000000000000000000000000000000000000000000 DUP2 MSTORE PUSH1 0x4 ADD PUSH2 0x225C SWAP2 SWAP1 PUSH2 0x367C JUMP JUMPDEST PUSH1 0x40 MLOAD DUP1 SWAP2 SUB SWAP1 REVERT JUMPDEST PUSH1 0x60 DUP4 ISZERO PUSH2 0x22C7 JUMPI PUSH1 0x0 DUP4 MLOAD SUB PUSH2 0x22BF JUMPI PUSH2 0x227F DUP6 PUSH2 0x1CE5 JUMP JUMPDEST PUSH2 0x22BE JUMPI PUSH1 0x40 MLOAD PUSH32 0x8C379A000000000000000000000000000000000000000000000000000000000 DUP2 MSTORE PUSH1 0x4 ADD PUSH2 0x22B5 SWAP1 PUSH2 0x36EA JUMP JUMPDEST PUSH1 0x40 MLOAD DUP1 SWAP2 SUB SWAP1 REVERT JUMPDEST JUMPDEST DUP3 SWAP1 POP PUSH2 0x22D2 JUMP JUMPDEST PUSH2 0x22D1 DUP4 DUP4 PUSH2 0x2215 JUMP JUMPDEST JUMPDEST SWAP5 SWAP4 POP POP POP POP JUMP JUMPDEST PUSH1 0x0 DUP2 SWAP1 POP SWAP2 SWAP1 POP JUMP JUMPDEST PUSH2 0x22ED DUP2 PUSH2 0x22DA JUMP JUMPDEST DUP3 MSTORE POP POP JUMP JUMPDEST PUSH1 0x0 PUSH1 0x20 DUP3 ADD SWAP1 POP PUSH2 0x2308 PUSH1 0x0 DUP4 ADD DUP5 PUSH2 0x22E4 JUMP JUMPDEST SWAP3 SWAP2 POP POP JUMP JUMPDEST PUSH1 0x0 PUSH1 0x60 DUP3 ADD SWAP1 POP PUSH2 0x2323 PUSH1 0x0 DUP4 ADD DUP7 PUSH2 0x22E4 JUMP JUMPDEST PUSH2 0x2330 PUSH1 0x20 DUP4 ADD DUP6 PUSH2 0x22E4 JUMP JUMPDEST PUSH2 0x233D PUSH1 0x40 DUP4 ADD DUP5 PUSH2 0x22E4 JUMP JUMPDEST SWAP5 SWAP4 POP POP POP POP JUMP JUMPDEST PUSH1 0x0 PUSH1 0x40 MLOAD SWAP1 POP SWAP1 JUMP JUMPDEST PUSH1 0x0 DUP1 REVERT JUMPDEST PUSH1 0x0 DUP1 REVERT JUMPDEST PUSH1 0x0 PUSH20 0xFFFFFFFFFFFFFFFFFFFFFFFFFFFFFFFFFFFFFFFF DUP3 AND SWAP1 POP SWAP2 SWAP1 POP JUMP JUMPDEST PUSH1 0x0 PUSH2 0x2384 DUP3 PUSH2 0x2359 JUMP JUMPDEST SWAP1 POP SWAP2 SWAP1 POP JUMP JUMPDEST PUSH2 0x2394 DUP2 PUSH2 0x2379 JUMP JUMPDEST DUP2 EQ PUSH2 0x239F JUMPI PUSH1 0x0 DUP1 REVERT JUMPDEST POP JUMP JUMPDEST PUSH1 0x0 DUP2 CALLDATALOAD SWAP1 POP PUSH2 0x23B1 DUP2 PUSH2 0x238B JUMP JUMPDEST SWAP3 SWAP2 POP POP JUMP JUMPDEST PUSH1 0x0 PUSH1 0x20 DUP3 DUP5 SUB SLT ISZERO PUSH2 0x23CD JUMPI PUSH2 0x23CC PUSH2 0x234F JUMP JUMPDEST JUMPDEST PUSH1 0x0 PUSH2 0x23DB DUP5 DUP3 DUP6 ADD PUSH2 0x23A2 JUMP JUMPDEST SWAP2 POP POP SWAP3 SWAP2 POP POP JUMP JUMPDEST PUSH1 0x0 DUP1 REVERT JUMPDEST PUSH1 0x0 DUP1 REVERT JUMPDEST PUSH1 0x0 PUSH1 0x1F NOT PUSH1 0x1F DUP4 ADD AND SWAP1 POP SWAP2 SWAP1 POP JUMP JUMPDEST PUSH32 0x4E487B7100000000000000000000000000000000000000000000000000000000 PUSH1 0x0 MSTORE PUSH1 0x41 PUSH1 0x4 MSTORE PUSH1 0x24 PUSH1 0x0 REVERT JUMPDEST PUSH2 0x2437 DUP3 PUSH2 0x23EE JUMP JUMPDEST DUP2 ADD DUP2 DUP2 LT PUSH8 0xFFFFFFFFFFFFFFFF DUP3 GT OR ISZERO PUSH2 0x2456 JUMPI PUSH2 0x2455 PUSH2 0x23FF JUMP JUMPDEST JUMPDEST DUP1 PUSH1 0x40 MSTORE POP POP POP JUMP JUMPDEST PUSH1 0x0 PUSH2 0x2469 PUSH2 0x2345 JUMP JUMPDEST SWAP1 POP PUSH2 0x2475 DUP3 DUP3 PUSH2 0x242E JUMP JUMPDEST SWAP2 SWAP1 POP JUMP JUMPDEST PUSH1 0x0 PUSH8 0xFFFFFFFFFFFFFFFF DUP3 GT ISZERO PUSH2 0x2495 JUMPI PUSH2 0x2494 PUSH2 0x23FF JUMP JUMPDEST JUMPDEST PUSH2 0x249E DUP3 PUSH2 0x23EE JUMP JUMPDEST SWAP1 POP PUSH1 0x20 DUP2 ADD SWAP1 POP SWAP2 SWAP1 POP JUMP JUMPDEST DUP3 DUP2 DUP4 CALLDATACOPY PUSH1 0x0 DUP4 DUP4 ADD MSTORE POP POP POP JUMP JUMPDEST PUSH1 0x0 PUSH2 0x24CD PUSH2 0x24C8 DUP5 PUSH2 0x247A JUMP JUMPDEST PUSH2 0x245F JUMP JUMPDEST SWAP1 POP DUP3 DUP2 MSTORE PUSH1 0x20 DUP2 ADD DUP5 DUP5 DUP5 ADD GT ISZERO PUSH2 0x24E9 JUMPI PUSH2 0x24E8 PUSH2 0x23E9 JUMP JUMPDEST JUMPDEST PUSH2 0x24F4 DUP5 DUP3 DUP6 PUSH2 0x24AB JUMP JUMPDEST POP SWAP4 SWAP3 POP POP POP JUMP JUMPDEST PUSH1 0x0 DUP3 PUSH1 0x1F DUP4 ADD SLT PUSH2 0x2511 JUMPI PUSH2 0x2510 PUSH2 0x23E4 JUMP JUMPDEST JUMPDEST DUP2 CALLDATALOAD PUSH2 0x2521 DUP5 DUP3 PUSH1 0x20 DUP7 ADD PUSH2 0x24BA JUMP JUMPDEST SWAP2 POP POP SWAP3 SWAP2 POP POP JUMP JUMPDEST PUSH1 0x0 DUP1 PUSH1 0x40 DUP4 DUP6 SUB SLT ISZERO PUSH2 0x2541 JUMPI PUSH2 0x2540 PUSH2 0x234F JUMP JUMPDEST JUMPDEST PUSH1 0x0 PUSH2 0x254F DUP6 DUP3 DUP7 ADD PUSH2 0x23A2 JUMP JUMPDEST SWAP3 POP POP PUSH1 0x20 DUP4 ADD CALLDATALOAD PUSH8 0xFFFFFFFFFFFFFFFF DUP2 GT ISZERO PUSH2 0x2570 JUMPI PUSH2 0x256F PUSH2 0x2354 JUMP JUMPDEST JUMPDEST PUSH2 0x257C DUP6 DUP3 DUP7 ADD PUSH2 0x24FC JUMP JUMPDEST SWAP2 POP POP SWAP3 POP SWAP3 SWAP1 POP JUMP JUMPDEST PUSH1 0x0 DUP2 SWAP1 POP SWAP2 SWAP1 POP JUMP JUMPDEST PUSH2 0x2599 DUP2 PUSH2 0x2586 JUMP JUMPDEST DUP3 MSTORE POP POP JUMP JUMPDEST PUSH1 0x0 PUSH1 0x20 DUP3 ADD SWAP1 POP PUSH2 0x25B4 PUSH1 0x0 DUP4 ADD DUP5 PUSH2 0x2590 JUMP JUMPDEST SWAP3 SWAP2 POP POP JUMP JUMPDEST PUSH1 0x0 DUP2 SWAP1 POP SWAP2 SWAP1 POP JUMP JUMPDEST PUSH1 0x0 PUSH2 0x25DF PUSH2 0x25DA PUSH2 0x25D5 DUP5 PUSH2 0x2359 JUMP JUMPDEST PUSH2 0x25BA JUMP JUMPDEST PUSH2 0x2359 JUMP JUMPDEST SWAP1 POP SWAP2 SWAP1 POP JUMP JUMPDEST PUSH1 0x0 PUSH2 0x25F1 DUP3 PUSH2 0x25C4 JUMP JUMPDEST SWAP1 POP SWAP2 SWAP1 POP JUMP JUMPDEST PUSH1 0x0 PUSH2 0x2603 DUP3 PUSH2 0x25E6 JUMP JUMPDEST SWAP1 POP SWAP2 SWAP1 POP JUMP JUMPDEST PUSH2 0x2613 DUP2 PUSH2 0x25F8 JUMP JUMPDEST DUP3 MSTORE POP POP JUMP JUMPDEST PUSH1 0x0 PUSH1 0x20 DUP3 ADD SWAP1 POP PUSH2 0x262E PUSH1 0x0 DUP4 ADD DUP5 PUSH2 0x260A JUMP JUMPDEST SWAP3 SWAP2 POP POP JUMP JUMPDEST PUSH2 0x263D DUP2 PUSH2 0x22DA JUMP JUMPDEST DUP2 EQ PUSH2 0x2648 JUMPI PUSH1 0x0 DUP1 REVERT JUMPDEST POP JUMP JUMPDEST PUSH1 0x0 DUP2 CALLDATALOAD SWAP1 POP PUSH2 0x265A DUP2 PUSH2 0x2634 JUMP JUMPDEST SWAP3 SWAP2 POP POP JUMP JUMPDEST PUSH1 0x0 DUP1 PUSH1 0x40 DUP4 DUP6 SUB SLT ISZERO PUSH2 0x2677 JUMPI PUSH2 0x2676 PUSH2 0x234F JUMP JUMPDEST JUMPDEST PUSH1 0x0 PUSH2 0x2685 DUP6 DUP3 DUP7 ADD PUSH2 0x264B JUMP JUMPDEST SWAP3 POP POP PUSH1 0x20 PUSH2 0x2696 DUP6 DUP3 DUP7 ADD PUSH2 0x264B JUMP JUMPDEST SWAP2 POP POP SWAP3 POP SWAP3 SWAP1 POP JUMP JUMPDEST PUSH2 0x26A9 DUP2 PUSH2 0x2379 JUMP JUMPDEST DUP3 MSTORE POP POP JUMP JUMPDEST PUSH1 0x0 PUSH1 0x20 DUP3 ADD SWAP1 POP PUSH2 0x26C4 PUSH1 0x0 DUP4 ADD DUP5 PUSH2 0x26A0 JUMP JUMPDEST SWAP3 SWAP2 POP POP JUMP JUMPDEST PUSH1 0x0 PUSH1 0x20 DUP3 DUP5 SUB SLT ISZERO PUSH2 0x26E0 JUMPI PUSH2 0x26DF PUSH2 0x234F JUMP JUMPDEST JUMPDEST PUSH1 0x0 PUSH2 0x26EE DUP5 DUP3 DUP6 ADD PUSH2 0x264B JUMP JUMPDEST SWAP2 POP POP SWAP3 SWAP2 POP POP JUMP JUMPDEST PUSH1 0x0 PUSH2 0x2702 DUP3 PUSH2 0x2379 JUMP JUMPDEST SWAP1 POP SWAP2 SWAP1 POP JUMP JUMPDEST PUSH2 0x2712 DUP2 PUSH2 0x26F7 JUMP JUMPDEST DUP2 EQ PUSH2 0x271D JUMPI PUSH1 0x0 DUP1 REVERT JUMPDEST POP JUMP JUMPDEST PUSH1 0x0 DUP2 CALLDATALOAD SWAP1 POP PUSH2 0x272F DUP2 PUSH2 0x2709 JUMP JUMPDEST SWAP3 SWAP2 POP POP JUMP JUMPDEST PUSH1 0x0 DUP1 PUSH1 0x0 DUP1 PUSH1 0x0 PUSH1 0xA0 DUP7 DUP9 SUB SLT ISZERO PUSH2 0x2751 JUMPI PUSH2 0x2750 PUSH2 0x234F JUMP JUMPDEST JUMPDEST PUSH1 0x0 PUSH2 0x275F DUP9 DUP3 DUP10 ADD PUSH2 0x2720 JUMP JUMPDEST SWAP6 POP POP PUSH1 0x20 PUSH2 0x2770 DUP9 DUP3 DUP10 ADD PUSH2 0x2720 JUMP JUMPDEST SWAP5 POP POP PUSH1 0x40 PUSH2 0x2781 DUP9 DUP3 DUP10 ADD PUSH2 0x264B JUMP JUMPDEST SWAP4 POP POP PUSH1 0x60 PUSH2 0x2792 DUP9 DUP3 DUP10 ADD PUSH2 0x264B JUMP JUMPDEST SWAP3 POP POP PUSH1 0x80 PUSH2 0x27A3 DUP9 DUP3 DUP10 ADD PUSH2 0x264B JUMP JUMPDEST SWAP2 POP POP SWAP3 SWAP6 POP SWAP3 SWAP6 SWAP1 SWAP4 POP JUMP JUMPDEST PUSH1 0x0 DUP3 DUP3 MSTORE PUSH1 0x20 DUP3 ADD SWAP1 POP SWAP3 SWAP2 POP POP JUMP JUMPDEST PUSH32 0x46756E6374696F6E206D7573742062652063616C6C6564207468726F75676820 PUSH1 0x0 DUP3 ADD MSTORE PUSH32 0x64656C656761746563616C6C0000000000000000000000000000000000000000 PUSH1 0x20 DUP3 ADD MSTORE POP JUMP JUMPDEST PUSH1 0x0 PUSH2 0x281D PUSH1 0x2C DUP4 PUSH2 0x27B0 JUMP JUMPDEST SWAP2 POP PUSH2 0x2828 DUP3 PUSH2 0x27C1 JUMP JUMPDEST PUSH1 0x40 DUP3 ADD SWAP1 POP SWAP2 SWAP1 POP JUMP JUMPDEST PUSH1 0x0 PUSH1 0x20 DUP3 ADD SWAP1 POP DUP2 DUP2 SUB PUSH1 0x0 DUP4 ADD MSTORE PUSH2 0x284C DUP2 PUSH2 0x2810 JUMP JUMPDEST SWAP1 POP SWAP2 SWAP1 POP JUMP JUMPDEST PUSH32 0x46756E6374696F6E206D7573742062652063616C6C6564207468726F75676820 PUSH1 0x0 DUP3 ADD MSTORE PUSH32 0x6163746976652070726F78790000000000000000000000000000000000000000 PUSH1 0x20 DUP3 ADD MSTORE POP JUMP JUMPDEST PUSH1 0x0 PUSH2 0x28AF PUSH1 0x2C DUP4 PUSH2 0x27B0 JUMP JUMPDEST SWAP2 POP PUSH2 0x28BA DUP3 PUSH2 0x2853 JUMP JUMPDEST PUSH1 0x40 DUP3 ADD SWAP1 POP SWAP2 SWAP1 POP JUMP JUMPDEST PUSH1 0x0 PUSH1 0x20 DUP3 ADD SWAP1 POP DUP2 DUP2 SUB PUSH1 0x0 DUP4 ADD MSTORE PUSH2 0x28DE DUP2 PUSH2 0x28A2 JUMP JUMPDEST SWAP1 POP SWAP2 SWAP1 POP JUMP JUMPDEST PUSH32 0x555550535570677261646561626C653A206D757374206E6F742062652063616C PUSH1 0x0 DUP3 ADD MSTORE PUSH32 0x6C6564207468726F7567682064656C656761746563616C6C0000000000000000 PUSH1 0x20 DUP3 ADD MSTORE POP JUMP JUMPDEST PUSH1 0x0 PUSH2 0x2941 PUSH1 0x38 DUP4 PUSH2 0x27B0 JUMP JUMPDEST SWAP2 POP PUSH2 0x294C DUP3 PUSH2 0x28E5 JUMP JUMPDEST PUSH1 0x40 DUP3 ADD SWAP1 POP SWAP2 SWAP1 POP JUMP JUMPDEST PUSH1 0x0 PUSH1 0x20 DUP3 ADD SWAP1 POP DUP2 DUP2 SUB PUSH1 0x0 DUP4 ADD MSTORE PUSH2 0x2970 DUP2 PUSH2 0x2934 JUMP JUMPDEST SWAP1 POP SWAP2 SWAP1 POP JUMP JUMPDEST PUSH32 0x43616E6E6F742073776170203020746F6B656E73000000000000000000000000 PUSH1 0x0 DUP3 ADD MSTORE POP JUMP JUMPDEST PUSH1 0x0 PUSH2 0x29AD PUSH1 0x14 DUP4 PUSH2 0x27B0 JUMP JUMPDEST SWAP2 POP PUSH2 0x29B8 DUP3 PUSH2 0x2977 JUMP JUMPDEST PUSH1 0x20 DUP3 ADD SWAP1 POP SWAP2 SWAP1 POP JUMP JUMPDEST PUSH1 0x0 PUSH1 0x20 DUP3 ADD SWAP1 POP DUP2 DUP2 SUB PUSH1 0x0 DUP4 ADD MSTORE PUSH2 0x29DC DUP2 PUSH2 0x29A0 JUMP JUMPDEST SWAP1 POP SWAP2 SWAP1 POP JUMP JUMPDEST PUSH1 0x0 DUP2 MLOAD SWAP1 POP PUSH2 0x29F2 DUP2 PUSH2 0x2634 JUMP JUMPDEST SWAP3 SWAP2 POP POP JUMP JUMPDEST PUSH1 0x0 PUSH1 0x20 DUP3 DUP5 SUB SLT ISZERO PUSH2 0x2A0E JUMPI PUSH2 0x2A0D PUSH2 0x234F JUMP JUMPDEST JUMPDEST PUSH1 0x0 PUSH2 0x2A1C DUP5 DUP3 DUP6 ADD PUSH2 0x29E3 JUMP JUMPDEST SWAP2 POP POP SWAP3 SWAP2 POP POP JUMP JUMPDEST PUSH32 0x496E73756666696369656E742062616C616E6365000000000000000000000000 PUSH1 0x0 DUP3 ADD MSTORE POP JUMP JUMPDEST PUSH1 0x0 PUSH2 0x2A5B PUSH1 0x14 DUP4 PUSH2 0x27B0 JUMP JUMPDEST SWAP2 POP PUSH2 0x2A66 DUP3 PUSH2 0x2A25 JUMP JUMPDEST PUSH1 0x20 DUP3 ADD SWAP1 POP SWAP2 SWAP1 POP JUMP JUMPDEST PUSH1 0x0 PUSH1 0x20 DUP3 ADD SWAP1 POP DUP2 DUP2 SUB PUSH1 0x0 DUP4 ADD MSTORE PUSH2 0x2A8A DUP2 PUSH2 0x2A4E JUMP JUMPDEST SWAP1 POP SWAP2 SWAP1 POP JUMP JUMPDEST PUSH32 0x536C69707061676520746F6F2068696768000000000000000000000000000000 PUSH1 0x0 DUP3 ADD MSTORE POP JUMP JUMPDEST PUSH1 0x0 PUSH2 0x2AC7 PUSH1 0x11 DUP4 PUSH2 0x27B0 JUMP JUMPDEST SWAP2 POP PUSH2 0x2AD2 DUP3 PUSH2 0x2A91 JUMP JUMPDEST PUSH1 0x20 DUP3 ADD SWAP1 POP SWAP2 SWAP1 POP JUMP JUMPDEST PUSH1 0x0 PUSH1 0x20 DUP3 ADD SWAP1 POP DUP2 DUP2 SUB PUSH1 0x0 DUP4 ADD MSTORE PUSH2 0x2AF6 DUP2 PUSH2 0x2ABA JUMP JUMPDEST SWAP1 POP SWAP2 SWAP1 POP JUMP JUMPDEST PUSH32 0x43616E6E6F742072656D6F76652030206C697175696469747900000000000000 PUSH1 0x0 DUP3 ADD MSTORE POP JUMP JUMPDEST PUSH1 0x0 PUSH2 0x2B33 PUSH1 0x19 DUP4 PUSH2 0x27B0 JUMP JUMPDEST SWAP2 POP PUSH2 0x2B3E DUP3 PUSH2 0x2AFD JUMP JUMPDEST PUSH1 0x20 DUP3 ADD SWAP1 POP SWAP2 SWAP1 POP JUMP JUMPDEST PUSH1 0x0 PUSH1 0x20 DUP3 ADD SWAP1 POP DUP2 DUP2 SUB PUSH1 0x0 DUP4 ADD MSTORE PUSH2 0x2B62 DUP2 PUSH2 0x2B26 JUMP JUMPDEST SWAP1 POP SWAP2 SWAP1 POP JUMP JUMPDEST PUSH1 0x0 PUSH1 0x40 DUP3 ADD SWAP1 POP PUSH2 0x2B7E PUSH1 0x0 DUP4 ADD DUP6 PUSH2 0x22E4 JUMP JUMPDEST PUSH2 0x2B8B PUSH1 0x20 DUP4 ADD DUP5 PUSH2 0x22E4 JUMP JUMPDEST SWAP4 SWAP3 POP POP POP JUMP JUMPDEST PUSH32 0x43616E6E6F74206164642030206C697175696469747900000000000000000000 PUSH1 0x0 DUP3 ADD MSTORE POP JUMP JUMPDEST PUSH1 0x0 PUSH2 0x2BC8 PUSH1 0x16 DUP4 PUSH2 0x27B0 JUMP JUMPDEST SWAP2 POP PUSH2 0x2BD3 DUP3 PUSH2 0x2B92 JUMP JUMPDEST PUSH1 0x20 DUP3 ADD SWAP1 POP SWAP2 SWAP1 POP JUMP JUMPDEST PUSH1 0x0 PUSH1 0x20 DUP3 ADD SWAP1 POP DUP2 DUP2 SUB PUSH1 0x0 DUP4 ADD MSTORE PUSH2 0x2BF7 DUP2 PUSH2 0x2BBB JUMP JUMPDEST SWAP1 POP SWAP2 SWAP1 POP JUMP JUMPDEST PUSH32 0x496E697469616C697A61626C653A20636F6E747261637420697320616C726561 PUSH1 0x0 DUP3 ADD MSTORE PUSH32 0x647920696E697469616C697A6564000000000000000000000000000000000000 PUSH1 0x20 DUP3 ADD MSTORE POP JUMP JUMPDEST PUSH1 0x0 PUSH2 0x2C5A PUSH1 0x2E DUP4 PUSH2 0x27B0 JUMP JUMPDEST SWAP2 POP PUSH2 0x2C65 DUP3 PUSH2 0x2BFE JUMP JUMPDEST PUSH1 0x40 DUP3 ADD SWAP1 POP SWAP2 SWAP1 POP JUMP JUMPDEST PUSH1 0x0 PUSH1 0x20 DUP3 ADD SWAP1 POP DUP2 DUP2 SUB PUSH1 0x0 DUP4 ADD MSTORE PUSH2 0x2C89 DUP2 PUSH2 0x2C4D JUMP JUMPDEST SWAP1 POP SWAP2 SWAP1 POP JUMP JUMPDEST PUSH32 0x546F6B656E73206D7573742062652064697374696E6374000000000000000000 PUSH1 0x0 DUP3 ADD MSTORE POP JUMP JUMPDEST PUSH1 0x0 PUSH2 0x2CC6 PUSH1 0x17 DUP4 PUSH2 0x27B0 JUMP JUMPDEST SWAP2 POP PUSH2 0x2CD1 DUP3 PUSH2 0x2C90 JUMP JUMPDEST PUSH1 0x20 DUP3 ADD SWAP1 POP SWAP2 SWAP1 POP JUMP JUMPDEST PUSH1 0x0 PUSH1 0x20 DUP3 ADD SWAP1 POP DUP2 DUP2 SUB PUSH1 0x0 DUP4 ADD MSTORE PUSH2 0x2CF5 DUP2 PUSH2 0x2CB9 JUMP JUMPDEST SWAP1 POP SWAP2 SWAP1 POP JUMP JUMPDEST PUSH1 0x0 DUP2 SWAP1 POP SWAP2 SWAP1 POP JUMP JUMPDEST PUSH1 0x0 PUSH1 0xFF DUP3 AND SWAP1 POP SWAP2 SWAP1 POP JUMP JUMPDEST PUSH1 0x0 PUSH2 0x2D2E PUSH2 0x2D29 PUSH2 0x2D24 DUP5 PUSH2 0x2CFC JUMP JUMPDEST PUSH2 0x25BA JUMP JUMPDEST PUSH2 0x2D06 JUMP JUMPDEST SWAP1 POP SWAP2 SWAP1 POP JUMP JUMPDEST PUSH2 0x2D3E DUP2 PUSH2 0x2D13 JUMP JUMPDEST DUP3 MSTORE POP POP JUMP JUMPDEST PUSH1 0x0 PUSH1 0x20 DUP3 ADD SWAP1 POP PUSH2 0x2D59 PUSH1 0x0 DUP4 ADD DUP5 PUSH2 0x2D35 JUMP JUMPDEST SWAP3 SWAP2 POP POP JUMP JUMPDEST PUSH32 0x4F776E61626C653A206E6577206F776E657220697320746865207A65726F2061 PUSH1 0x0 DUP3 ADD MSTORE PUSH32 0x6464726573730000000000000000000000000000000000000000000000000000 PUSH1 0x20 DUP3 ADD MSTORE POP JUMP JUMPDEST PUSH1 0x0 PUSH2 0x2DBB PUSH1 0x26 DUP4 PUSH2 0x27B0 JUMP JUMPDEST SWAP2 POP PUSH2 0x2DC6 DUP3 PUSH2 0x2D5F JUMP JUMPDEST PUSH1 0x40 DUP3 ADD SWAP1 POP SWAP2 SWAP1 POP JUMP JUMPDEST PUSH1 0x0 PUSH1 0x20 DUP3 ADD SWAP1 POP DUP2 DUP2 SUB PUSH1 0x0 DUP4 ADD MSTORE PUSH2 0x2DEA DUP2 PUSH2 0x2DAE JUMP JUMPDEST SWAP1 POP SWAP2 SWAP1 POP JUMP JUMPDEST PUSH2 0x2DFA DUP2 PUSH2 0x2586 JUMP JUMPDEST DUP2 EQ PUSH2 0x2E05 JUMPI PUSH1 0x0 DUP1 REVERT JUMPDEST POP JUMP JUMPDEST PUSH1 0x0 DUP2 MLOAD SWAP1 POP PUSH2 0x2E17 DUP2 PUSH2 0x2DF1 JUMP JUMPDEST SWAP3 SWAP2 POP POP JUMP JUMPDEST PUSH1 0x0 PUSH1 0x20 DUP3 DUP5 SUB SLT ISZERO PUSH2 0x2E33 JUMPI PUSH2 0x2E32 PUSH2 0x234F JUMP JUMPDEST JUMPDEST PUSH1 0x0 PUSH2 0x2E41 DUP5 DUP3 DUP6 ADD PUSH2 0x2E08 JUMP JUMPDEST SWAP2 POP POP SWAP3 SWAP2 POP POP JUMP JUMPDEST PUSH32 0x45524331393637557067726164653A206E657720696D706C656D656E74617469 PUSH1 0x0 DUP3 ADD MSTORE PUSH32 0x6F6E206973206E6F742055555053000000000000000000000000000000000000 PUSH1 0x20 DUP3 ADD MSTORE POP JUMP JUMPDEST PUSH1 0x0 PUSH2 0x2EA6 PUSH1 0x2E DUP4 PUSH2 0x27B0 JUMP JUMPDEST SWAP2 POP PUSH2 0x2EB1 DUP3 PUSH2 0x2E4A JUMP JUMPDEST PUSH1 0x40 DUP3 ADD SWAP1 POP SWAP2 SWAP1 POP JUMP JUMPDEST PUSH1 0x0 PUSH1 0x20 DUP3 ADD SWAP1 POP DUP2 DUP2 SUB PUSH1 0x0 DUP4 ADD MSTORE PUSH2 0x2ED5 DUP2 PUSH2 0x2E99 JUMP JUMPDEST SWAP1 POP SWAP2 SWAP1 POP JUMP JUMPDEST PUSH32 0x45524331393637557067726164653A20756E737570706F727465642070726F78 PUSH1 0x0 DUP3 ADD MSTORE PUSH32 0x6961626C65555549440000000000000000000000000000000000000000000000 PUSH1 0x20 DUP3 ADD MSTORE POP JUMP JUMPDEST PUSH1 0x0 PUSH2 0x2F38 PUSH1 0x29 DUP4 PUSH2 0x27B0 JUMP JUMPDEST SWAP2 POP PUSH2 0x2F43 DUP3 PUSH2 0x2EDC JUMP JUMPDEST PUSH1 0x40 DUP3 ADD SWAP1 POP SWAP2 SWAP1 POP JUMP JUMPDEST PUSH1 0x0 PUSH1 0x20 DUP3 ADD SWAP1 POP DUP2 DUP2 SUB PUSH1 0x0 DUP4 ADD MSTORE PUSH2 0x2F67 DUP2 PUSH2 0x2F2B JUMP JUMPDEST SWAP1 POP SWAP2 SWAP1 POP JUMP JUMPDEST PUSH32 0x4F776E61626C653A2063616C6C6572206973206E6F7420746865206F776E6572 PUSH1 0x0 DUP3 ADD MSTORE POP JUMP JUMPDEST PUSH1 0x0 PUSH2 0x2FA4 PUSH1 0x20 DUP4 PUSH2 0x27B0 JUMP JUMPDEST SWAP2 POP PUSH2 0x2FAF DUP3 PUSH2 0x2F6E JUMP JUMPDEST PUSH1 0x20 DUP3 ADD SWAP1 POP SWAP2 SWAP1 POP JUMP JUMPDEST PUSH1 0x0 PUSH1 0x20 DUP3 ADD SWAP1 POP DUP2 DUP2 SUB PUSH1 0x0 DUP4 ADD MSTORE PUSH2 0x2FD3 DUP2 PUSH2 0x2F97 JUMP JUMPDEST SWAP1 POP SWAP2 SWAP1 POP JUMP JUMPDEST PUSH32 0x5265656E7472616E637947756172643A207265656E7472616E742063616C6C00 PUSH1 0x0 DUP3 ADD MSTORE POP JUMP JUMPDEST PUSH1 0x0 PUSH2 0x3010 PUSH1 0x1F DUP4 PUSH2 0x27B0 JUMP JUMPDEST SWAP2 POP PUSH2 0x301B DUP3 PUSH2 0x2FDA JUMP JUMPDEST PUSH1 0x20 DUP3 ADD SWAP1 POP SWAP2 SWAP1 POP JUMP JUMPDEST PUSH1 0x0 PUSH1 0x20 DUP3 ADD SWAP1 POP DUP2 DUP2 SUB PUSH1 0x0 DUP4 ADD MSTORE PUSH2 0x303F DUP2 PUSH2 0x3003 JUMP JUMPDEST SWAP1 POP SWAP2 SWAP1 POP JUMP JUMPDEST PUSH1 0x0 PUSH1 0x60 DUP3 ADD SWAP1 POP PUSH2 0x305B PUSH1 0x0 DUP4 ADD DUP7 PUSH2 0x26A0 JUMP JUMPDEST PUSH2 0x3068 PUSH1 0x20 DUP4 ADD DUP6 PUSH2 0x26A0 JUMP JUMPDEST PUSH2 0x3075 PUSH1 0x40 DUP4 ADD DUP5 PUSH2 0x22E4 JUMP JUMPDEST SWAP5 SWAP4 POP POP POP POP JUMP JUMPDEST PUSH32 0x4E487B7100000000000000000000000000000000000000000000000000000000 PUSH1 0x0 MSTORE PUSH1 0x11 PUSH1 0x4 MSTORE PUSH1 0x24 PUSH1 0x0 REVERT JUMPDEST PUSH1 0x0 PUSH2 0x30B7 DUP3 PUSH2 0x22DA JUMP JUMPDEST SWAP2 POP PUSH2 0x30C2 DUP4 PUSH2 0x22DA JUMP JUMPDEST SWAP3 POP DUP3 DUP3 MUL PUSH2 0x30D0 DUP2 PUSH2 0x22DA JUMP JUMPDEST SWAP2 POP DUP3 DUP3 DIV DUP5 EQ DUP4 ISZERO OR PUSH2 0x30E7 JUMPI PUSH2 0x30E6 PUSH2 0x307D JUMP JUMPDEST JUMPDEST POP SWAP3 SWAP2 POP POP JUMP JUMPDEST PUSH32 0x4E487B7100000000000000000000000000000000000000000000000000000000 PUSH1 0x0 MSTORE PUSH1 0x12 PUSH1 0x4 MSTORE PUSH1 0x24 PUSH1 0x0 REVERT JUMPDEST PUSH1 0x0 PUSH2 0x3128 DUP3 PUSH2 0x22DA JUMP JUMPDEST SWAP2 POP PUSH2 0x3133 DUP4 PUSH2 0x22DA JUMP JUMPDEST SWAP3 POP DUP3 PUSH2 0x3143 JUMPI PUSH2 0x3142 PUSH2 0x30EE JUMP JUMPDEST JUMPDEST DUP3 DUP3 DIV SWAP1 POP SWAP3 SWAP2 POP POP JUMP JUMPDEST PUSH1 0x0 PUSH2 0x3159 DUP3 PUSH2 0x22DA JUMP JUMPDEST SWAP2 POP PUSH2 0x3164 DUP4 PUSH2 0x22DA JUMP JUMPDEST SWAP3 POP DUP3 DUP3 SUB SWAP1 POP DUP2 DUP2 GT ISZERO PUSH2 0x317C JUMPI PUSH2 0x317B PUSH2 0x307D JUMP JUMPDEST JUMPDEST SWAP3 SWAP2 POP POP JUMP JUMPDEST PUSH1 0x0 PUSH1 0x40 DUP3 ADD SWAP1 POP PUSH2 0x3197 PUSH1 0x0 DUP4 ADD DUP6 PUSH2 0x26A0 JUMP JUMPDEST PUSH2 0x31A4 PUSH1 0x20 DUP4 ADD DUP5 PUSH2 0x22E4 JUMP JUMPDEST SWAP4 SWAP3 POP POP POP JUMP JUMPDEST PUSH32 0x45524332303A206275726E20616D6F756E7420657863656564732062616C616E PUSH1 0x0 DUP3 ADD MSTORE PUSH32 0x6365000000000000000000000000000000000000000000000000000000000000 PUSH1 0x20 DUP3 ADD MSTORE POP JUMP JUMPDEST PUSH1 0x0 PUSH2 0x3207 PUSH1 0x22 DUP4 PUSH2 0x27B0 JUMP JUMPDEST SWAP2 POP PUSH2 0x3212 DUP3 PUSH2 0x31AB JUMP JUMPDEST PUSH1 0x40 DUP3 ADD SWAP1 POP SWAP2 SWAP1 POP JUMP JUMPDEST PUSH1 0x0 PUSH1 0x20 DUP3 ADD SWAP1 POP DUP2 DUP2 SUB PUSH1 0x0 DUP4 ADD MSTORE PUSH2 0x3236 DUP2 PUSH2 0x31FA JUMP JUMPDEST SWAP1 POP SWAP2 SWAP1 POP JUMP JUMPDEST PUSH1 0x0 PUSH2 0x3248 DUP3 PUSH2 0x22DA JUMP JUMPDEST SWAP2 POP PUSH2 0x3253 DUP4 PUSH2 0x22DA JUMP JUMPDEST SWAP3 POP DUP3 DUP3 ADD SWAP1 POP DUP1 DUP3 GT ISZERO PUSH2 0x326B JUMPI PUSH2 0x326A PUSH2 0x307D JUMP JUMPDEST JUMPDEST SWAP3 SWAP2 POP POP JUMP JUMPDEST PUSH32 0x496E697469616C697A61626C653A20636F6E7472616374206973206E6F742069 PUSH1 0x0 DUP3 ADD MSTORE PUSH32 0x6E697469616C697A696E67000000000000000000000000000000000000000000 PUSH1 0x20 DUP3 ADD MSTORE POP JUMP JUMPDEST PUSH1 0x0 PUSH2 0x32CD PUSH1 0x2B DUP4 PUSH2 0x27B0 JUMP JUMPDEST SWAP2 POP PUSH2 0x32D8 DUP3 PUSH2 0x3271 JUMP JUMPDEST PUSH1 0x40 DUP3 ADD SWAP1 POP SWAP2 SWAP1 POP JUMP JUMPDEST PUSH1 0x0 PUSH1 0x20 DUP3 ADD SWAP1 POP DUP2 DUP2 SUB PUSH1 0x0 DUP4 ADD MSTORE PUSH2 0x32FC DUP2 PUSH2 0x32C0 JUMP JUMPDEST SWAP1 POP SWAP2 SWAP1 POP JUMP JUMPDEST PUSH32 0x455243313936373A206E657720696D706C656D656E746174696F6E206973206E PUSH1 0x0 DUP3 ADD MSTORE PUSH32 0x6F74206120636F6E747261637400000000000000000000000000000000000000 PUSH1 0x20 DUP3 ADD MSTORE POP JUMP JUMPDEST PUSH1 0x0 PUSH2 0x335F PUSH1 0x2D DUP4 PUSH2 0x27B0 JUMP JUMPDEST SWAP2 POP PUSH2 0x336A DUP3 PUSH2 0x3303 JUMP JUMPDEST PUSH1 0x40 DUP3 ADD SWAP1 POP SWAP2 SWAP1 POP JUMP JUMPDEST PUSH1 0x0 PUSH1 0x20 DUP3 ADD SWAP1 POP DUP2 DUP2 SUB PUSH1 0x0 DUP4 ADD MSTORE PUSH2 0x338E DUP2 PUSH2 0x3352 JUMP JUMPDEST SWAP1 POP SWAP2 SWAP1 POP JUMP JUMPDEST PUSH1 0x0 DUP2 ISZERO ISZERO SWAP1 POP SWAP2 SWAP1 POP JUMP JUMPDEST PUSH2 0x33AA DUP2 PUSH2 0x3395 JUMP JUMPDEST DUP2 EQ PUSH2 0x33B5 JUMPI PUSH1 0x0 DUP1 REVERT JUMPDEST POP JUMP JUMPDEST PUSH1 0x0 DUP2 MLOAD SWAP1 POP PUSH2 0x33C7 DUP2 PUSH2 0x33A1 JUMP JUMPDEST SWAP3 SWAP2 POP POP JUMP JUMPDEST PUSH1 0x0 PUSH1 0x20 DUP3 DUP5 SUB SLT ISZERO PUSH2 0x33E3 JUMPI PUSH2 0x33E2 PUSH2 0x234F JUMP JUMPDEST JUMPDEST PUSH1 0x0 PUSH2 0x33F1 DUP5 DUP3 DUP6 ADD PUSH2 0x33B8 JUMP JUMPDEST SWAP2 POP POP SWAP3 SWAP2 POP POP JUMP JUMPDEST PUSH32 0x5361666545524332303A204552433230206F7065726174696F6E20646964206E PUSH1 0x0 DUP3 ADD MSTORE PUSH32 0x6F74207375636365656400000000000000000000000000000000000000000000 PUSH1 0x20 DUP3 ADD MSTORE POP JUMP JUMPDEST PUSH1 0x0 PUSH2 0x3456 PUSH1 0x2A DUP4 PUSH2 0x27B0 JUMP JUMPDEST SWAP2 POP PUSH2 0x3461 DUP3 PUSH2 0x33FA JUMP JUMPDEST PUSH1 0x40 DUP3 ADD SWAP1 POP SWAP2 SWAP1 POP JUMP JUMPDEST PUSH1 0x0 PUSH1 0x20 DUP3 ADD SWAP1 POP DUP2 DUP2 SUB PUSH1 0x0 DUP4 ADD MSTORE PUSH2 0x3485 DUP2 PUSH2 0x3449 JUMP JUMPDEST SWAP1 POP SWAP2 SWAP1 POP JUMP JUMPDEST PUSH32 0x416464726573733A2064656C65676174652063616C6C20746F206E6F6E2D636F PUSH1 0x0 DUP3 ADD MSTORE PUSH32 0x6E74726163740000000000000000000000000000000000000000000000000000 PUSH1 0x20 DUP3 ADD MSTORE POP JUMP JUMPDEST PUSH1 0x0 PUSH2 0x34E8 PUSH1 0x26 DUP4 PUSH2 0x27B0 JUMP JUMPDEST SWAP2 POP PUSH2 0x34F3 DUP3 PUSH2 0x348C JUMP JUMPDEST PUSH1 0x40 DUP3 ADD SWAP1 POP SWAP2 SWAP1 POP JUMP JUMPDEST PUSH1 0x0 PUSH1 0x20 DUP3 ADD SWAP1 POP DUP2 DUP2 SUB PUSH1 0x0 DUP4 ADD MSTORE PUSH2 0x3517 DUP2 PUSH2 0x34DB JUMP JUMPDEST SWAP1 POP SWAP2 SWAP1 POP JUMP JUMPDEST PUSH1 0x0 DUP2 MLOAD SWAP1 POP SWAP2 SWAP1 POP JUMP JUMPDEST PUSH1 0x0 DUP2 SWAP1 POP SWAP3 SWAP2 POP POP JUMP JUMPDEST PUSH1 0x0 JUMPDEST DUP4 DUP2 LT ISZERO PUSH2 0x3552 JUMPI DUP1 DUP3 ADD MLOAD DUP2 DUP5 ADD MSTORE PUSH1 0x20 DUP2 ADD SWAP1 POP PUSH2 0x3537 JUMP JUMPDEST PUSH1 0x0 DUP5 DUP5 ADD MSTORE POP POP POP POP JUMP JUMPDEST PUSH1 0x0 PUSH2 0x3569 DUP3 PUSH2 0x351E JUMP JUMPDEST PUSH2 0x3573 DUP2 DUP6 PUSH2 0x3529 JUMP JUMPDEST SWAP4 POP PUSH2 0x3583 DUP2 DUP6 PUSH1 0x20 DUP7 ADD PUSH2 0x3534 JUMP JUMPDEST DUP1 DUP5 ADD SWAP2 POP POP SWAP3 SWAP2 POP POP JUMP JUMPDEST PUSH1 0x0 PUSH2 0x359B DUP3 DUP5 PUSH2 0x355E JUMP JUMPDEST SWAP2 POP DUP2 SWAP1 POP SWAP3 SWAP2 POP POP JUMP JUMPDEST PUSH32 0x416464726573733A20696E73756666696369656E742062616C616E636520666F PUSH1 0x0 DUP3 ADD MSTORE PUSH32 0x722063616C6C0000000000000000000000000000000000000000000000000000 PUSH1 0x20 DUP3 ADD MSTORE POP JUMP JUMPDEST PUSH1 0x0 PUSH2 0x3602 PUSH1 0x26 DUP4 PUSH2 0x27B0 JUMP JUMPDEST SWAP2 POP PUSH2 0x360D DUP3 PUSH2 0x35A6 JUMP JUMPDEST PUSH1 0x40 DUP3 ADD SWAP1 POP SWAP2 SWAP1 POP JUMP JUMPDEST PUSH1 0x0 PUSH1 0x20 DUP3 ADD SWAP1 POP DUP2 DUP2 SUB PUSH1 0x0 DUP4 ADD MSTORE PUSH2 0x3631 DUP2 PUSH2 0x35F5 JUMP JUMPDEST SWAP1 POP SWAP2 SWAP1 POP JUMP JUMPDEST PUSH1 0x0 DUP2 MLOAD SWAP1 POP SWAP2 SWAP1 POP JUMP JUMPDEST PUSH1 0x0 PUSH2 0x364E DUP3 PUSH2 0x3638 JUMP JUMPDEST PUSH2 0x3658 DUP2 DUP6 PUSH2 0x27B0 JUMP JUMPDEST SWAP4 POP PUSH2 0x3668 DUP2 DUP6 PUSH1 0x20 DUP7 ADD PUSH2 0x3534 JUMP JUMPDEST PUSH2 0x3671 DUP2 PUSH2 0x23EE JUMP JUMPDEST DUP5 ADD SWAP2 POP POP SWAP3 SWAP2 POP POP JUMP JUMPDEST PUSH1 0x0 PUSH1 0x20 DUP3 ADD SWAP1 POP DUP2 DUP2 SUB PUSH1 0x0 DUP4 ADD MSTORE PUSH2 0x3696 DUP2 DUP5 PUSH2 0x3643 JUMP JUMPDEST SWAP1 POP SWAP3 SWAP2 POP POP JUMP JUMPDEST PUSH32 0x416464726573733A2063616C6C20746F206E6F6E2D636F6E7472616374000000 PUSH1 0x0 DUP3 ADD MSTORE POP JUMP JUMPDEST PUSH1 0x0 PUSH2 0x36D4 PUSH1 0x1D DUP4 PUSH2 0x27B0 JUMP JUMPDEST SWAP2 POP PUSH2 0x36DF DUP3 PUSH2 0x369E JUMP JUMPDEST PUSH1 0x20 DUP3 ADD SWAP1 POP SWAP2 SWAP1 POP JUMP JUMPDEST PUSH1 0x0 PUSH1 0x20 DUP3 ADD SWAP1 POP DUP2 DUP2 SUB PUSH1 0x0 DUP4 ADD MSTORE PUSH2 0x3703 DUP2 PUSH2 0x36C7 JUMP JUMPDEST SWAP1 POP SWAP2 SWAP1 POP JUMP INVALID COINBASE PUSH5 0x6472657373 GASPRICE KECCAK256 PUSH13 0x6F772D6C6576656C2064656C65 PUSH8 0x6174652063616C6C KECCAK256 PUSH7 0x61696C6564A264 PUSH10 0x706673582212208E9BD2 PUSH15 0xD834876329BA0C59F1104EDA0E87BF ADDMOD 0xAB JUMPI 0xAF 0xC8 0xBD 0xB0 CODECOPY DUP14 GASPRICE 0xE0 0xC8 GASPRICE PUSH5 0x736F6C6343 STOP ADDMOD GT STOP CALLER "},"methodIdentifiers":{"FEE_MAX()":"c2624e1e","addLiquidity(uint256,uint256)":"9cd441da","balanceOf(address)":"70a08231","feePercent()":"7fd6f15c","getReserves()":"0902f1ac","initialize(address,address,uint256,uint256,uint256)":"d13f90b4","owner()":"8da5cb5b","proxiableUUID()":"52d1902d","removeLiquidity(uint256)":"9c8f9f23","renounceOwnership()":"715018a6","reserveX()":"08eabdda","reserveY()":"fadfa65b","swapTokens(uint256,uint256)":"88ab076f","testTokenX()":"63a7a77c","testTokenY()":"c2d9c89b","totalSupply()":"18160ddd","transferOwnership(address)":"f2fde38b","upgradeTo(address)":"3659cfe6","upgradeToAndCall(address,bytes)":"4f1ef286"}},"storageLayout":{"storage":[{"astId":527,"contract":"contracts/ConstantProductAutomatedMarketMaker.sol:ConstantProductAutomatedMarketMaker","label":"_initialized","offset":0,"slot":"0","type":"t_uint8"},{"astId":530,"contract":"contracts/ConstantProductAutomatedMarketMaker.sol:ConstantProductAutomatedMarketMaker","label":"_initializing","offset":1,"slot":"0","type":"t_bool"},{"astId":509,"contract":"contracts/ConstantProductAutomatedMarketMaker.sol:ConstantProductAutomatedMarketMaker","label":"__gap","offset":0,"slot":"1","type":"t_array(t_uint256)50_storage"},{"astId":824,"contract":"contracts/ConstantProductAutomatedMarketMaker.sol:ConstantProductAutomatedMarketMaker","label":"__gap","offset":0,"slot":"51","type":"t_array(t_uint256)50_storage"},{"astId":1618,"contract":"contracts/ConstantProductAutomatedMarketMaker.sol:ConstantProductAutomatedMarketMaker","label":"__gap","offset":0,"slot":"101","type":"t_array(t_uint256)50_storage"},{"astId":10,"contract":"contracts/ConstantProductAutomatedMarketMaker.sol:ConstantProductAutomatedMarketMaker","label":"_owner","offset":0,"slot":"151","type":"t_address"},{"astId":130,"contract":"contracts/ConstantProductAutomatedMarketMaker.sol:ConstantProductAutomatedMarketMaker","label":"__gap","offset":0,"slot":"152","type":"t_array(t_uint256)49_storage"},{"astId":839,"contract":"contracts/ConstantProductAutomatedMarketMaker.sol:ConstantProductAutomatedMarketMaker","label":"_status","offset":0,"slot":"201","type":"t_uint256"},{"astId":897,"contract":"contracts/ConstantProductAutomatedMarketMaker.sol:ConstantProductAutomatedMarketMaker","label":"__gap","offset":0,"slot":"202","type":"t_array(t_uint256)49_storage"},{"astId":2014,"contract":"contracts/ConstantProductAutomatedMarketMaker.sol:ConstantProductAutomatedMarketMaker","label":"testTokenX","offset":0,"slot":"251","type":"t_contract(IERC20Upgradeable)976"},{"astId":2017,"contract":"contracts/ConstantProductAutomatedMarketMaker.sol:ConstantProductAutomatedMarketMaker","label":"testTokenY","offset":0,"slot":"252","type":"t_contract(IERC20Upgradeable)976"},{"astId":2019,"contract":"contracts/ConstantProductAutomatedMarketMaker.sol:ConstantProductAutomatedMarketMaker","label":"reserveX","offset":0,"slot":"253","type":"t_uint256"},{"astId":2021,"contract":"contracts/ConstantProductAutomatedMarketMaker.sol:ConstantProductAutomatedMarketMaker","label":"reserveY","offset":0,"slot":"254","type":"t_uint256"},{"astId":2026,"contract":"contracts/ConstantProductAutomatedMarketMaker.sol:ConstantProductAutomatedMarketMaker","label":"feePercent","offset":0,"slot":"255","type":"t_uint256"},{"astId":2028,"contract":"contracts/ConstantProductAutomatedMarketMaker.sol:ConstantProductAutomatedMarketMaker","label":"totalSupply","offset":0,"slot":"256","type":"t_uint256"},{"astId":2032,"contract":"contracts/ConstantProductAutomatedMarketMaker.sol:ConstantProductAutomatedMarketMaker","label":"_balances","offset":0,"slot":"257","type":"t_mapping(t_address,t_uint256)"}],"types":{"t_address":{"encoding":"inplace","label":"address","numberOfBytes":"20"},"t_array(t_uint256)49_storage":{"base":"t_uint256","encoding":"inplace","label":"uint256[49]","numberOfBytes":"1568"},"t_array(t_uint256)50_storage":{"base":"t_uint256","encoding":"inplace","label":"uint256[50]","numberOfBytes":"1600"},"t_bool":{"encoding":"inplace","label":"bool","numberOfBytes":"1"},"t_contract(IERC20Upgradeable)976":{"encoding":"inplace","label":"contract IERC20Upgradeable","numberOfBytes":"20"},"t_mapping(t_address,t_uint256)":{"encoding":"mapping","key":"t_address","label":"mapping(address => uint256)","numberOfBytes":"32","value":"t_uint256"},"t_uint256":{"encoding":"inplace","label":"uint256","numberOfBytes":"32"},"t_uint8":{"encoding":"inplace","label":"uint8","numberOfBytes":"1"}}}}}}