{
  "_format": "hh-sol-artifact-1",
  "contractName": "ConstantProductAutomatedMarketMaker",
  "sourceName": "contracts/ConstantProductAutomatedMarketMaker.sol",
  "abi": [
    {
      "anonymous": false,
      "inputs": [
        {
          "indexed": false,
          "internalType": "address",
          "name": "previousAdmin",
          "type": "address"
        },
        {
          "indexed": false,
          "internalType": "address",
          "name": "newAdmin",
          "type": "address"
        }
      ],
      "name": "AdminChanged",
      "type": "event"
    },
    {
      "anonymous": false,
      "inputs": [
        {
          "indexed": true,
          "internalType": "address",
          "name": "beacon",
          "type": "address"
        }
      ],
      "name": "BeaconUpgraded",
      "type": "event"
    },
    {
      "anonymous": false,
      "inputs": [
        {
          "indexed": false,
          "internalType": "uint8",
          "name": "version",
          "type": "uint8"
        }
      ],
      "name": "Initialized",
      "type": "event"
    },
    {
      "anonymous": false,
      "inputs": [
        {
          "indexed": true,
          "internalType": "address",
          "name": "provider",
          "type": "address"
        },
        {
          "indexed": false,
          "internalType": "uint256",
          "name": "amountX",
          "type": "uint256"
        },
        {
          "indexed": false,
          "internalType": "uint256",
          "name": "amountY",
          "type": "uint256"
        }
      ],
      "name": "LiquidityAdded",
      "type": "event"
    },
    {
      "anonymous": false,
      "inputs": [
        {
          "indexed": true,
          "internalType": "address",
          "name": "provider",
          "type": "address"
        },
        {
          "indexed": false,
          "internalType": "uint256",
          "name": "amountX",
          "type": "uint256"
        },
        {
          "indexed": false,
          "internalType": "uint256",
          "name": "amountY",
          "type": "uint256"
        }
      ],
      "name": "LiquidityRemoved",
      "type": "event"
    },
    {
      "anonymous": false,
      "inputs": [
        {
          "indexed": true,
          "internalType": "address",
          "name": "previousOwner",
          "type": "address"
        },
        {
          "indexed": true,
          "internalType": "address",
          "name": "newOwner",
          "type": "address"
        }
      ],
      "name": "OwnershipTransferred",
      "type": "event"
    },
    {
      "anonymous": false,
      "inputs": [
        {
          "indexed": true,
          "internalType": "address",
          "name": "user",
          "type": "address"
        },
        {
          "indexed": false,
          "internalType": "uint256",
          "name": "amountIn",
          "type": "uint256"
        },
        {
          "indexed": false,
          "internalType": "uint256",
          "name": "amountOut",
          "type": "uint256"
        },
        {
          "indexed": false,
          "internalType": "uint256",
          "name": "fee",
          "type": "uint256"
        }
      ],
      "name": "TokensSwapped",
      "type": "event"
    },
    {
      "anonymous": false,
      "inputs": [
        {
          "indexed": true,
          "internalType": "address",
          "name": "to",
          "type": "address"
        },
        {
          "indexed": true,
          "internalType": "address",
          "name": "from",
          "type": "address"
        },
        {
          "indexed": false,
          "internalType": "uint256",
          "name": "amount",
          "type": "uint256"
        }
      ],
      "name": "Transfer",
      "type": "event"
    },
    {
      "anonymous": false,
      "inputs": [
        {
          "indexed": true,
          "internalType": "address",
          "name": "implementation",
          "type": "address"
        }
      ],
      "name": "Upgraded",
      "type": "event"
    },
    {
      "inputs": [],
      "name": "FEE_MAX",
      "outputs": [
        {
          "internalType": "uint256",
          "name": "",
          "type": "uint256"
        }
      ],
      "stateMutability": "view",
      "type": "function"
    },
    {
      "inputs": [
        {
          "internalType": "uint256",
          "name": "amountX",
          "type": "uint256"
        },
        {
          "internalType": "uint256",
          "name": "amountY",
          "type": "uint256"
        }
      ],
      "name": "addLiquidity",
      "outputs": [],
      "stateMutability": "nonpayable",
      "type": "function"
    },
    {
      "inputs": [
        {
          "internalType": "address",
          "name": "account",
          "type": "address"
        }
      ],
      "name": "balanceOf",
      "outputs": [
        {
          "internalType": "uint256",
          "name": "",
          "type": "uint256"
        }
      ],
      "stateMutability": "view",
      "type": "function"
    },
    {
      "inputs": [
        {
          "internalType": "uint256",
          "name": "amountIn",
          "type": "uint256"
        },
        {
          "internalType": "uint256",
          "name": "reserveX",
          "type": "uint256"
        },
        {
          "internalType": "uint256",
          "name": "reserveY",
          "type": "uint256"
        }
      ],
      "name": "calculateExpected",
      "outputs": [
        {
          "internalType": "uint256",
          "name": "",
          "type": "uint256"
        }
      ],
      "stateMutability": "view",
      "type": "function"
    },
    {
      "inputs": [],
      "name": "feePercent",
      "outputs": [
        {
          "internalType": "uint256",
          "name": "",
          "type": "uint256"
        }
      ],
      "stateMutability": "view",
      "type": "function"
    },
    {
      "inputs": [],
      "name": "getReserves",
      "outputs": [
        {
          "internalType": "uint256",
          "name": "",
          "type": "uint256"
        },
        {
          "internalType": "uint256",
          "name": "",
          "type": "uint256"
        },
        {
          "internalType": "uint256",
          "name": "",
          "type": "uint256"
        }
      ],
      "stateMutability": "view",
      "type": "function"
    },
    {
      "inputs": [
        {
          "internalType": "address",
          "name": "_testTokenX",
          "type": "address"
        },
        {
          "internalType": "address",
          "name": "_testTokenY",
          "type": "address"
        },
        {
          "internalType": "uint256",
          "name": "_initialReserveX",
          "type": "uint256"
        },
        {
          "internalType": "uint256",
          "name": "_initialReserveY",
          "type": "uint256"
        },
        {
          "internalType": "uint256",
          "name": "_feePercent",
          "type": "uint256"
        }
      ],
      "name": "initialize",
      "outputs": [],
      "stateMutability": "nonpayable",
      "type": "function"
    },
    {
      "inputs": [],
      "name": "owner",
      "outputs": [
        {
          "internalType": "address",
          "name": "",
          "type": "address"
        }
      ],
      "stateMutability": "view",
      "type": "function"
    },
    {
      "inputs": [],
      "name": "proxiableUUID",
      "outputs": [
        {
          "internalType": "bytes32",
          "name": "",
          "type": "bytes32"
        }
      ],
      "stateMutability": "view",
      "type": "function"
    },
    {
      "inputs": [
        {
          "internalType": "uint256",
          "name": "amount",
          "type": "uint256"
        }
      ],
      "name": "removeLiquidity",
      "outputs": [],
      "stateMutability": "nonpayable",
      "type": "function"
    },
    {
      "inputs": [],
      "name": "renounceOwnership",
      "outputs": [],
      "stateMutability": "nonpayable",
      "type": "function"
    },
    {
      "inputs": [],
      "name": "reserveX",
      "outputs": [
        {
          "internalType": "uint256",
          "name": "",
          "type": "uint256"
        }
      ],
      "stateMutability": "view",
      "type": "function"
    },
    {
      "inputs": [],
      "name": "reserveY",
      "outputs": [
        {
          "internalType": "uint256",
          "name": "",
          "type": "uint256"
        }
      ],
      "stateMutability": "view",
      "type": "function"
    },
    {
      "inputs": [
        {
          "internalType": "uint256",
          "name": "amountIn",
          "type": "uint256"
        },
        {
          "internalType": "uint256",
          "name": "amountOutMin",
          "type": "uint256"
        }
      ],
      "name": "swapTokens",
      "outputs": [],
      "stateMutability": "nonpayable",
      "type": "function"
    },
    {
      "inputs": [],
      "name": "testTokenX",
      "outputs": [
        {
          "internalType": "contract IERC20",
          "name": "",
          "type": "address"
        }
      ],
      "stateMutability": "view",
      "type": "function"
    },
    {
      "inputs": [],
      "name": "testTokenY",
      "outputs": [
        {
          "internalType": "contract IERC20",
          "name": "",
          "type": "address"
        }
      ],
      "stateMutability": "view",
      "type": "function"
    },
    {
      "inputs": [],
      "name": "totalSupply",
      "outputs": [
        {
          "internalType": "uint256",
          "name": "",
          "type": "uint256"
        }
      ],
      "stateMutability": "view",
      "type": "function"
    },
    {
      "inputs": [
        {
          "internalType": "address",
          "name": "newOwner",
          "type": "address"
        }
      ],
      "name": "transferOwnership",
      "outputs": [],
      "stateMutability": "nonpayable",
      "type": "function"
    },
    {
      "inputs": [
        {
          "internalType": "address",
          "name": "newImplementation",
          "type": "address"
        }
      ],
      "name": "upgradeTo",
      "outputs": [],
      "stateMutability": "nonpayable",
      "type": "function"
    },
    {
      "inputs": [
        {
          "internalType": "address",
          "name": "newImplementation",
          "type": "address"
        },
        {
          "internalType": "bytes",
          "name": "data",
          "type": "bytes"
        }
      ],
      "name": "upgradeToAndCall",
      "outputs": [],
      "stateMutability": "payable",
      "type": "function"
    }
  ],
  "bytecode": "0x60a06040523073ffffffffffffffffffffffffffffffffffffffff1660809073ffffffffffffffffffffffffffffffffffffffff1681525034801561004357600080fd5b5060805161383761007b6000396000818161049d0152818161052b01528181610625015281816106b3015261076301526138376000f3fe60806040526004361061011f5760003560e01c80637fd6f15c116100a0578063c2624e1e11610064578063c2624e1e146103a4578063c2d9c89b146103cf578063d13f90b4146103fa578063f2fde38b14610423578063fadfa65b1461044c5761011f565b80637fd6f15c146102d357806388ab076f146102fe5780638da5cb5b146103275780639c8f9f23146103525780639cd441da1461037b5761011f565b806352d1902d116100e757806352d1902d146101ec5780635ebf2bc21461021757806363a7a77c1461025457806370a082311461027f578063715018a6146102bc5761011f565b806308eabdda146101245780630902f1ac1461014f57806318160ddd1461017c5780633659cfe6146101a75780634f1ef286146101d0575b600080fd5b34801561013057600080fd5b50610139610477565b60405161014691906123ae565b60405180910390f35b34801561015b57600080fd5b5061016461047d565b604051610173939291906123c9565b60405180910390f35b34801561018857600080fd5b50610191610494565b60405161019e91906123ae565b60405180910390f35b3480156101b357600080fd5b506101ce60048036038101906101c99190612472565b61049b565b005b6101ea60048036038101906101e591906125e5565b610623565b005b3480156101f857600080fd5b5061020161075f565b60405161020e919061265a565b60405180910390f35b34801561022357600080fd5b5061023e600480360381019061023991906126a1565b610818565b60405161024b91906123ae565b60405180910390f35b34801561026057600080fd5b506102696108a7565b6040516102769190612753565b60405180910390f35b34801561028b57600080fd5b506102a660048036038101906102a19190612472565b6108cd565b6040516102b391906123ae565b60405180910390f35b3480156102c857600080fd5b506102d1610917565b005b3480156102df57600080fd5b506102e861092b565b6040516102f591906123ae565b60405180910390f35b34801561030a57600080fd5b506103256004803603810190610320919061276e565b610931565b005b34801561033357600080fd5b5061033c610c5f565b60405161034991906127bd565b60405180910390f35b34801561035e57600080fd5b50610379600480360381019061037491906127d8565b610c89565b005b34801561038757600080fd5b506103a2600480360381019061039d919061276e565b610eca565b005b3480156103b057600080fd5b506103b961121b565b6040516103c691906123ae565b60405180910390f35b3480156103db57600080fd5b506103e4611221565b6040516103f19190612753565b60405180910390f35b34801561040657600080fd5b50610421600480360381019061041c9190612805565b611247565b005b34801561042f57600080fd5b5061044a60048036038101906104459190612472565b611497565b005b34801561045857600080fd5b5061046161151a565b60405161046e91906123ae565b60405180910390f35b60fd5481565b600080600060fd5460fe5443925092509250909192565b6101005481565b7f000000000000000000000000000000000000000000000000000000000000000073ffffffffffffffffffffffffffffffffffffffff163073ffffffffffffffffffffffffffffffffffffffff1603610529576040517f08c379a000000000000000000000000000000000000000000000000000000000815260040161052090612903565b60405180910390fd5b7f000000000000000000000000000000000000000000000000000000000000000073ffffffffffffffffffffffffffffffffffffffff16610568611520565b73ffffffffffffffffffffffffffffffffffffffff16146105be576040517f08c379a00000000000000000000000000000000000000000000000000000000081526004016105b590612995565b60405180910390fd5b6105c781611577565b61062081600067ffffffffffffffff8111156105e6576105e56124ba565b5b6040519080825280601f01601f1916602001820160405280156106185781602001600182028036833780820191505090505b506000611582565b50565b7f000000000000000000000000000000000000000000000000000000000000000073ffffffffffffffffffffffffffffffffffffffff163073ffffffffffffffffffffffffffffffffffffffff16036106b1576040517f08c379a00000000000000000000000000000000000000000000000000000000081526004016106a890612903565b60405180910390fd5b7f000000000000000000000000000000000000000000000000000000000000000073ffffffffffffffffffffffffffffffffffffffff166106f0611520565b73ffffffffffffffffffffffffffffffffffffffff1614610746576040517f08c379a000000000000000000000000000000000000000000000000000000000815260040161073d90612995565b60405180910390fd5b61074f82611577565b61075b82826001611582565b5050565b60007f000000000000000000000000000000000000000000000000000000000000000073ffffffffffffffffffffffffffffffffffffffff163073ffffffffffffffffffffffffffffffffffffffff16146107ef576040517f08c379a00000000000000000000000000000000000000000000000000000000081526004016107e690612a27565b60405180910390fd5b7f360894a13ba1a3210667c828492db98dca3e2076cc3735a920a3ca505d382bbc60001b905090565b60008061085861271061084a61083b60ff546127106116f090919063ffffffff16565b8861170690919063ffffffff16565b61171c90919063ffffffff16565b9050600061086f848361170690919063ffffffff16565b90506000610886838761173290919063ffffffff16565b905061089b818361171c90919063ffffffff16565b93505050509392505050565b60fb60009054906101000a900473ffffffffffffffffffffffffffffffffffffffff1681565b600061010160008373ffffffffffffffffffffffffffffffffffffffff1673ffffffffffffffffffffffffffffffffffffffff168152602001908152602001600020549050919050565b61091f611748565b61092960006117c6565b565b60ff5481565b61093961188c565b6000821180156109495750600081115b610988576040517f08c379a000000000000000000000000000000000000000000000000000000000815260040161097f90612a93565b60405180910390fd5b8160fb60009054906101000a900473ffffffffffffffffffffffffffffffffffffffff1673ffffffffffffffffffffffffffffffffffffffff166370a08231336040518263ffffffff1660e01b81526004016109e491906127bd565b602060405180830381865afa158015610a01573d6000803e3d6000fd5b505050506040513d601f19601f82011682018060405250810190610a259190612ac8565b1015610a66576040517f08c379a0000000000000000000000000000000000000000000000000000000008152600401610a5d90612b41565b60405180910390fd5b600080610a7161047d565b50915091506000610a83858484610818565b905083811015610ac8576040517f08c379a0000000000000000000000000000000000000000000000000000000008152600401610abf90612bad565b60405180910390fd5b610b1733308760fb60009054906101000a900473ffffffffffffffffffffffffffffffffffffffff1673ffffffffffffffffffffffffffffffffffffffff166118db909392919063ffffffff16565b6000610b42612710610b3460ff548561170690919063ffffffff16565b61171c90919063ffffffff16565b90506000610b5982846116f090919063ffffffff16565b9050610ba8338260fc60009054906101000a900473ffffffffffffffffffffffffffffffffffffffff1673ffffffffffffffffffffffffffffffffffffffff166119649092919063ffffffff16565b610bfc610bb3610c5f565b8360fc60009054906101000a900473ffffffffffffffffffffffffffffffffffffffff1673ffffffffffffffffffffffffffffffffffffffff166119649092919063ffffffff16565b3373ffffffffffffffffffffffffffffffffffffffff167f5998feb874e6089317765439db6575c0ba1c29ba0084c05f3c61be5cbd74cb8c888385604051610c46939291906123c9565b60405180910390a25050505050610c5b6119ea565b5050565b6000609760009054906101000a900473ffffffffffffffffffffffffffffffffffffffff16905090565b610c9161188c565b600081118015610ca9575080610ca6336108cd565b10155b610ce8576040517f08c379a0000000000000000000000000000000000000000000000000000000008152600401610cdf90612c19565b60405180910390fd5b6000610d1461010054610d0660fd548561170690919063ffffffff16565b61171c90919063ffffffff16565b90506000610d4261010054610d3460fe548661170690919063ffffffff16565b61171c90919063ffffffff16565b9050600082118015610d545750600081115b610d93576040517f08c379a0000000000000000000000000000000000000000000000000000000008152600401610d8a90612bad565b60405180910390fd5b610d9d33846119f4565b610dea338360fb60009054906101000a900473ffffffffffffffffffffffffffffffffffffffff1673ffffffffffffffffffffffffffffffffffffffff166119649092919063ffffffff16565b610e37338260fc60009054906101000a900473ffffffffffffffffffffffffffffffffffffffff1673ffffffffffffffffffffffffffffffffffffffff166119649092919063ffffffff16565b610e4c8260fd546116f090919063ffffffff16565b60fd81905550610e678160fe546116f090919063ffffffff16565b60fe819055503373ffffffffffffffffffffffffffffffffffffffff167f96cd817c6329656790ef8fba7675405193677d39619571282f5e21f3a98cd0598383604051610eb5929190612c39565b60405180910390a25050610ec76119ea565b50565b610ed261188c565b600082118015610ee25750600081115b610f21576040517f08c379a0000000000000000000000000000000000000000000000000000000008152600401610f1890612cae565b60405180910390fd5b6000806101005403610f5957610f48610f43838561170690919063ffffffff16565b611b95565b9050610f543382611c0f565b6111be565b600080610f6461047d565b50915091506000610fa2610f81868461173290919063ffffffff16565b610f94858861170690919063ffffffff16565b61171c90919063ffffffff16565b90506000610fdd610fbc888661173290919063ffffffff16565b610fcf858a61170690919063ffffffff16565b61171c90919063ffffffff16565b905086811115611022576040517f08c379a000000000000000000000000000000000000000000000000000000000815260040161101990612bad565b60405180910390fd5b85821115611065576040517f08c379a000000000000000000000000000000000000000000000000000000000815260040161105c90612bad565b60405180910390fd5b6110e56110a76110a2611081898761173290919063ffffffff16565b6110948b8961173290919063ffffffff16565b61170690919063ffffffff16565b611b95565b6110d7610100546110c96110c4878761170690919063ffffffff16565b611b95565b61170690919063ffffffff16565b61171c90919063ffffffff16565b94506110f13386611c0f565b61114033308960fb60009054906101000a900473ffffffffffffffffffffffffffffffffffffffff1673ffffffffffffffffffffffffffffffffffffffff166118db909392919063ffffffff16565b61118f33308860fc60009054906101000a900473ffffffffffffffffffffffffffffffffffffffff1673ffffffffffffffffffffffffffffffffffffffff166118db909392919063ffffffff16565b6111a2878561173290919063ffffffff16565b93506111b7868461173290919063ffffffff16565b9250505050505b3373ffffffffffffffffffffffffffffffffffffffff167fac1d76749e5447b7b16f5ab61447e1bd502f3bb4807af3b28e620d1700a6ee458484604051611206929190612c39565b60405180910390a2506112176119ea565b5050565b61271081565b60fc60009054906101000a900473ffffffffffffffffffffffffffffffffffffffff1681565b60008060019054906101000a900460ff161590508080156112785750600160008054906101000a900460ff1660ff16105b806112a5575061128730611d2d565b1580156112a45750600160008054906101000a900460ff1660ff16145b5b6112e4576040517f08c379a00000000000000000000000000000000000000000000000000000000081526004016112db90612d40565b60405180910390fd5b60016000806101000a81548160ff021916908360ff1602179055508015611321576001600060016101000a81548160ff0219169083151502179055505b611329611d50565b611331611da1565b8473ffffffffffffffffffffffffffffffffffffffff168673ffffffffffffffffffffffffffffffffffffffff160361139f576040517f08c379a000000000000000000000000000000000000000000000000000000000815260040161139690612dac565b60405180910390fd5b8560fb60006101000a81548173ffffffffffffffffffffffffffffffffffffffff021916908373ffffffffffffffffffffffffffffffffffffffff1602179055508460fc60006101000a81548173ffffffffffffffffffffffffffffffffffffffff021916908373ffffffffffffffffffffffffffffffffffffffff1602179055508360fd819055508260fe819055508160ff81905550801561148f5760008060016101000a81548160ff0219169083151502179055507f7f26b83ff96e1f2b6a682f133852f6798a09c465da95921460cefb384740249860016040516114869190612e14565b60405180910390a15b505050505050565b61149f611748565b600073ffffffffffffffffffffffffffffffffffffffff168173ffffffffffffffffffffffffffffffffffffffff160361150e576040517f08c379a000000000000000000000000000000000000000000000000000000000815260040161150590612ea1565b60405180910390fd5b611517816117c6565b50565b60fe5481565b600061154e7f360894a13ba1a3210667c828492db98dca3e2076cc3735a920a3ca505d382bbc60001b611dfa565b60000160009054906101000a900473ffffffffffffffffffffffffffffffffffffffff16905090565b61157f611748565b50565b6115ae7f4910fdfa16fed3260ed0e7147f7cc6da11a60208b5b9406d12a635614ffd914360001b611e04565b60000160009054906101000a900460ff16156115d2576115cd83611e0e565b6116eb565b8273ffffffffffffffffffffffffffffffffffffffff166352d1902d6040518163ffffffff1660e01b8152600401602060405180830381865afa92505050801561163a57506040513d601f19601f820116820180604052508101906116379190612eed565b60015b611679576040517f08c379a000000000000000000000000000000000000000000000000000000000815260040161167090612f8c565b60405180910390fd5b7f360894a13ba1a3210667c828492db98dca3e2076cc3735a920a3ca505d382bbc60001b81146116de576040517f08c379a00000000000000000000000000000000000000000000000000000000081526004016116d59061301e565b60405180910390fd5b506116ea838383611ec7565b5b505050565b600081836116fe919061306d565b905092915050565b6000818361171491906130a1565b905092915050565b6000818361172a9190613112565b905092915050565b600081836117409190613143565b905092915050565b611750611ef3565b73ffffffffffffffffffffffffffffffffffffffff1661176e610c5f565b73ffffffffffffffffffffffffffffffffffffffff16146117c4576040517f08c379a00000000000000000000000000000000000000000000000000000000081526004016117bb906131c3565b60405180910390fd5b565b6000609760009054906101000a900473ffffffffffffffffffffffffffffffffffffffff16905081609760006101000a81548173ffffffffffffffffffffffffffffffffffffffff021916908373ffffffffffffffffffffffffffffffffffffffff1602179055508173ffffffffffffffffffffffffffffffffffffffff168173ffffffffffffffffffffffffffffffffffffffff167f8be0079c531659141344cd1fd0a4f28419497f9722a3daafe3b4186f6b6457e060405160405180910390a35050565b600260c954036118d1576040517f08c379a00000000000000000000000000000000000000000000000000000000081526004016118c89061322f565b60405180910390fd5b600260c981905550565b61195e846323b872dd60e01b8585856040516024016118fc9392919061324f565b604051602081830303815290604052907bffffffffffffffffffffffffffffffffffffffffffffffffffffffff19166020820180517bffffffffffffffffffffffffffffffffffffffffffffffffffffffff8381831617835250505050611efb565b50505050565b6119e58363a9059cbb60e01b8484604051602401611983929190613286565b604051602081830303815290604052907bffffffffffffffffffffffffffffffffffffffffffffffffffffffff19166020820180517bffffffffffffffffffffffffffffffffffffffffffffffffffffffff8381831617835250505050611efb565b505050565b600160c981905550565b61010160008373ffffffffffffffffffffffffffffffffffffffff1673ffffffffffffffffffffffffffffffffffffffff16815260200190815260200160002054811115611a77576040517f08c379a0000000000000000000000000000000000000000000000000000000008152600401611a6e90613321565b60405180910390fd5b611a8d81610100546116f090919063ffffffff16565b61010081905550611ae78161010160008573ffffffffffffffffffffffffffffffffffffffff1673ffffffffffffffffffffffffffffffffffffffff168152602001908152602001600020546116f090919063ffffffff16565b61010160008473ffffffffffffffffffffffffffffffffffffffff1673ffffffffffffffffffffffffffffffffffffffff16815260200190815260200160002081905550600073ffffffffffffffffffffffffffffffffffffffff168273ffffffffffffffffffffffffffffffffffffffff167fddf252ad1be2c89b69c2b068fc378daa952ba7f163c4a11628f55a4df523b3ef83604051611b8991906123ae565b60405180910390a35050565b60006003821115611bfc5781905060006001600284611bb49190613112565b611bbe9190613143565b90505b81811015611bf6578091506002818285611bdb9190613112565b611be59190613143565b611bef9190613112565b9050611bc1565b50611c0a565b60008214611c0957600190505b5b919050565b611c25816101005461173290919063ffffffff16565b61010081905550611c7f8161010160008573ffffffffffffffffffffffffffffffffffffffff1673ffffffffffffffffffffffffffffffffffffffff1681526020019081526020016000205461173290919063ffffffff16565b61010160008473ffffffffffffffffffffffffffffffffffffffff1673ffffffffffffffffffffffffffffffffffffffff168152602001908152602001600020819055508173ffffffffffffffffffffffffffffffffffffffff16600073ffffffffffffffffffffffffffffffffffffffff167fddf252ad1be2c89b69c2b068fc378daa952ba7f163c4a11628f55a4df523b3ef83604051611d2191906123ae565b60405180910390a35050565b6000808273ffffffffffffffffffffffffffffffffffffffff163b119050919050565b600060019054906101000a900460ff16611d9f576040517f08c379a0000000000000000000000000000000000000000000000000000000008152600401611d96906133b3565b60405180910390fd5b565b600060019054906101000a900460ff16611df0576040517f08c379a0000000000000000000000000000000000000000000000000000000008152600401611de7906133b3565b60405180910390fd5b611df8611fc2565b565b6000819050919050565b6000819050919050565b611e1781611d2d565b611e56576040517f08c379a0000000000000000000000000000000000000000000000000000000008152600401611e4d90613445565b60405180910390fd5b80611e837f360894a13ba1a3210667c828492db98dca3e2076cc3735a920a3ca505d382bbc60001b611dfa565b60000160006101000a81548173ffffffffffffffffffffffffffffffffffffffff021916908373ffffffffffffffffffffffffffffffffffffffff16021790555050565b611ed083612023565b600082511180611edd5750805b15611eee57611eec8383612072565b505b505050565b600033905090565b6000611f5d826040518060400160405280602081526020017f5361666545524332303a206c6f772d6c6576656c2063616c6c206661696c65648152508573ffffffffffffffffffffffffffffffffffffffff166121569092919063ffffffff16565b9050600081511115611fbd5780806020019051810190611f7d919061349d565b611fbc576040517f08c379a0000000000000000000000000000000000000000000000000000000008152600401611fb39061353c565b60405180910390fd5b5b505050565b600060019054906101000a900460ff16612011576040517f08c379a0000000000000000000000000000000000000000000000000000000008152600401612008906133b3565b60405180910390fd5b61202161201c611ef3565b6117c6565b565b61202c81611e0e565b8073ffffffffffffffffffffffffffffffffffffffff167fbc7cd75a20ee27fd9adebab32041f755214dbc6bffa90cc0225b39da2e5c2d3b60405160405180910390a250565b606061207d83611d2d565b6120bc576040517f08c379a00000000000000000000000000000000000000000000000000000000081526004016120b3906135ce565b60405180910390fd5b6000808473ffffffffffffffffffffffffffffffffffffffff16846040516120e4919061365f565b600060405180830381855af49150503d806000811461211f576040519150601f19603f3d011682016040523d82523d6000602084013e612124565b606091505b509150915061214c82826040518060600160405280602781526020016137db6027913961216e565b9250505092915050565b60606121658484600085612190565b90509392505050565b6060831561217e57829050612189565b612188838361225d565b5b9392505050565b6060824710156121d5576040517f08c379a00000000000000000000000000000000000000000000000000000000081526004016121cc906136e8565b60405180910390fd5b6000808673ffffffffffffffffffffffffffffffffffffffff1685876040516121fe919061365f565b60006040518083038185875af1925050503d806000811461223b576040519150601f19603f3d011682016040523d82523d6000602084013e612240565b606091505b5091509150612251878383876122ad565b92505050949350505050565b6000825111156122705781518083602001fd5b806040517f08c379a00000000000000000000000000000000000000000000000000000000081526004016122a4919061374c565b60405180910390fd5b6060831561230f576000835103612307576122c785612322565b612306576040517f08c379a00000000000000000000000000000000000000000000000000000000081526004016122fd906137ba565b60405180910390fd5b5b82905061231a565b6123198383612345565b5b949350505050565b6000808273ffffffffffffffffffffffffffffffffffffffff163b119050919050565b6000825111156123585781518083602001fd5b806040517f08c379a000000000000000000000000000000000000000000000000000000000815260040161238c919061374c565b60405180910390fd5b6000819050919050565b6123a881612395565b82525050565b60006020820190506123c3600083018461239f565b92915050565b60006060820190506123de600083018661239f565b6123eb602083018561239f565b6123f8604083018461239f565b949350505050565b6000604051905090565b600080fd5b600080fd5b600073ffffffffffffffffffffffffffffffffffffffff82169050919050565b600061243f82612414565b9050919050565b61244f81612434565b811461245a57600080fd5b50565b60008135905061246c81612446565b92915050565b6000602082840312156124885761248761240a565b5b60006124968482850161245d565b91505092915050565b600080fd5b600080fd5b6000601f19601f8301169050919050565b7f4e487b7100000000000000000000000000000000000000000000000000000000600052604160045260246000fd5b6124f2826124a9565b810181811067ffffffffffffffff82111715612511576125106124ba565b5b80604052505050565b6000612524612400565b905061253082826124e9565b919050565b600067ffffffffffffffff8211156125505761254f6124ba565b5b612559826124a9565b9050602081019050919050565b82818337600083830152505050565b600061258861258384612535565b61251a565b9050828152602081018484840111156125a4576125a36124a4565b5b6125af848285612566565b509392505050565b600082601f8301126125cc576125cb61249f565b5b81356125dc848260208601612575565b91505092915050565b600080604083850312156125fc576125fb61240a565b5b600061260a8582860161245d565b925050602083013567ffffffffffffffff81111561262b5761262a61240f565b5b612637858286016125b7565b9150509250929050565b6000819050919050565b61265481612641565b82525050565b600060208201905061266f600083018461264b565b92915050565b61267e81612395565b811461268957600080fd5b50565b60008135905061269b81612675565b92915050565b6000806000606084860312156126ba576126b961240a565b5b60006126c88682870161268c565b93505060206126d98682870161268c565b92505060406126ea8682870161268c565b9150509250925092565b6000819050919050565b600061271961271461270f84612414565b6126f4565b612414565b9050919050565b600061272b826126fe565b9050919050565b600061273d82612720565b9050919050565b61274d81612732565b82525050565b60006020820190506127686000830184612744565b92915050565b600080604083850312156127855761278461240a565b5b60006127938582860161268c565b92505060206127a48582860161268c565b9150509250929050565b6127b781612434565b82525050565b60006020820190506127d260008301846127ae565b92915050565b6000602082840312156127ee576127ed61240a565b5b60006127fc8482850161268c565b91505092915050565b600080600080600060a086880312156128215761282061240a565b5b600061282f8882890161245d565b95505060206128408882890161245d565b94505060406128518882890161268c565b93505060606128628882890161268c565b92505060806128738882890161268c565b9150509295509295909350565b600082825260208201905092915050565b7f46756e6374696f6e206d7573742062652063616c6c6564207468726f7567682060008201527f64656c656761746563616c6c0000000000000000000000000000000000000000602082015250565b60006128ed602c83612880565b91506128f882612891565b604082019050919050565b6000602082019050818103600083015261291c816128e0565b9050919050565b7f46756e6374696f6e206d7573742062652063616c6c6564207468726f7567682060008201527f6163746976652070726f78790000000000000000000000000000000000000000602082015250565b600061297f602c83612880565b915061298a82612923565b604082019050919050565b600060208201905081810360008301526129ae81612972565b9050919050565b7f555550535570677261646561626c653a206d757374206e6f742062652063616c60008201527f6c6564207468726f7567682064656c656761746563616c6c0000000000000000602082015250565b6000612a11603883612880565b9150612a1c826129b5565b604082019050919050565b60006020820190508181036000830152612a4081612a04565b9050919050565b7f43616e6e6f742073776170203020746f6b656e73000000000000000000000000600082015250565b6000612a7d601483612880565b9150612a8882612a47565b602082019050919050565b60006020820190508181036000830152612aac81612a70565b9050919050565b600081519050612ac281612675565b92915050565b600060208284031215612ade57612add61240a565b5b6000612aec84828501612ab3565b91505092915050565b7f496e73756666696369656e742062616c616e6365000000000000000000000000600082015250565b6000612b2b601483612880565b9150612b3682612af5565b602082019050919050565b60006020820190508181036000830152612b5a81612b1e565b9050919050565b7f536c69707061676520746f6f2068696768000000000000000000000000000000600082015250565b6000612b97601183612880565b9150612ba282612b61565b602082019050919050565b60006020820190508181036000830152612bc681612b8a565b9050919050565b7f43616e6e6f742072656d6f76652030206c697175696469747900000000000000600082015250565b6000612c03601983612880565b9150612c0e82612bcd565b602082019050919050565b60006020820190508181036000830152612c3281612bf6565b9050919050565b6000604082019050612c4e600083018561239f565b612c5b602083018461239f565b9392505050565b7f43616e6e6f74206164642030206c697175696469747900000000000000000000600082015250565b6000612c98601683612880565b9150612ca382612c62565b602082019050919050565b60006020820190508181036000830152612cc781612c8b565b9050919050565b7f496e697469616c697a61626c653a20636f6e747261637420697320616c72656160008201527f647920696e697469616c697a6564000000000000000000000000000000000000602082015250565b6000612d2a602e83612880565b9150612d3582612cce565b604082019050919050565b60006020820190508181036000830152612d5981612d1d565b9050919050565b7f546f6b656e73206d7573742062652064697374696e6374000000000000000000600082015250565b6000612d96601783612880565b9150612da182612d60565b602082019050919050565b60006020820190508181036000830152612dc581612d89565b9050919050565b6000819050919050565b600060ff82169050919050565b6000612dfe612df9612df484612dcc565b6126f4565b612dd6565b9050919050565b612e0e81612de3565b82525050565b6000602082019050612e296000830184612e05565b92915050565b7f4f776e61626c653a206e6577206f776e657220697320746865207a65726f206160008201527f6464726573730000000000000000000000000000000000000000000000000000602082015250565b6000612e8b602683612880565b9150612e9682612e2f565b604082019050919050565b60006020820190508181036000830152612eba81612e7e565b9050919050565b612eca81612641565b8114612ed557600080fd5b50565b600081519050612ee781612ec1565b92915050565b600060208284031215612f0357612f0261240a565b5b6000612f1184828501612ed8565b91505092915050565b7f45524331393637557067726164653a206e657720696d706c656d656e7461746960008201527f6f6e206973206e6f742055555053000000000000000000000000000000000000602082015250565b6000612f76602e83612880565b9150612f8182612f1a565b604082019050919050565b60006020820190508181036000830152612fa581612f69565b9050919050565b7f45524331393637557067726164653a20756e737570706f727465642070726f7860008201527f6961626c65555549440000000000000000000000000000000000000000000000602082015250565b6000613008602983612880565b915061301382612fac565b604082019050919050565b6000602082019050818103600083015261303781612ffb565b9050919050565b7f4e487b7100000000000000000000000000000000000000000000000000000000600052601160045260246000fd5b600061307882612395565b915061308383612395565b925082820390508181111561309b5761309a61303e565b5b92915050565b60006130ac82612395565b91506130b783612395565b92508282026130c581612395565b915082820484148315176130dc576130db61303e565b5b5092915050565b7f4e487b7100000000000000000000000000000000000000000000000000000000600052601260045260246000fd5b600061311d82612395565b915061312883612395565b925082613138576131376130e3565b5b828204905092915050565b600061314e82612395565b915061315983612395565b92508282019050808211156131715761317061303e565b5b92915050565b7f4f776e61626c653a2063616c6c6572206973206e6f7420746865206f776e6572600082015250565b60006131ad602083612880565b91506131b882613177565b602082019050919050565b600060208201905081810360008301526131dc816131a0565b9050919050565b7f5265656e7472616e637947756172643a207265656e7472616e742063616c6c00600082015250565b6000613219601f83612880565b9150613224826131e3565b602082019050919050565b600060208201905081810360008301526132488161320c565b9050919050565b600060608201905061326460008301866127ae565b61327160208301856127ae565b61327e604083018461239f565b949350505050565b600060408201905061329b60008301856127ae565b6132a8602083018461239f565b9392505050565b7f45524332303a206275726e20616d6f756e7420657863656564732062616c616e60008201527f6365000000000000000000000000000000000000000000000000000000000000602082015250565b600061330b602283612880565b9150613316826132af565b604082019050919050565b6000602082019050818103600083015261333a816132fe565b9050919050565b7f496e697469616c697a61626c653a20636f6e7472616374206973206e6f74206960008201527f6e697469616c697a696e67000000000000000000000000000000000000000000602082015250565b600061339d602b83612880565b91506133a882613341565b604082019050919050565b600060208201905081810360008301526133cc81613390565b9050919050565b7f455243313936373a206e657720696d706c656d656e746174696f6e206973206e60008201527f6f74206120636f6e747261637400000000000000000000000000000000000000602082015250565b600061342f602d83612880565b915061343a826133d3565b604082019050919050565b6000602082019050818103600083015261345e81613422565b9050919050565b60008115159050919050565b61347a81613465565b811461348557600080fd5b50565b60008151905061349781613471565b92915050565b6000602082840312156134b3576134b261240a565b5b60006134c184828501613488565b91505092915050565b7f5361666545524332303a204552433230206f7065726174696f6e20646964206e60008201527f6f74207375636365656400000000000000000000000000000000000000000000602082015250565b6000613526602a83612880565b9150613531826134ca565b604082019050919050565b6000602082019050818103600083015261355581613519565b9050919050565b7f416464726573733a2064656c65676174652063616c6c20746f206e6f6e2d636f60008201527f6e74726163740000000000000000000000000000000000000000000000000000602082015250565b60006135b8602683612880565b91506135c38261355c565b604082019050919050565b600060208201905081810360008301526135e7816135ab565b9050919050565b600081519050919050565b600081905092915050565b60005b83811015613622578082015181840152602081019050613607565b60008484015250505050565b6000613639826135ee565b61364381856135f9565b9350613653818560208601613604565b80840191505092915050565b600061366b828461362e565b915081905092915050565b7f416464726573733a20696e73756666696369656e742062616c616e636520666f60008201527f722063616c6c0000000000000000000000000000000000000000000000000000602082015250565b60006136d2602683612880565b91506136dd82613676565b604082019050919050565b60006020820190508181036000830152613701816136c5565b9050919050565b600081519050919050565b600061371e82613708565b6137288185612880565b9350613738818560208601613604565b613741816124a9565b840191505092915050565b600060208201905081810360008301526137668184613713565b905092915050565b7f416464726573733a2063616c6c20746f206e6f6e2d636f6e7472616374000000600082015250565b60006137a4601d83612880565b91506137af8261376e565b602082019050919050565b600060208201905081810360008301526137d381613797565b905091905056fe416464726573733a206c6f772d6c6576656c2064656c65676174652063616c6c206661696c6564a264697066735822122033917fc8ef401b64c9da0f353e86bbc59d15b3cc605fbbfb3aca7090c7563d9864736f6c63430008110033",
  "linkReferences": {},
  "deployedLinkReferences": {}
}